{
	"contracts/FundMe.sol": {
		"FundMe": {
			"abi": [
				{
					"inputs": [],
					"stateMutability": "nonpayable",
					"type": "constructor"
				},
				{
					"inputs": [
						{
							"internalType": "address",
							"name": "",
							"type": "address"
						}
					],
					"name": "addressToAmountFunded",
					"outputs": [
						{
							"internalType": "uint256",
							"name": "",
							"type": "uint256"
						}
					],
					"stateMutability": "view",
					"type": "function"
				},
				{
					"inputs": [],
					"name": "fund",
					"outputs": [],
					"stateMutability": "payable",
					"type": "function"
				},
				{
					"inputs": [
						{
							"internalType": "uint256",
							"name": "",
							"type": "uint256"
						}
					],
					"name": "funders",
					"outputs": [
						{
							"internalType": "address",
							"name": "",
							"type": "address"
						}
					],
					"stateMutability": "view",
					"type": "function"
				},
				{
					"inputs": [],
					"name": "minimumUsd",
					"outputs": [
						{
							"internalType": "uint256",
							"name": "",
							"type": "uint256"
						}
					],
					"stateMutability": "view",
					"type": "function"
				},
				{
					"inputs": [],
					"name": "owner",
					"outputs": [
						{
							"internalType": "address",
							"name": "",
							"type": "address"
						}
					],
					"stateMutability": "view",
					"type": "function"
				},
				{
					"inputs": [],
					"name": "withdraw",
					"outputs": [],
					"stateMutability": "nonpayable",
					"type": "function"
				}
			],
			"devdoc": {
				"kind": "dev",
				"methods": {},
				"version": 1
			},
			"evm": {
				"assembly": "    /* \"contracts/FundMe.sol\":210:2299  contract FundMe {\r... */\n  mstore(0x40, 0x80)\n    /* \"contracts/FundMe.sol\":306:315  50 * 1e18 */\n  0x02b5e3af16b1880000\n    /* \"contracts/FundMe.sol\":278:315  uint256 public minimumUsd = 50 * 1e18 */\n  0x00\n  sstore\n    /* \"contracts/FundMe.sol\":486:540  constructor () {\r... */\n  callvalue\n  dup1\n  iszero\n  tag_1\n  jumpi\n  0x00\n  dup1\n  revert\ntag_1:\n  pop\n    /* \"contracts/FundMe.sol\":520:530  msg.sender */\n  caller\n    /* \"contracts/FundMe.sol\":512:517  owner */\n  0x03\n  0x00\n    /* \"contracts/FundMe.sol\":512:530  owner = msg.sender */\n  0x0100\n  exp\n  dup2\n  sload\n  dup2\n  0xffffffffffffffffffffffffffffffffffffffff\n  mul\n  not\n  and\n  swap1\n  dup4\n  0xffffffffffffffffffffffffffffffffffffffff\n  and\n  mul\n  or\n  swap1\n  sstore\n  pop\n    /* \"contracts/FundMe.sol\":210:2299  contract FundMe {\r... */\n  dataSize(sub_0)\n  dup1\n  dataOffset(sub_0)\n  0x00\n  codecopy\n  0x00\n  return\nstop\n\nsub_0: assembly {\n        /* \"contracts/FundMe.sol\":210:2299  contract FundMe {\r... */\n      mstore(0x40, 0x80)\n      jumpi(tag_1, lt(calldatasize, 0x04))\n      shr(0xe0, calldataload(0x00))\n      dup1\n      0x098de820\n      eq\n      tag_2\n      jumpi\n      dup1\n      0x3ccfd60b\n      eq\n      tag_3\n      jumpi\n      dup1\n      0x3e47d6f3\n      eq\n      tag_4\n      jumpi\n      dup1\n      0x8da5cb5b\n      eq\n      tag_5\n      jumpi\n      dup1\n      0xb60d4288\n      eq\n      tag_6\n      jumpi\n      dup1\n      0xdc0d3dff\n      eq\n      tag_7\n      jumpi\n    tag_1:\n      0x00\n      dup1\n      revert\n        /* \"contracts/FundMe.sol\":278:315  uint256 public minimumUsd = 50 * 1e18 */\n    tag_2:\n      callvalue\n      dup1\n      iszero\n      tag_8\n      jumpi\n      0x00\n      dup1\n      revert\n    tag_8:\n      pop\n      tag_9\n      tag_10\n      jump\t// in\n    tag_9:\n      mload(0x40)\n      tag_11\n      swap2\n      swap1\n      tag_12\n      jump\t// in\n    tag_11:\n      mload(0x40)\n      dup1\n      swap2\n      sub\n      swap1\n      return\n        /* \"contracts/FundMe.sol\":972:2296  function withdraw() public {\r... */\n    tag_3:\n      callvalue\n      dup1\n      iszero\n      tag_13\n      jumpi\n      0x00\n      dup1\n      revert\n    tag_13:\n      pop\n      tag_14\n      tag_15\n      jump\t// in\n    tag_14:\n      stop\n        /* \"contracts/FundMe.sol\":388:444  mapping(address => uint256) public addressToAmountFunded */\n    tag_4:\n      callvalue\n      dup1\n      iszero\n      tag_16\n      jumpi\n      0x00\n      dup1\n      revert\n    tag_16:\n      pop\n      tag_17\n      0x04\n      dup1\n      calldatasize\n      sub\n      dup2\n      add\n      swap1\n      tag_18\n      swap2\n      swap1\n      tag_19\n      jump\t// in\n    tag_18:\n      tag_20\n      jump\t// in\n    tag_17:\n      mload(0x40)\n      tag_21\n      swap2\n      swap1\n      tag_12\n      jump\t// in\n    tag_21:\n      mload(0x40)\n      dup1\n      swap2\n      sub\n      swap1\n      return\n        /* \"contracts/FundMe.sol\":457:477  address public owner */\n    tag_5:\n      callvalue\n      dup1\n      iszero\n      tag_22\n      jumpi\n      0x00\n      dup1\n      revert\n    tag_22:\n      pop\n      tag_23\n      tag_24\n      jump\t// in\n    tag_23:\n      mload(0x40)\n      tag_25\n      swap2\n      swap1\n      tag_26\n      jump\t// in\n    tag_25:\n      mload(0x40)\n      dup1\n      swap2\n      sub\n      swap1\n      return\n        /* \"contracts/FundMe.sol\":548:964  function fund() public payable{\r... */\n    tag_6:\n      tag_27\n      tag_28\n      jump\t// in\n    tag_27:\n      stop\n        /* \"contracts/FundMe.sol\":336:360  address[] public funders */\n    tag_7:\n      callvalue\n      dup1\n      iszero\n      tag_29\n      jumpi\n      0x00\n      dup1\n      revert\n    tag_29:\n      pop\n      tag_30\n      0x04\n      dup1\n      calldatasize\n      sub\n      dup2\n      add\n      swap1\n      tag_31\n      swap2\n      swap1\n      tag_32\n      jump\t// in\n    tag_31:\n      tag_33\n      jump\t// in\n    tag_30:\n      mload(0x40)\n      tag_34\n      swap2\n      swap1\n      tag_26\n      jump\t// in\n    tag_34:\n      mload(0x40)\n      dup1\n      swap2\n      sub\n      swap1\n      return\n        /* \"contracts/FundMe.sol\":278:315  uint256 public minimumUsd = 50 * 1e18 */\n    tag_10:\n      sload(0x00)\n      dup2\n      jump\t// out\n        /* \"contracts/FundMe.sol\":972:2296  function withdraw() public {\r... */\n    tag_15:\n        /* \"contracts/FundMe.sol\":1142:1161  uint256 funderIndex */\n      0x00\n        /* \"contracts/FundMe.sol\":1138:1597  for(uint256 funderIndex = 0; funderIndex < funders.length; funderIndex = funderIndex + 1) { \r... */\n    tag_36:\n        /* \"contracts/FundMe.sol\":1181:1188  funders */\n      0x01\n        /* \"contracts/FundMe.sol\":1181:1195  funders.length */\n      dup1\n      sload\n      swap1\n      pop\n        /* \"contracts/FundMe.sol\":1167:1178  funderIndex */\n      dup2\n        /* \"contracts/FundMe.sol\":1167:1195  funderIndex < funders.length */\n      lt\n        /* \"contracts/FundMe.sol\":1138:1597  for(uint256 funderIndex = 0; funderIndex < funders.length; funderIndex = funderIndex + 1) { \r... */\n      iszero\n      tag_37\n      jumpi\n        /* \"contracts/FundMe.sol\":1463:1477  address funder */\n      0x00\n        /* \"contracts/FundMe.sol\":1480:1487  funders */\n      0x01\n        /* \"contracts/FundMe.sol\":1488:1499  funderIndex */\n      dup3\n        /* \"contracts/FundMe.sol\":1480:1500  funders[funderIndex] */\n      dup2\n      sload\n      dup2\n      lt\n      tag_39\n      jumpi\n      mstore(0x00, 0x4e487b7100000000000000000000000000000000000000000000000000000000)\n      mstore(0x04, 0x32)\n      revert(0x00, 0x24)\n    tag_39:\n      swap1\n      0x00\n      mstore\n      keccak256(0x00, 0x20)\n      add\n      0x00\n      swap1\n      sload\n      swap1\n      0x0100\n      exp\n      swap1\n      div\n      0xffffffffffffffffffffffffffffffffffffffff\n      and\n        /* \"contracts/FundMe.sol\":1463:1500  address funder = funders[funderIndex] */\n      swap1\n      pop\n        /* \"contracts/FundMe.sol\":1546:1547  0 */\n      0x00\n        /* \"contracts/FundMe.sol\":1514:1535  addressToAmountFunded */\n      0x02\n        /* \"contracts/FundMe.sol\":1514:1543  addressToAmountFunded[funder] */\n      0x00\n        /* \"contracts/FundMe.sol\":1536:1542  funder */\n      dup4\n        /* \"contracts/FundMe.sol\":1514:1543  addressToAmountFunded[funder] */\n      0xffffffffffffffffffffffffffffffffffffffff\n      and\n      0xffffffffffffffffffffffffffffffffffffffff\n      and\n      dup2\n      mstore\n      0x20\n      add\n      swap1\n      dup2\n      mstore\n      0x20\n      add\n      0x00\n      keccak256\n        /* \"contracts/FundMe.sol\":1514:1547  addressToAmountFunded[funder] = 0 */\n      dup2\n      swap1\n      sstore\n      pop\n        /* \"contracts/FundMe.sol\":1138:1597  for(uint256 funderIndex = 0; funderIndex < funders.length; funderIndex = funderIndex + 1) { \r... */\n      pop\n        /* \"contracts/FundMe.sol\":1225:1226  1 */\n      0x01\n        /* \"contracts/FundMe.sol\":1211:1222  funderIndex */\n      dup2\n        /* \"contracts/FundMe.sol\":1211:1226  funderIndex + 1 */\n      tag_41\n      swap2\n      swap1\n      tag_42\n      jump\t// in\n    tag_41:\n        /* \"contracts/FundMe.sol\":1197:1226  funderIndex = funderIndex + 1 */\n      swap1\n      pop\n        /* \"contracts/FundMe.sol\":1138:1597  for(uint256 funderIndex = 0; funderIndex < funders.length; funderIndex = funderIndex + 1) { \r... */\n      jump(tag_36)\n    tag_37:\n      pop\n        /* \"contracts/FundMe.sol\":1653:1654  0 */\n      0x00\n        /* \"contracts/FundMe.sol\":1639:1655  new address[](0) */\n      0xffffffffffffffff\n      dup2\n      gt\n      iszero\n      tag_43\n      jumpi\n      mstore(0x00, 0x4e487b7100000000000000000000000000000000000000000000000000000000)\n      mstore(0x04, 0x41)\n      revert(0x00, 0x24)\n    tag_43:\n      mload(0x40)\n      swap1\n      dup1\n      dup3\n      mstore\n      dup1\n      0x20\n      mul\n      0x20\n      add\n      dup3\n      add\n      0x40\n      mstore\n      dup1\n      iszero\n      tag_44\n      jumpi\n      dup2\n      0x20\n      add\n      0x20\n      dup3\n      mul\n      dup1\n      calldatasize\n      dup4\n      calldatacopy\n      dup1\n      dup3\n      add\n      swap2\n      pop\n      pop\n      swap1\n      pop\n    tag_44:\n      pop\n        /* \"contracts/FundMe.sol\":1629:1636  funders */\n      0x01\n        /* \"contracts/FundMe.sol\":1629:1655  funders = new address[](0) */\n      swap1\n      dup1\n      mload\n      swap1\n      0x20\n      add\n      swap1\n      tag_45\n      swap3\n      swap2\n      swap1\n      tag_46\n      jump\t// in\n    tag_45:\n      pop\n        /* \"contracts/FundMe.sol\":1851:1861  msg.sender */\n      caller\n        /* \"contracts/FundMe.sol\":1843:1871  payable(msg.sender).transfer */\n      0xffffffffffffffffffffffffffffffffffffffff\n      and\n        /* \"contracts/FundMe.sol\":1843:1894  payable(msg.sender).transfer(address(this).balance) */\n      0x08fc\n        /* \"contracts/FundMe.sol\":1872:1893  address(this).balance */\n      selfbalance\n        /* \"contracts/FundMe.sol\":1843:1894  payable(msg.sender).transfer(address(this).balance) */\n      swap1\n      dup2\n      iszero\n      mul\n      swap1\n      mload(0x40)\n      0x00\n      mload(0x40)\n      dup1\n      dup4\n      sub\n      dup2\n      dup6\n      dup9\n      dup9\n      call\n      swap4\n      pop\n      pop\n      pop\n      pop\n      iszero\n      dup1\n      iszero\n      tag_48\n      jumpi\n      returndatasize\n      0x00\n      dup1\n      returndatacopy\n      revert(0x00, returndatasize)\n    tag_48:\n      pop\n        /* \"contracts/FundMe.sol\":1921:1937  bool sendSuccess */\n      0x00\n        /* \"contracts/FundMe.sol\":1948:1958  msg.sender */\n      caller\n        /* \"contracts/FundMe.sol\":1940:1964  payable(msg.sender).send */\n      0xffffffffffffffffffffffffffffffffffffffff\n      and\n        /* \"contracts/FundMe.sol\":1940:1987  payable(msg.sender).send(address(this).balance) */\n      0x08fc\n        /* \"contracts/FundMe.sol\":1965:1986  address(this).balance */\n      selfbalance\n        /* \"contracts/FundMe.sol\":1940:1987  payable(msg.sender).send(address(this).balance) */\n      swap1\n      dup2\n      iszero\n      mul\n      swap1\n      mload(0x40)\n      0x00\n      mload(0x40)\n      dup1\n      dup4\n      sub\n      dup2\n      dup6\n      dup9\n      dup9\n      call\n      swap4\n      pop\n      pop\n      pop\n      pop\n        /* \"contracts/FundMe.sol\":1921:1987  bool sendSuccess = payable(msg.sender).send(address(this).balance) */\n      swap1\n      pop\n        /* \"contracts/FundMe.sol\":2005:2016  sendSuccess */\n      dup1\n        /* \"contracts/FundMe.sol\":1997:2034  require(sendSuccess, \"Send Failed!!\") */\n      tag_50\n      jumpi\n      mload(0x40)\n      0x08c379a000000000000000000000000000000000000000000000000000000000\n      dup2\n      mstore\n      0x04\n      add\n      tag_51\n      swap1\n      tag_52\n      jump\t// in\n    tag_51:\n      mload(0x40)\n      dup1\n      swap2\n      sub\n      swap1\n      revert\n    tag_50:\n        /* \"contracts/FundMe.sol\":2158:2174  bool callSuccess */\n      0x00\n        /* \"contracts/FundMe.sol\":2187:2197  msg.sender */\n      caller\n        /* \"contracts/FundMe.sol\":2179:2203  payable(msg.sender).call */\n      0xffffffffffffffffffffffffffffffffffffffff\n      and\n        /* \"contracts/FundMe.sol\":2211:2232  address(this).balance */\n      selfbalance\n        /* \"contracts/FundMe.sol\":2179:2237  payable(msg.sender).call{value: address(this).balance}(\"\") */\n      mload(0x40)\n      tag_53\n      swap1\n      tag_54\n      jump\t// in\n    tag_53:\n      0x00\n      mload(0x40)\n      dup1\n      dup4\n      sub\n      dup2\n      dup6\n      dup8\n      gas\n      call\n      swap3\n      pop\n      pop\n      pop\n      returndatasize\n      dup1\n      0x00\n      dup2\n      eq\n      tag_57\n      jumpi\n      mload(0x40)\n      swap2\n      pop\n      and(add(returndatasize, 0x3f), not(0x1f))\n      dup3\n      add\n      0x40\n      mstore\n      returndatasize\n      dup3\n      mstore\n      returndatasize\n      0x00\n      0x20\n      dup5\n      add\n      returndatacopy\n      jump(tag_56)\n    tag_57:\n      0x60\n      swap2\n      pop\n    tag_56:\n      pop\n        /* \"contracts/FundMe.sol\":2157:2237  (bool callSuccess,) = payable(msg.sender).call{value: address(this).balance}(\"\") */\n      pop\n      swap1\n      pop\n        /* \"contracts/FundMe.sol\":2255:2266  callSuccess */\n      dup1\n        /* \"contracts/FundMe.sol\":2247:2284  require(callSuccess, \"Send Failed!!\") */\n      tag_58\n      jumpi\n      mload(0x40)\n      0x08c379a000000000000000000000000000000000000000000000000000000000\n      dup2\n      mstore\n      0x04\n      add\n      tag_59\n      swap1\n      tag_52\n      jump\t// in\n    tag_59:\n      mload(0x40)\n      dup1\n      swap2\n      sub\n      swap1\n      revert\n    tag_58:\n        /* \"contracts/FundMe.sol\":972:2296  function withdraw() public {\r... */\n      pop\n      pop\n      jump\t// out\n        /* \"contracts/FundMe.sol\":388:444  mapping(address => uint256) public addressToAmountFunded */\n    tag_20:\n      mstore(0x20, 0x02)\n      dup1\n      0x00\n      mstore\n      keccak256(0x00, 0x40)\n      0x00\n      swap2\n      pop\n      swap1\n      pop\n      sload\n      dup2\n      jump\t// out\n        /* \"contracts/FundMe.sol\":457:477  address public owner */\n    tag_24:\n      0x03\n      0x00\n      swap1\n      sload\n      swap1\n      0x0100\n      exp\n      swap1\n      div\n      0xffffffffffffffffffffffffffffffffffffffff\n      and\n      dup2\n      jump\t// out\n        /* \"contracts/FundMe.sol\":548:964  function fund() public payable{\r... */\n    tag_28:\n        /* \"contracts/FundMe.sol\":797:807  minimumUsd */\n      sload(0x00)\n        /* \"contracts/FundMe.sol\":764:793  msg.value.getConversionRate() */\n      tag_61\n        /* \"contracts/FundMe.sol\":764:773  msg.value */\n      callvalue\n        /* \"contracts/FundMe.sol\":764:791  msg.value.getConversionRate */\n      tag_62\n        /* \"contracts/FundMe.sol\":764:793  msg.value.getConversionRate() */\n      jump\t// in\n    tag_61:\n        /* \"contracts/FundMe.sol\":764:807  msg.value.getConversionRate() >= minimumUsd */\n      lt\n      iszero\n        /* \"contracts/FundMe.sol\":756:831  require(msg.value.getConversionRate() >= minimumUsd, \"Didn't Send enough!\") */\n      tag_63\n      jumpi\n      mload(0x40)\n      0x08c379a000000000000000000000000000000000000000000000000000000000\n      dup2\n      mstore\n      0x04\n      add\n      tag_64\n      swap1\n      tag_65\n      jump\t// in\n    tag_64:\n      mload(0x40)\n      dup1\n      swap2\n      sub\n      swap1\n      revert\n    tag_63:\n        /* \"contracts/FundMe.sol\":863:870  funders */\n      0x01\n        /* \"contracts/FundMe.sol\":876:886  msg.sender */\n      caller\n        /* \"contracts/FundMe.sol\":863:887  funders.push(msg.sender) */\n      swap1\n      dup1\n      0x01\n      dup2\n      sload\n      add\n      dup1\n      dup3\n      sstore\n      dup1\n      swap2\n      pop\n      pop\n      0x01\n      swap1\n      sub\n      swap1\n      0x00\n      mstore\n      keccak256(0x00, 0x20)\n      add\n      0x00\n      swap1\n      swap2\n      swap1\n      swap2\n      swap1\n      swap2\n      0x0100\n      exp\n      dup2\n      sload\n      dup2\n      0xffffffffffffffffffffffffffffffffffffffff\n      mul\n      not\n      and\n      swap1\n      dup4\n      0xffffffffffffffffffffffffffffffffffffffff\n      and\n      mul\n      or\n      swap1\n      sstore\n      pop\n        /* \"contracts/FundMe.sol\":935:944  msg.value */\n      callvalue\n        /* \"contracts/FundMe.sol\":898:919  addressToAmountFunded */\n      0x02\n        /* \"contracts/FundMe.sol\":898:931  addressToAmountFunded[msg.sender] */\n      0x00\n        /* \"contracts/FundMe.sol\":920:930  msg.sender */\n      caller\n        /* \"contracts/FundMe.sol\":898:931  addressToAmountFunded[msg.sender] */\n      0xffffffffffffffffffffffffffffffffffffffff\n      and\n      0xffffffffffffffffffffffffffffffffffffffff\n      and\n      dup2\n      mstore\n      0x20\n      add\n      swap1\n      dup2\n      mstore\n      0x20\n      add\n      0x00\n      keccak256\n      0x00\n        /* \"contracts/FundMe.sol\":898:944  addressToAmountFunded[msg.sender] += msg.value */\n      dup3\n      dup3\n      sload\n      tag_67\n      swap2\n      swap1\n      tag_42\n      jump\t// in\n    tag_67:\n      swap3\n      pop\n      pop\n      dup2\n      swap1\n      sstore\n      pop\n        /* \"contracts/FundMe.sol\":548:964  function fund() public payable{\r... */\n      jump\t// out\n        /* \"contracts/FundMe.sol\":336:360  address[] public funders */\n    tag_33:\n      0x01\n      dup2\n      dup2\n      sload\n      dup2\n      lt\n      tag_68\n      jumpi\n      0x00\n      dup1\n      revert\n    tag_68:\n      swap1\n      0x00\n      mstore\n      keccak256(0x00, 0x20)\n      add\n      0x00\n      swap2\n      pop\n      sload\n      swap1\n      0x0100\n      exp\n      swap1\n      div\n      0xffffffffffffffffffffffffffffffffffffffff\n      and\n      dup2\n      jump\t// out\n        /* \"contracts/PriceConverter.sol\":893:1193  function getConversionRate(uint256 ethAmount) internal view returns (uint256) {\r... */\n    tag_62:\n        /* \"contracts/PriceConverter.sol\":962:969  uint256 */\n      0x00\n        /* \"contracts/PriceConverter.sol\":1061:1077  uint256 ethPrice */\n      dup1\n        /* \"contracts/PriceConverter.sol\":1080:1090  getPrice() */\n      tag_71\n        /* \"contracts/PriceConverter.sol\":1080:1088  getPrice */\n      tag_72\n        /* \"contracts/PriceConverter.sol\":1080:1090  getPrice() */\n      jump\t// in\n    tag_71:\n        /* \"contracts/PriceConverter.sol\":1061:1090  uint256 ethPrice = getPrice() */\n      swap1\n      pop\n        /* \"contracts/PriceConverter.sol\":1101:1123  uint256 ethAmountInUsd */\n      0x00\n        /* \"contracts/PriceConverter.sol\":1149:1153  1e18 */\n      0x0de0b6b3a7640000\n        /* \"contracts/PriceConverter.sol\":1138:1147  ethAmount */\n      dup5\n        /* \"contracts/PriceConverter.sol\":1127:1135  ethPrice */\n      dup4\n        /* \"contracts/PriceConverter.sol\":1127:1147  ethPrice * ethAmount */\n      tag_73\n      swap2\n      swap1\n      tag_74\n      jump\t// in\n    tag_73:\n        /* \"contracts/PriceConverter.sol\":1126:1153  (ethPrice * ethAmount)/1e18 */\n      tag_75\n      swap2\n      swap1\n      tag_76\n      jump\t// in\n    tag_75:\n        /* \"contracts/PriceConverter.sol\":1101:1153  uint256 ethAmountInUsd = (ethPrice * ethAmount)/1e18 */\n      swap1\n      pop\n        /* \"contracts/PriceConverter.sol\":1171:1185  ethAmountInUsd */\n      dup1\n        /* \"contracts/PriceConverter.sol\":1164:1185  return ethAmountInUsd */\n      swap3\n      pop\n      pop\n      pop\n        /* \"contracts/PriceConverter.sol\":893:1193  function getConversionRate(uint256 ethAmount) internal view returns (uint256) {\r... */\n      swap2\n      swap1\n      pop\n      jump\t// out\n        /* \"contracts/PriceConverter.sol\":182:668  function getPrice() internal view returns(uint256) {\r... */\n    tag_72:\n        /* \"contracts/PriceConverter.sol\":224:231  uint256 */\n      0x00\n        /* \"contracts/PriceConverter.sol\":322:353  AggregatorV3Interface priceFeed */\n      dup1\n        /* \"contracts/PriceConverter.sol\":378:420  0xD4a33860578De61DBAbDc8BFdb98FD742fA7028e */\n      0xd4a33860578de61dbabdc8bfdb98fd742fa7028e\n        /* \"contracts/PriceConverter.sol\":322:421  AggregatorV3Interface priceFeed = AggregatorV3Interface(0xD4a33860578De61DBAbDc8BFdb98FD742fA7028e) */\n      swap1\n      pop\n        /* \"contracts/PriceConverter.sol\":436:448  int256 price */\n      0x00\n        /* \"contracts/PriceConverter.sol\":458:467  priceFeed */\n      dup2\n        /* \"contracts/PriceConverter.sol\":458:483  priceFeed.latestRoundData */\n      0xffffffffffffffffffffffffffffffffffffffff\n      and\n      0xfeaf968c\n        /* \"contracts/PriceConverter.sol\":458:485  priceFeed.latestRoundData() */\n      mload(0x40)\n      dup2\n      0xffffffff\n      and\n      0xe0\n      shl\n      dup2\n      mstore\n      0x04\n      add\n      0xa0\n      mload(0x40)\n      dup1\n      dup4\n      sub\n      dup2\n      dup7\n      dup1\n      extcodesize\n      iszero\n      dup1\n      iszero\n      tag_78\n      jumpi\n      0x00\n      dup1\n      revert\n    tag_78:\n      pop\n      gas\n      staticcall\n      iszero\n      dup1\n      iszero\n      tag_80\n      jumpi\n      returndatasize\n      0x00\n      dup1\n      returndatacopy\n      revert(0x00, returndatasize)\n    tag_80:\n      pop\n      pop\n      pop\n      pop\n      mload(0x40)\n      returndatasize\n      not(0x1f)\n      0x1f\n      dup3\n      add\n      and\n      dup3\n      add\n      dup1\n      0x40\n      mstore\n      pop\n      dup2\n      add\n      swap1\n      tag_81\n      swap2\n      swap1\n      tag_82\n      jump\t// in\n    tag_81:\n        /* \"contracts/PriceConverter.sol\":433:485  (, int256 price, , , ) = priceFeed.latestRoundData() */\n      pop\n      pop\n      pop\n      swap2\n      pop\n      pop\n        /* \"contracts/PriceConverter.sol\":622:626  1e10 */\n      0x02540be400\n        /* \"contracts/PriceConverter.sol\":614:619  price */\n      dup2\n        /* \"contracts/PriceConverter.sol\":614:626  price * 1e10 */\n      tag_83\n      swap2\n      swap1\n      tag_84\n      jump\t// in\n    tag_83:\n        /* \"contracts/PriceConverter.sol\":598:627  return uint256 (price * 1e10) */\n      swap3\n      pop\n      pop\n      pop\n        /* \"contracts/PriceConverter.sol\":182:668  function getPrice() internal view returns(uint256) {\r... */\n      swap1\n      jump\t// out\n    tag_46:\n      dup3\n      dup1\n      sload\n      dup3\n      dup3\n      sstore\n      swap1\n      0x00\n      mstore\n      keccak256(0x00, 0x20)\n      swap1\n      dup2\n      add\n      swap3\n      dup3\n      iszero\n      tag_85\n      jumpi\n      swap2\n      0x20\n      mul\n      dup3\n      add\n    tag_86:\n      dup3\n      dup2\n      gt\n      iszero\n      tag_87\n      jumpi\n      dup3\n      mload\n      dup3\n      exp(0x0100, 0x00)\n      dup2\n      sload\n      dup2\n      0xffffffffffffffffffffffffffffffffffffffff\n      mul\n      not\n      and\n      swap1\n      dup4\n      0xffffffffffffffffffffffffffffffffffffffff\n      and\n      mul\n      or\n      swap1\n      sstore\n      pop\n      swap2\n      0x20\n      add\n      swap2\n      swap1\n      0x01\n      add\n      swap1\n      jump(tag_86)\n    tag_87:\n    tag_85:\n      pop\n      swap1\n      pop\n      tag_88\n      swap2\n      swap1\n      tag_89\n      jump\t// in\n    tag_88:\n      pop\n      swap1\n      jump\t// out\n    tag_89:\n    tag_90:\n      dup1\n      dup3\n      gt\n      iszero\n      tag_91\n      jumpi\n      0x00\n      dup2\n      0x00\n      swap1\n      sstore\n      pop\n      0x01\n      add\n      jump(tag_90)\n    tag_91:\n      pop\n      swap1\n      jump\t// out\n        /* \"#utility.yul\":7:146   */\n    tag_93:\n      0x00\n        /* \"#utility.yul\":91:97   */\n      dup2\n        /* \"#utility.yul\":78:98   */\n      calldataload\n        /* \"#utility.yul\":69:98   */\n      swap1\n      pop\n        /* \"#utility.yul\":107:140   */\n      tag_95\n        /* \"#utility.yul\":134:139   */\n      dup2\n        /* \"#utility.yul\":107:140   */\n      tag_96\n      jump\t// in\n    tag_95:\n        /* \"#utility.yul\":59:146   */\n      swap3\n      swap2\n      pop\n      pop\n      jump\t// out\n        /* \"#utility.yul\":152:293   */\n    tag_97:\n      0x00\n        /* \"#utility.yul\":239:245   */\n      dup2\n        /* \"#utility.yul\":233:246   */\n      mload\n        /* \"#utility.yul\":224:246   */\n      swap1\n      pop\n        /* \"#utility.yul\":255:287   */\n      tag_99\n        /* \"#utility.yul\":281:286   */\n      dup2\n        /* \"#utility.yul\":255:287   */\n      tag_100\n      jump\t// in\n    tag_99:\n        /* \"#utility.yul\":214:293   */\n      swap3\n      swap2\n      pop\n      pop\n      jump\t// out\n        /* \"#utility.yul\":299:438   */\n    tag_101:\n      0x00\n        /* \"#utility.yul\":383:389   */\n      dup2\n        /* \"#utility.yul\":370:390   */\n      calldataload\n        /* \"#utility.yul\":361:390   */\n      swap1\n      pop\n        /* \"#utility.yul\":399:432   */\n      tag_103\n        /* \"#utility.yul\":426:431   */\n      dup2\n        /* \"#utility.yul\":399:432   */\n      tag_104\n      jump\t// in\n    tag_103:\n        /* \"#utility.yul\":351:438   */\n      swap3\n      swap2\n      pop\n      pop\n      jump\t// out\n        /* \"#utility.yul\":444:587   */\n    tag_105:\n      0x00\n        /* \"#utility.yul\":532:538   */\n      dup2\n        /* \"#utility.yul\":526:539   */\n      mload\n        /* \"#utility.yul\":517:539   */\n      swap1\n      pop\n        /* \"#utility.yul\":548:581   */\n      tag_107\n        /* \"#utility.yul\":575:580   */\n      dup2\n        /* \"#utility.yul\":548:581   */\n      tag_104\n      jump\t// in\n    tag_107:\n        /* \"#utility.yul\":507:587   */\n      swap3\n      swap2\n      pop\n      pop\n      jump\t// out\n        /* \"#utility.yul\":593:734   */\n    tag_108:\n      0x00\n        /* \"#utility.yul\":680:686   */\n      dup2\n        /* \"#utility.yul\":674:687   */\n      mload\n        /* \"#utility.yul\":665:687   */\n      swap1\n      pop\n        /* \"#utility.yul\":696:728   */\n      tag_110\n        /* \"#utility.yul\":722:727   */\n      dup2\n        /* \"#utility.yul\":696:728   */\n      tag_111\n      jump\t// in\n    tag_110:\n        /* \"#utility.yul\":655:734   */\n      swap3\n      swap2\n      pop\n      pop\n      jump\t// out\n        /* \"#utility.yul\":740:1002   */\n    tag_19:\n      0x00\n        /* \"#utility.yul\":848:850   */\n      0x20\n        /* \"#utility.yul\":836:845   */\n      dup3\n        /* \"#utility.yul\":827:834   */\n      dup5\n        /* \"#utility.yul\":823:846   */\n      sub\n        /* \"#utility.yul\":819:851   */\n      slt\n        /* \"#utility.yul\":816:818   */\n      iszero\n      tag_113\n      jumpi\n        /* \"#utility.yul\":864:865   */\n      0x00\n        /* \"#utility.yul\":861:862   */\n      dup1\n        /* \"#utility.yul\":854:866   */\n      revert\n        /* \"#utility.yul\":816:818   */\n    tag_113:\n        /* \"#utility.yul\":907:908   */\n      0x00\n        /* \"#utility.yul\":932:985   */\n      tag_114\n        /* \"#utility.yul\":977:984   */\n      dup5\n        /* \"#utility.yul\":968:974   */\n      dup3\n        /* \"#utility.yul\":957:966   */\n      dup6\n        /* \"#utility.yul\":953:975   */\n      add\n        /* \"#utility.yul\":932:985   */\n      tag_93\n      jump\t// in\n    tag_114:\n        /* \"#utility.yul\":922:985   */\n      swap2\n      pop\n        /* \"#utility.yul\":878:995   */\n      pop\n        /* \"#utility.yul\":806:1002   */\n      swap3\n      swap2\n      pop\n      pop\n      jump\t// out\n        /* \"#utility.yul\":1008:1270   */\n    tag_32:\n      0x00\n        /* \"#utility.yul\":1116:1118   */\n      0x20\n        /* \"#utility.yul\":1104:1113   */\n      dup3\n        /* \"#utility.yul\":1095:1102   */\n      dup5\n        /* \"#utility.yul\":1091:1114   */\n      sub\n        /* \"#utility.yul\":1087:1119   */\n      slt\n        /* \"#utility.yul\":1084:1086   */\n      iszero\n      tag_116\n      jumpi\n        /* \"#utility.yul\":1132:1133   */\n      0x00\n        /* \"#utility.yul\":1129:1130   */\n      dup1\n        /* \"#utility.yul\":1122:1134   */\n      revert\n        /* \"#utility.yul\":1084:1086   */\n    tag_116:\n        /* \"#utility.yul\":1175:1176   */\n      0x00\n        /* \"#utility.yul\":1200:1253   */\n      tag_117\n        /* \"#utility.yul\":1245:1252   */\n      dup5\n        /* \"#utility.yul\":1236:1242   */\n      dup3\n        /* \"#utility.yul\":1225:1234   */\n      dup6\n        /* \"#utility.yul\":1221:1243   */\n      add\n        /* \"#utility.yul\":1200:1253   */\n      tag_101\n      jump\t// in\n    tag_117:\n        /* \"#utility.yul\":1190:1253   */\n      swap2\n      pop\n        /* \"#utility.yul\":1146:1263   */\n      pop\n        /* \"#utility.yul\":1074:1270   */\n      swap3\n      swap2\n      pop\n      pop\n      jump\t// out\n        /* \"#utility.yul\":1276:2180   */\n    tag_82:\n      0x00\n      dup1\n      0x00\n      dup1\n      0x00\n        /* \"#utility.yul\":1460:1463   */\n      0xa0\n        /* \"#utility.yul\":1448:1457   */\n      dup7\n        /* \"#utility.yul\":1439:1446   */\n      dup9\n        /* \"#utility.yul\":1435:1458   */\n      sub\n        /* \"#utility.yul\":1431:1464   */\n      slt\n        /* \"#utility.yul\":1428:1430   */\n      iszero\n      tag_119\n      jumpi\n        /* \"#utility.yul\":1477:1478   */\n      0x00\n        /* \"#utility.yul\":1474:1475   */\n      dup1\n        /* \"#utility.yul\":1467:1479   */\n      revert\n        /* \"#utility.yul\":1428:1430   */\n    tag_119:\n        /* \"#utility.yul\":1520:1521   */\n      0x00\n        /* \"#utility.yul\":1545:1608   */\n      tag_120\n        /* \"#utility.yul\":1600:1607   */\n      dup9\n        /* \"#utility.yul\":1591:1597   */\n      dup3\n        /* \"#utility.yul\":1580:1589   */\n      dup10\n        /* \"#utility.yul\":1576:1598   */\n      add\n        /* \"#utility.yul\":1545:1608   */\n      tag_108\n      jump\t// in\n    tag_120:\n        /* \"#utility.yul\":1535:1608   */\n      swap6\n      pop\n        /* \"#utility.yul\":1491:1618   */\n      pop\n        /* \"#utility.yul\":1657:1659   */\n      0x20\n        /* \"#utility.yul\":1683:1746   */\n      tag_121\n        /* \"#utility.yul\":1738:1745   */\n      dup9\n        /* \"#utility.yul\":1729:1735   */\n      dup3\n        /* \"#utility.yul\":1718:1727   */\n      dup10\n        /* \"#utility.yul\":1714:1736   */\n      add\n        /* \"#utility.yul\":1683:1746   */\n      tag_97\n      jump\t// in\n    tag_121:\n        /* \"#utility.yul\":1673:1746   */\n      swap5\n      pop\n        /* \"#utility.yul\":1628:1756   */\n      pop\n        /* \"#utility.yul\":1795:1797   */\n      0x40\n        /* \"#utility.yul\":1821:1885   */\n      tag_122\n        /* \"#utility.yul\":1877:1884   */\n      dup9\n        /* \"#utility.yul\":1868:1874   */\n      dup3\n        /* \"#utility.yul\":1857:1866   */\n      dup10\n        /* \"#utility.yul\":1853:1875   */\n      add\n        /* \"#utility.yul\":1821:1885   */\n      tag_105\n      jump\t// in\n    tag_122:\n        /* \"#utility.yul\":1811:1885   */\n      swap4\n      pop\n        /* \"#utility.yul\":1766:1895   */\n      pop\n        /* \"#utility.yul\":1934:1936   */\n      0x60\n        /* \"#utility.yul\":1960:2024   */\n      tag_123\n        /* \"#utility.yul\":2016:2023   */\n      dup9\n        /* \"#utility.yul\":2007:2013   */\n      dup3\n        /* \"#utility.yul\":1996:2005   */\n      dup10\n        /* \"#utility.yul\":1992:2014   */\n      add\n        /* \"#utility.yul\":1960:2024   */\n      tag_105\n      jump\t// in\n    tag_123:\n        /* \"#utility.yul\":1950:2024   */\n      swap3\n      pop\n        /* \"#utility.yul\":1905:2034   */\n      pop\n        /* \"#utility.yul\":2073:2076   */\n      0x80\n        /* \"#utility.yul\":2100:2163   */\n      tag_124\n        /* \"#utility.yul\":2155:2162   */\n      dup9\n        /* \"#utility.yul\":2146:2152   */\n      dup3\n        /* \"#utility.yul\":2135:2144   */\n      dup10\n        /* \"#utility.yul\":2131:2153   */\n      add\n        /* \"#utility.yul\":2100:2163   */\n      tag_108\n      jump\t// in\n    tag_124:\n        /* \"#utility.yul\":2090:2163   */\n      swap2\n      pop\n        /* \"#utility.yul\":2044:2173   */\n      pop\n        /* \"#utility.yul\":1418:2180   */\n      swap3\n      swap6\n      pop\n      swap3\n      swap6\n      swap1\n      swap4\n      pop\n      jump\t// out\n        /* \"#utility.yul\":2186:2304   */\n    tag_125:\n        /* \"#utility.yul\":2273:2297   */\n      tag_127\n        /* \"#utility.yul\":2291:2296   */\n      dup2\n        /* \"#utility.yul\":2273:2297   */\n      tag_128\n      jump\t// in\n    tag_127:\n        /* \"#utility.yul\":2268:2271   */\n      dup3\n        /* \"#utility.yul\":2261:2298   */\n      mstore\n        /* \"#utility.yul\":2251:2304   */\n      pop\n      pop\n      jump\t// out\n        /* \"#utility.yul\":2310:2627   */\n    tag_129:\n      0x00\n        /* \"#utility.yul\":2473:2540   */\n      tag_131\n        /* \"#utility.yul\":2537:2539   */\n      0x13\n        /* \"#utility.yul\":2532:2535   */\n      dup4\n        /* \"#utility.yul\":2473:2540   */\n      tag_132\n      jump\t// in\n    tag_131:\n        /* \"#utility.yul\":2466:2540   */\n      swap2\n      pop\n        /* \"#utility.yul\":2570:2591   */\n      0x4469646e27742053656e6420656e6f7567682100000000000000000000000000\n        /* \"#utility.yul\":2566:2567   */\n      0x00\n        /* \"#utility.yul\":2561:2564   */\n      dup4\n        /* \"#utility.yul\":2557:2568   */\n      add\n        /* \"#utility.yul\":2550:2592   */\n      mstore\n        /* \"#utility.yul\":2618:2620   */\n      0x20\n        /* \"#utility.yul\":2613:2616   */\n      dup3\n        /* \"#utility.yul\":2609:2621   */\n      add\n        /* \"#utility.yul\":2602:2621   */\n      swap1\n      pop\n        /* \"#utility.yul\":2456:2627   */\n      swap2\n      swap1\n      pop\n      jump\t// out\n        /* \"#utility.yul\":2633:2944   */\n    tag_133:\n      0x00\n        /* \"#utility.yul\":2796:2863   */\n      tag_135\n        /* \"#utility.yul\":2860:2862   */\n      0x0d\n        /* \"#utility.yul\":2855:2858   */\n      dup4\n        /* \"#utility.yul\":2796:2863   */\n      tag_132\n      jump\t// in\n    tag_135:\n        /* \"#utility.yul\":2789:2863   */\n      swap2\n      pop\n        /* \"#utility.yul\":2893:2908   */\n      0x53656e64204661696c6564212100000000000000000000000000000000000000\n        /* \"#utility.yul\":2889:2890   */\n      0x00\n        /* \"#utility.yul\":2884:2887   */\n      dup4\n        /* \"#utility.yul\":2880:2891   */\n      add\n        /* \"#utility.yul\":2873:2909   */\n      mstore\n        /* \"#utility.yul\":2935:2937   */\n      0x20\n        /* \"#utility.yul\":2930:2933   */\n      dup3\n        /* \"#utility.yul\":2926:2938   */\n      add\n        /* \"#utility.yul\":2919:2938   */\n      swap1\n      pop\n        /* \"#utility.yul\":2779:2944   */\n      swap2\n      swap1\n      pop\n      jump\t// out\n        /* \"#utility.yul\":2950:3247   */\n    tag_136:\n      0x00\n        /* \"#utility.yul\":3130:3213   */\n      tag_138\n        /* \"#utility.yul\":3211:3212   */\n      0x00\n        /* \"#utility.yul\":3206:3209   */\n      dup4\n        /* \"#utility.yul\":3130:3213   */\n      tag_139\n      jump\t// in\n    tag_138:\n        /* \"#utility.yul\":3123:3213   */\n      swap2\n      pop\n        /* \"#utility.yul\":3239:3240   */\n      0x00\n        /* \"#utility.yul\":3234:3237   */\n      dup3\n        /* \"#utility.yul\":3230:3241   */\n      add\n        /* \"#utility.yul\":3223:3241   */\n      swap1\n      pop\n        /* \"#utility.yul\":3113:3247   */\n      swap2\n      swap1\n      pop\n      jump\t// out\n        /* \"#utility.yul\":3253:3371   */\n    tag_140:\n        /* \"#utility.yul\":3340:3364   */\n      tag_142\n        /* \"#utility.yul\":3358:3363   */\n      dup2\n        /* \"#utility.yul\":3340:3364   */\n      tag_143\n      jump\t// in\n    tag_142:\n        /* \"#utility.yul\":3335:3338   */\n      dup3\n        /* \"#utility.yul\":3328:3365   */\n      mstore\n        /* \"#utility.yul\":3318:3371   */\n      pop\n      pop\n      jump\t// out\n        /* \"#utility.yul\":3377:3756   */\n    tag_54:\n      0x00\n        /* \"#utility.yul\":3583:3730   */\n      tag_145\n        /* \"#utility.yul\":3726:3729   */\n      dup3\n        /* \"#utility.yul\":3583:3730   */\n      tag_136\n      jump\t// in\n    tag_145:\n        /* \"#utility.yul\":3576:3730   */\n      swap2\n      pop\n        /* \"#utility.yul\":3747:3750   */\n      dup2\n        /* \"#utility.yul\":3740:3750   */\n      swap1\n      pop\n        /* \"#utility.yul\":3565:3756   */\n      swap2\n      swap1\n      pop\n      jump\t// out\n        /* \"#utility.yul\":3762:3984   */\n    tag_26:\n      0x00\n        /* \"#utility.yul\":3893:3895   */\n      0x20\n        /* \"#utility.yul\":3882:3891   */\n      dup3\n        /* \"#utility.yul\":3878:3896   */\n      add\n        /* \"#utility.yul\":3870:3896   */\n      swap1\n      pop\n        /* \"#utility.yul\":3906:3977   */\n      tag_147\n        /* \"#utility.yul\":3974:3975   */\n      0x00\n        /* \"#utility.yul\":3963:3972   */\n      dup4\n        /* \"#utility.yul\":3959:3976   */\n      add\n        /* \"#utility.yul\":3950:3956   */\n      dup5\n        /* \"#utility.yul\":3906:3977   */\n      tag_125\n      jump\t// in\n    tag_147:\n        /* \"#utility.yul\":3860:3984   */\n      swap3\n      swap2\n      pop\n      pop\n      jump\t// out\n        /* \"#utility.yul\":3990:4409   */\n    tag_65:\n      0x00\n        /* \"#utility.yul\":4194:4196   */\n      0x20\n        /* \"#utility.yul\":4183:4192   */\n      dup3\n        /* \"#utility.yul\":4179:4197   */\n      add\n        /* \"#utility.yul\":4171:4197   */\n      swap1\n      pop\n        /* \"#utility.yul\":4243:4252   */\n      dup2\n        /* \"#utility.yul\":4237:4241   */\n      dup2\n        /* \"#utility.yul\":4233:4253   */\n      sub\n        /* \"#utility.yul\":4229:4230   */\n      0x00\n        /* \"#utility.yul\":4218:4227   */\n      dup4\n        /* \"#utility.yul\":4214:4231   */\n      add\n        /* \"#utility.yul\":4207:4254   */\n      mstore\n        /* \"#utility.yul\":4271:4402   */\n      tag_149\n        /* \"#utility.yul\":4397:4401   */\n      dup2\n        /* \"#utility.yul\":4271:4402   */\n      tag_129\n      jump\t// in\n    tag_149:\n        /* \"#utility.yul\":4263:4402   */\n      swap1\n      pop\n        /* \"#utility.yul\":4161:4409   */\n      swap2\n      swap1\n      pop\n      jump\t// out\n        /* \"#utility.yul\":4415:4834   */\n    tag_52:\n      0x00\n        /* \"#utility.yul\":4619:4621   */\n      0x20\n        /* \"#utility.yul\":4608:4617   */\n      dup3\n        /* \"#utility.yul\":4604:4622   */\n      add\n        /* \"#utility.yul\":4596:4622   */\n      swap1\n      pop\n        /* \"#utility.yul\":4668:4677   */\n      dup2\n        /* \"#utility.yul\":4662:4666   */\n      dup2\n        /* \"#utility.yul\":4658:4678   */\n      sub\n        /* \"#utility.yul\":4654:4655   */\n      0x00\n        /* \"#utility.yul\":4643:4652   */\n      dup4\n        /* \"#utility.yul\":4639:4656   */\n      add\n        /* \"#utility.yul\":4632:4679   */\n      mstore\n        /* \"#utility.yul\":4696:4827   */\n      tag_151\n        /* \"#utility.yul\":4822:4826   */\n      dup2\n        /* \"#utility.yul\":4696:4827   */\n      tag_133\n      jump\t// in\n    tag_151:\n        /* \"#utility.yul\":4688:4827   */\n      swap1\n      pop\n        /* \"#utility.yul\":4586:4834   */\n      swap2\n      swap1\n      pop\n      jump\t// out\n        /* \"#utility.yul\":4840:5062   */\n    tag_12:\n      0x00\n        /* \"#utility.yul\":4971:4973   */\n      0x20\n        /* \"#utility.yul\":4960:4969   */\n      dup3\n        /* \"#utility.yul\":4956:4974   */\n      add\n        /* \"#utility.yul\":4948:4974   */\n      swap1\n      pop\n        /* \"#utility.yul\":4984:5055   */\n      tag_153\n        /* \"#utility.yul\":5052:5053   */\n      0x00\n        /* \"#utility.yul\":5041:5050   */\n      dup4\n        /* \"#utility.yul\":5037:5054   */\n      add\n        /* \"#utility.yul\":5028:5034   */\n      dup5\n        /* \"#utility.yul\":4984:5055   */\n      tag_140\n      jump\t// in\n    tag_153:\n        /* \"#utility.yul\":4938:5062   */\n      swap3\n      swap2\n      pop\n      pop\n      jump\t// out\n        /* \"#utility.yul\":5068:5215   */\n    tag_139:\n      0x00\n        /* \"#utility.yul\":5206:5209   */\n      dup2\n        /* \"#utility.yul\":5191:5209   */\n      swap1\n      pop\n        /* \"#utility.yul\":5181:5215   */\n      swap3\n      swap2\n      pop\n      pop\n      jump\t// out\n        /* \"#utility.yul\":5221:5390   */\n    tag_132:\n      0x00\n        /* \"#utility.yul\":5339:5345   */\n      dup3\n        /* \"#utility.yul\":5334:5337   */\n      dup3\n        /* \"#utility.yul\":5327:5346   */\n      mstore\n        /* \"#utility.yul\":5379:5383   */\n      0x20\n        /* \"#utility.yul\":5374:5377   */\n      dup3\n        /* \"#utility.yul\":5370:5384   */\n      add\n        /* \"#utility.yul\":5355:5384   */\n      swap1\n      pop\n        /* \"#utility.yul\":5317:5390   */\n      swap3\n      swap2\n      pop\n      pop\n      jump\t// out\n        /* \"#utility.yul\":5396:5701   */\n    tag_42:\n      0x00\n        /* \"#utility.yul\":5455:5475   */\n      tag_157\n        /* \"#utility.yul\":5473:5474   */\n      dup3\n        /* \"#utility.yul\":5455:5475   */\n      tag_143\n      jump\t// in\n    tag_157:\n        /* \"#utility.yul\":5450:5475   */\n      swap2\n      pop\n        /* \"#utility.yul\":5489:5509   */\n      tag_158\n        /* \"#utility.yul\":5507:5508   */\n      dup4\n        /* \"#utility.yul\":5489:5509   */\n      tag_143\n      jump\t// in\n    tag_158:\n        /* \"#utility.yul\":5484:5509   */\n      swap3\n      pop\n        /* \"#utility.yul\":5643:5644   */\n      dup3\n        /* \"#utility.yul\":5575:5641   */\n      0xffffffffffffffffffffffffffffffffffffffffffffffffffffffffffffffff\n        /* \"#utility.yul\":5571:5645   */\n      sub\n        /* \"#utility.yul\":5568:5569   */\n      dup3\n        /* \"#utility.yul\":5565:5646   */\n      gt\n        /* \"#utility.yul\":5562:5564   */\n      iszero\n      tag_159\n      jumpi\n        /* \"#utility.yul\":5649:5667   */\n      tag_160\n      tag_161\n      jump\t// in\n    tag_160:\n        /* \"#utility.yul\":5562:5564   */\n    tag_159:\n        /* \"#utility.yul\":5693:5694   */\n      dup3\n        /* \"#utility.yul\":5690:5691   */\n      dup3\n        /* \"#utility.yul\":5686:5695   */\n      add\n        /* \"#utility.yul\":5679:5695   */\n      swap1\n      pop\n        /* \"#utility.yul\":5440:5701   */\n      swap3\n      swap2\n      pop\n      pop\n      jump\t// out\n        /* \"#utility.yul\":5707:5892   */\n    tag_76:\n      0x00\n        /* \"#utility.yul\":5764:5784   */\n      tag_163\n        /* \"#utility.yul\":5782:5783   */\n      dup3\n        /* \"#utility.yul\":5764:5784   */\n      tag_143\n      jump\t// in\n    tag_163:\n        /* \"#utility.yul\":5759:5784   */\n      swap2\n      pop\n        /* \"#utility.yul\":5798:5818   */\n      tag_164\n        /* \"#utility.yul\":5816:5817   */\n      dup4\n        /* \"#utility.yul\":5798:5818   */\n      tag_143\n      jump\t// in\n    tag_164:\n        /* \"#utility.yul\":5793:5818   */\n      swap3\n      pop\n        /* \"#utility.yul\":5837:5838   */\n      dup3\n        /* \"#utility.yul\":5827:5829   */\n      tag_165\n      jumpi\n        /* \"#utility.yul\":5842:5860   */\n      tag_166\n      tag_167\n      jump\t// in\n    tag_166:\n        /* \"#utility.yul\":5827:5829   */\n    tag_165:\n        /* \"#utility.yul\":5884:5885   */\n      dup3\n        /* \"#utility.yul\":5881:5882   */\n      dup3\n        /* \"#utility.yul\":5877:5886   */\n      div\n        /* \"#utility.yul\":5872:5886   */\n      swap1\n      pop\n        /* \"#utility.yul\":5749:5892   */\n      swap3\n      swap2\n      pop\n      pop\n      jump\t// out\n        /* \"#utility.yul\":5898:6889   */\n    tag_84:\n      0x00\n        /* \"#utility.yul\":5960:5979   */\n      tag_169\n        /* \"#utility.yul\":5977:5978   */\n      dup3\n        /* \"#utility.yul\":5960:5979   */\n      tag_170\n      jump\t// in\n    tag_169:\n        /* \"#utility.yul\":5955:5979   */\n      swap2\n      pop\n        /* \"#utility.yul\":5993:6012   */\n      tag_171\n        /* \"#utility.yul\":6010:6011   */\n      dup4\n        /* \"#utility.yul\":5993:6012   */\n      tag_170\n      jump\t// in\n    tag_171:\n        /* \"#utility.yul\":5988:6012   */\n      swap3\n      pop\n        /* \"#utility.yul\":6194:6195   */\n      dup3\n        /* \"#utility.yul\":6126:6192   */\n      0x7fffffffffffffffffffffffffffffffffffffffffffffffffffffffffffffff\n        /* \"#utility.yul\":6122:6196   */\n      div\n        /* \"#utility.yul\":6119:6120   */\n      dup3\n        /* \"#utility.yul\":6116:6197   */\n      gt\n        /* \"#utility.yul\":6111:6112   */\n      0x00\n        /* \"#utility.yul\":6108:6109   */\n      dup5\n        /* \"#utility.yul\":6104:6113   */\n      sgt\n        /* \"#utility.yul\":6100:6101   */\n      0x00\n        /* \"#utility.yul\":6097:6098   */\n      dup5\n        /* \"#utility.yul\":6093:6102   */\n      sgt\n        /* \"#utility.yul\":6089:6114   */\n      and\n        /* \"#utility.yul\":6085:6198   */\n      and\n        /* \"#utility.yul\":6082:6084   */\n      iszero\n      tag_172\n      jumpi\n        /* \"#utility.yul\":6201:6219   */\n      tag_173\n      tag_161\n      jump\t// in\n    tag_173:\n        /* \"#utility.yul\":6082:6084   */\n    tag_172:\n        /* \"#utility.yul\":6405:6406   */\n      dup2\n        /* \"#utility.yul\":6337:6403   */\n      0x8000000000000000000000000000000000000000000000000000000000000000\n        /* \"#utility.yul\":6332:6407   */\n      sdiv\n        /* \"#utility.yul\":6329:6330   */\n      dup4\n        /* \"#utility.yul\":6325:6408   */\n      slt\n        /* \"#utility.yul\":6320:6321   */\n      0x00\n        /* \"#utility.yul\":6317:6318   */\n      dup5\n        /* \"#utility.yul\":6313:6322   */\n      slt\n        /* \"#utility.yul\":6309:6310   */\n      0x00\n        /* \"#utility.yul\":6306:6307   */\n      dup5\n        /* \"#utility.yul\":6302:6311   */\n      sgt\n        /* \"#utility.yul\":6298:6323   */\n      and\n        /* \"#utility.yul\":6294:6409   */\n      and\n        /* \"#utility.yul\":6291:6293   */\n      iszero\n      tag_174\n      jumpi\n        /* \"#utility.yul\":6412:6430   */\n      tag_175\n      tag_161\n      jump\t// in\n    tag_175:\n        /* \"#utility.yul\":6291:6293   */\n    tag_174:\n        /* \"#utility.yul\":6616:6617   */\n      dup3\n        /* \"#utility.yul\":6548:6614   */\n      0x8000000000000000000000000000000000000000000000000000000000000000\n        /* \"#utility.yul\":6543:6618   */\n      sdiv\n        /* \"#utility.yul\":6540:6541   */\n      dup3\n        /* \"#utility.yul\":6536:6619   */\n      slt\n        /* \"#utility.yul\":6531:6532   */\n      0x00\n        /* \"#utility.yul\":6528:6529   */\n      dup5\n        /* \"#utility.yul\":6524:6533   */\n      sgt\n        /* \"#utility.yul\":6520:6521   */\n      0x00\n        /* \"#utility.yul\":6517:6518   */\n      dup5\n        /* \"#utility.yul\":6513:6522   */\n      slt\n        /* \"#utility.yul\":6509:6534   */\n      and\n        /* \"#utility.yul\":6505:6620   */\n      and\n        /* \"#utility.yul\":6502:6504   */\n      iszero\n      tag_176\n      jumpi\n        /* \"#utility.yul\":6623:6641   */\n      tag_177\n      tag_161\n      jump\t// in\n    tag_177:\n        /* \"#utility.yul\":6502:6504   */\n    tag_176:\n        /* \"#utility.yul\":6826:6827   */\n      dup3\n        /* \"#utility.yul\":6758:6824   */\n      0x7fffffffffffffffffffffffffffffffffffffffffffffffffffffffffffffff\n        /* \"#utility.yul\":6753:6828   */\n      sdiv\n        /* \"#utility.yul\":6750:6751   */\n      dup3\n        /* \"#utility.yul\":6746:6829   */\n      slt\n        /* \"#utility.yul\":6741:6742   */\n      0x00\n        /* \"#utility.yul\":6738:6739   */\n      dup5\n        /* \"#utility.yul\":6734:6743   */\n      slt\n        /* \"#utility.yul\":6730:6731   */\n      0x00\n        /* \"#utility.yul\":6727:6728   */\n      dup5\n        /* \"#utility.yul\":6723:6732   */\n      slt\n        /* \"#utility.yul\":6719:6744   */\n      and\n        /* \"#utility.yul\":6715:6830   */\n      and\n        /* \"#utility.yul\":6712:6714   */\n      iszero\n      tag_178\n      jumpi\n        /* \"#utility.yul\":6833:6851   */\n      tag_179\n      tag_161\n      jump\t// in\n    tag_179:\n        /* \"#utility.yul\":6712:6714   */\n    tag_178:\n        /* \"#utility.yul\":6881:6882   */\n      dup3\n        /* \"#utility.yul\":6878:6879   */\n      dup3\n        /* \"#utility.yul\":6874:6883   */\n      mul\n        /* \"#utility.yul\":6863:6883   */\n      swap1\n      pop\n        /* \"#utility.yul\":5945:6889   */\n      swap3\n      swap2\n      pop\n      pop\n      jump\t// out\n        /* \"#utility.yul\":6895:7243   */\n    tag_74:\n      0x00\n        /* \"#utility.yul\":6958:6978   */\n      tag_181\n        /* \"#utility.yul\":6976:6977   */\n      dup3\n        /* \"#utility.yul\":6958:6978   */\n      tag_143\n      jump\t// in\n    tag_181:\n        /* \"#utility.yul\":6953:6978   */\n      swap2\n      pop\n        /* \"#utility.yul\":6992:7012   */\n      tag_182\n        /* \"#utility.yul\":7010:7011   */\n      dup4\n        /* \"#utility.yul\":6992:7012   */\n      tag_143\n      jump\t// in\n    tag_182:\n        /* \"#utility.yul\":6987:7012   */\n      swap3\n      pop\n        /* \"#utility.yul\":7180:7181   */\n      dup2\n        /* \"#utility.yul\":7112:7178   */\n      0xffffffffffffffffffffffffffffffffffffffffffffffffffffffffffffffff\n        /* \"#utility.yul\":7108:7182   */\n      div\n        /* \"#utility.yul\":7105:7106   */\n      dup4\n        /* \"#utility.yul\":7102:7183   */\n      gt\n        /* \"#utility.yul\":7097:7098   */\n      dup3\n        /* \"#utility.yul\":7090:7099   */\n      iszero\n        /* \"#utility.yul\":7083:7100   */\n      iszero\n        /* \"#utility.yul\":7079:7184   */\n      and\n        /* \"#utility.yul\":7076:7078   */\n      iszero\n      tag_183\n      jumpi\n        /* \"#utility.yul\":7187:7205   */\n      tag_184\n      tag_161\n      jump\t// in\n    tag_184:\n        /* \"#utility.yul\":7076:7078   */\n    tag_183:\n        /* \"#utility.yul\":7235:7236   */\n      dup3\n        /* \"#utility.yul\":7232:7233   */\n      dup3\n        /* \"#utility.yul\":7228:7237   */\n      mul\n        /* \"#utility.yul\":7217:7237   */\n      swap1\n      pop\n        /* \"#utility.yul\":6943:7243   */\n      swap3\n      swap2\n      pop\n      pop\n      jump\t// out\n        /* \"#utility.yul\":7249:7345   */\n    tag_128:\n      0x00\n        /* \"#utility.yul\":7315:7339   */\n      tag_186\n        /* \"#utility.yul\":7333:7338   */\n      dup3\n        /* \"#utility.yul\":7315:7339   */\n      tag_187\n      jump\t// in\n    tag_186:\n        /* \"#utility.yul\":7304:7339   */\n      swap1\n      pop\n        /* \"#utility.yul\":7294:7345   */\n      swap2\n      swap1\n      pop\n      jump\t// out\n        /* \"#utility.yul\":7351:7427   */\n    tag_170:\n      0x00\n        /* \"#utility.yul\":7416:7421   */\n      dup2\n        /* \"#utility.yul\":7405:7421   */\n      swap1\n      pop\n        /* \"#utility.yul\":7395:7427   */\n      swap2\n      swap1\n      pop\n      jump\t// out\n        /* \"#utility.yul\":7433:7559   */\n    tag_187:\n      0x00\n        /* \"#utility.yul\":7510:7552   */\n      0xffffffffffffffffffffffffffffffffffffffff\n        /* \"#utility.yul\":7503:7508   */\n      dup3\n        /* \"#utility.yul\":7499:7553   */\n      and\n        /* \"#utility.yul\":7488:7553   */\n      swap1\n      pop\n        /* \"#utility.yul\":7478:7559   */\n      swap2\n      swap1\n      pop\n      jump\t// out\n        /* \"#utility.yul\":7565:7642   */\n    tag_143:\n      0x00\n        /* \"#utility.yul\":7631:7636   */\n      dup2\n        /* \"#utility.yul\":7620:7636   */\n      swap1\n      pop\n        /* \"#utility.yul\":7610:7642   */\n      swap2\n      swap1\n      pop\n      jump\t// out\n        /* \"#utility.yul\":7648:7753   */\n    tag_191:\n      0x00\n        /* \"#utility.yul\":7724:7746   */\n      0xffffffffffffffffffff\n        /* \"#utility.yul\":7717:7722   */\n      dup3\n        /* \"#utility.yul\":7713:7747   */\n      and\n        /* \"#utility.yul\":7702:7747   */\n      swap1\n      pop\n        /* \"#utility.yul\":7692:7753   */\n      swap2\n      swap1\n      pop\n      jump\t// out\n        /* \"#utility.yul\":7759:7939   */\n    tag_161:\n        /* \"#utility.yul\":7807:7884   */\n      0x4e487b7100000000000000000000000000000000000000000000000000000000\n        /* \"#utility.yul\":7804:7805   */\n      0x00\n        /* \"#utility.yul\":7797:7885   */\n      mstore\n        /* \"#utility.yul\":7904:7908   */\n      0x11\n        /* \"#utility.yul\":7901:7902   */\n      0x04\n        /* \"#utility.yul\":7894:7909   */\n      mstore\n        /* \"#utility.yul\":7928:7932   */\n      0x24\n        /* \"#utility.yul\":7925:7926   */\n      0x00\n        /* \"#utility.yul\":7918:7933   */\n      revert\n        /* \"#utility.yul\":7945:8125   */\n    tag_167:\n        /* \"#utility.yul\":7993:8070   */\n      0x4e487b7100000000000000000000000000000000000000000000000000000000\n        /* \"#utility.yul\":7990:7991   */\n      0x00\n        /* \"#utility.yul\":7983:8071   */\n      mstore\n        /* \"#utility.yul\":8090:8094   */\n      0x12\n        /* \"#utility.yul\":8087:8088   */\n      0x04\n        /* \"#utility.yul\":8080:8095   */\n      mstore\n        /* \"#utility.yul\":8114:8118   */\n      0x24\n        /* \"#utility.yul\":8111:8112   */\n      0x00\n        /* \"#utility.yul\":8104:8119   */\n      revert\n        /* \"#utility.yul\":8131:8253   */\n    tag_96:\n        /* \"#utility.yul\":8204:8228   */\n      tag_196\n        /* \"#utility.yul\":8222:8227   */\n      dup2\n        /* \"#utility.yul\":8204:8228   */\n      tag_128\n      jump\t// in\n    tag_196:\n        /* \"#utility.yul\":8197:8202   */\n      dup2\n        /* \"#utility.yul\":8194:8229   */\n      eq\n        /* \"#utility.yul\":8184:8186   */\n      tag_197\n      jumpi\n        /* \"#utility.yul\":8243:8244   */\n      0x00\n        /* \"#utility.yul\":8240:8241   */\n      dup1\n        /* \"#utility.yul\":8233:8245   */\n      revert\n        /* \"#utility.yul\":8184:8186   */\n    tag_197:\n        /* \"#utility.yul\":8174:8253   */\n      pop\n      jump\t// out\n        /* \"#utility.yul\":8259:8379   */\n    tag_100:\n        /* \"#utility.yul\":8331:8354   */\n      tag_199\n        /* \"#utility.yul\":8348:8353   */\n      dup2\n        /* \"#utility.yul\":8331:8354   */\n      tag_170\n      jump\t// in\n    tag_199:\n        /* \"#utility.yul\":8324:8329   */\n      dup2\n        /* \"#utility.yul\":8321:8355   */\n      eq\n        /* \"#utility.yul\":8311:8313   */\n      tag_200\n      jumpi\n        /* \"#utility.yul\":8369:8370   */\n      0x00\n        /* \"#utility.yul\":8366:8367   */\n      dup1\n        /* \"#utility.yul\":8359:8371   */\n      revert\n        /* \"#utility.yul\":8311:8313   */\n    tag_200:\n        /* \"#utility.yul\":8301:8379   */\n      pop\n      jump\t// out\n        /* \"#utility.yul\":8385:8507   */\n    tag_104:\n        /* \"#utility.yul\":8458:8482   */\n      tag_202\n        /* \"#utility.yul\":8476:8481   */\n      dup2\n        /* \"#utility.yul\":8458:8482   */\n      tag_143\n      jump\t// in\n    tag_202:\n        /* \"#utility.yul\":8451:8456   */\n      dup2\n        /* \"#utility.yul\":8448:8483   */\n      eq\n        /* \"#utility.yul\":8438:8440   */\n      tag_203\n      jumpi\n        /* \"#utility.yul\":8497:8498   */\n      0x00\n        /* \"#utility.yul\":8494:8495   */\n      dup1\n        /* \"#utility.yul\":8487:8499   */\n      revert\n        /* \"#utility.yul\":8438:8440   */\n    tag_203:\n        /* \"#utility.yul\":8428:8507   */\n      pop\n      jump\t// out\n        /* \"#utility.yul\":8513:8633   */\n    tag_111:\n        /* \"#utility.yul\":8585:8608   */\n      tag_205\n        /* \"#utility.yul\":8602:8607   */\n      dup2\n        /* \"#utility.yul\":8585:8608   */\n      tag_191\n      jump\t// in\n    tag_205:\n        /* \"#utility.yul\":8578:8583   */\n      dup2\n        /* \"#utility.yul\":8575:8609   */\n      eq\n        /* \"#utility.yul\":8565:8567   */\n      tag_206\n      jumpi\n        /* \"#utility.yul\":8623:8624   */\n      0x00\n        /* \"#utility.yul\":8620:8621   */\n      dup1\n        /* \"#utility.yul\":8613:8625   */\n      revert\n        /* \"#utility.yul\":8565:8567   */\n    tag_206:\n        /* \"#utility.yul\":8555:8633   */\n      pop\n      jump\t// out\n\n    auxdata: 0xa2646970667358221220b4293006c0f54e4efc13d8266184d9db62798b9af4f56cd7e7bb0e25b5fc070664736f6c63430008000033\n}\n",
				"bytecode": {
					"linkReferences": {},
					"object": "60806040526802b5e3af16b188000060005534801561001d57600080fd5b5033600360006101000a81548173ffffffffffffffffffffffffffffffffffffffff021916908373ffffffffffffffffffffffffffffffffffffffff160217905550610d0e8061006e6000396000f3fe6080604052600436106100555760003560e01c8063098de8201461005a5780633ccfd60b146100855780633e47d6f31461009c5780638da5cb5b146100d9578063b60d428814610104578063dc0d3dff1461010e575b600080fd5b34801561006657600080fd5b5061006f61014b565b60405161007c9190610993565b60405180910390f35b34801561009157600080fd5b5061009a610151565b005b3480156100a857600080fd5b506100c360048036038101906100be91906107a2565b61041b565b6040516100d09190610993565b60405180910390f35b3480156100e557600080fd5b506100ee610433565b6040516100fb9190610938565b60405180910390f35b61010c610459565b005b34801561011a57600080fd5b50610135600480360381019061013091906107cb565b610561565b6040516101429190610938565b60405180910390f35b60005481565b60005b6001805490508110156102245760006001828154811061019d577f4e487b7100000000000000000000000000000000000000000000000000000000600052603260045260246000fd5b9060005260206000200160009054906101000a900473ffffffffffffffffffffffffffffffffffffffff1690506000600260008373ffffffffffffffffffffffffffffffffffffffff1673ffffffffffffffffffffffffffffffffffffffff168152602001908152602001600020819055505060018161021d91906109ca565b9050610154565b50600067ffffffffffffffff811115610266577f4e487b7100000000000000000000000000000000000000000000000000000000600052604160045260246000fd5b6040519080825280602002602001820160405280156102945781602001602082028036833780820191505090505b50600190805190602001906102aa929190610692565b503373ffffffffffffffffffffffffffffffffffffffff166108fc479081150290604051600060405180830381858888f193505050501580156102f1573d6000803e3d6000fd5b5060003373ffffffffffffffffffffffffffffffffffffffff166108fc479081150290604051600060405180830381858888f1935050505090508061036b576040517f08c379a000000000000000000000000000000000000000000000000000000000815260040161036290610973565b60405180910390fd5b60003373ffffffffffffffffffffffffffffffffffffffff164760405161039190610923565b60006040518083038185875af1925050503d80600081146103ce576040519150601f19603f3d011682016040523d82523d6000602084013e6103d3565b606091505b5050905080610417576040517f08c379a000000000000000000000000000000000000000000000000000000000815260040161040e90610973565b60405180910390fd5b5050565b60026020528060005260406000206000915090505481565b600360009054906101000a900473ffffffffffffffffffffffffffffffffffffffff1681565b600054610465346105a0565b10156104a6576040517f08c379a000000000000000000000000000000000000000000000000000000000815260040161049d90610953565b60405180910390fd5b6001339080600181540180825580915050600190039060005260206000200160009091909190916101000a81548173ffffffffffffffffffffffffffffffffffffffff021916908373ffffffffffffffffffffffffffffffffffffffff16021790555034600260003373ffffffffffffffffffffffffffffffffffffffff1673ffffffffffffffffffffffffffffffffffffffff168152602001908152602001600020600082825461055891906109ca565b92505081905550565b6001818154811061057157600080fd5b906000526020600020016000915054906101000a900473ffffffffffffffffffffffffffffffffffffffff1681565b6000806105ab6105da565b90506000670de0b6b3a764000084836105c49190610b68565b6105ce9190610a20565b90508092505050919050565b60008073d4a33860578de61dbabdc8bfdb98fd742fa7028e905060008173ffffffffffffffffffffffffffffffffffffffff1663feaf968c6040518163ffffffff1660e01b815260040160a06040518083038186803b15801561063c57600080fd5b505afa158015610650573d6000803e3d6000fd5b505050506040513d601f19601f8201168201806040525081019061067491906107f4565b5050509150506402540be4008161068b9190610a51565b9250505090565b82805482825590600052602060002090810192821561070b579160200282015b8281111561070a5782518260006101000a81548173ffffffffffffffffffffffffffffffffffffffff021916908373ffffffffffffffffffffffffffffffffffffffff160217905550916020019190600101906106b2565b5b509050610718919061071c565b5090565b5b8082111561073557600081600090555060010161071d565b5090565b60008135905061074881610c7c565b92915050565b60008151905061075d81610c93565b92915050565b60008135905061077281610caa565b92915050565b60008151905061078781610caa565b92915050565b60008151905061079c81610cc1565b92915050565b6000602082840312156107b457600080fd5b60006107c284828501610739565b91505092915050565b6000602082840312156107dd57600080fd5b60006107eb84828501610763565b91505092915050565b600080600080600060a0868803121561080c57600080fd5b600061081a8882890161078d565b955050602061082b8882890161074e565b945050604061083c88828901610778565b935050606061084d88828901610778565b925050608061085e8882890161078d565b9150509295509295909350565b61087481610bc2565b82525050565b60006108876013836109b9565b91507f4469646e27742053656e6420656e6f75676821000000000000000000000000006000830152602082019050919050565b60006108c7600d836109b9565b91507f53656e64204661696c65642121000000000000000000000000000000000000006000830152602082019050919050565b60006109076000836109ae565b9150600082019050919050565b61091d81610bfe565b82525050565b600061092e826108fa565b9150819050919050565b600060208201905061094d600083018461086b565b92915050565b6000602082019050818103600083015261096c8161087a565b9050919050565b6000602082019050818103600083015261098c816108ba565b9050919050565b60006020820190506109a86000830184610914565b92915050565b600081905092915050565b600082825260208201905092915050565b60006109d582610bfe565b91506109e083610bfe565b9250827fffffffffffffffffffffffffffffffffffffffffffffffffffffffffffffffff03821115610a1557610a14610c1e565b5b828201905092915050565b6000610a2b82610bfe565b9150610a3683610bfe565b925082610a4657610a45610c4d565b5b828204905092915050565b6000610a5c82610bd4565b9150610a6783610bd4565b9250827f7fffffffffffffffffffffffffffffffffffffffffffffffffffffffffffffff0482116000841360008413161615610aa657610aa5610c1e565b5b817f80000000000000000000000000000000000000000000000000000000000000000583126000841260008413161615610ae357610ae2610c1e565b5b827f80000000000000000000000000000000000000000000000000000000000000000582126000841360008412161615610b2057610b1f610c1e565b5b827f7fffffffffffffffffffffffffffffffffffffffffffffffffffffffffffffff0582126000841260008412161615610b5d57610b5c610c1e565b5b828202905092915050565b6000610b7382610bfe565b9150610b7e83610bfe565b9250817fffffffffffffffffffffffffffffffffffffffffffffffffffffffffffffffff0483118215151615610bb757610bb6610c1e565b5b828202905092915050565b6000610bcd82610bde565b9050919050565b6000819050919050565b600073ffffffffffffffffffffffffffffffffffffffff82169050919050565b6000819050919050565b600069ffffffffffffffffffff82169050919050565b7f4e487b7100000000000000000000000000000000000000000000000000000000600052601160045260246000fd5b7f4e487b7100000000000000000000000000000000000000000000000000000000600052601260045260246000fd5b610c8581610bc2565b8114610c9057600080fd5b50565b610c9c81610bd4565b8114610ca757600080fd5b50565b610cb381610bfe565b8114610cbe57600080fd5b50565b610cca81610c08565b8114610cd557600080fd5b5056fea2646970667358221220b4293006c0f54e4efc13d8266184d9db62798b9af4f56cd7e7bb0e25b5fc070664736f6c63430008000033",
					"opcodes": "PUSH1 0x80 PUSH1 0x40 MSTORE PUSH9 0x2B5E3AF16B1880000 PUSH1 0x0 SSTORE CALLVALUE DUP1 ISZERO PUSH2 0x1D JUMPI PUSH1 0x0 DUP1 REVERT JUMPDEST POP CALLER PUSH1 0x3 PUSH1 0x0 PUSH2 0x100 EXP DUP2 SLOAD DUP2 PUSH20 0xFFFFFFFFFFFFFFFFFFFFFFFFFFFFFFFFFFFFFFFF MUL NOT AND SWAP1 DUP4 PUSH20 0xFFFFFFFFFFFFFFFFFFFFFFFFFFFFFFFFFFFFFFFF AND MUL OR SWAP1 SSTORE POP PUSH2 0xD0E DUP1 PUSH2 0x6E PUSH1 0x0 CODECOPY PUSH1 0x0 RETURN INVALID PUSH1 0x80 PUSH1 0x40 MSTORE PUSH1 0x4 CALLDATASIZE LT PUSH2 0x55 JUMPI PUSH1 0x0 CALLDATALOAD PUSH1 0xE0 SHR DUP1 PUSH4 0x98DE820 EQ PUSH2 0x5A JUMPI DUP1 PUSH4 0x3CCFD60B EQ PUSH2 0x85 JUMPI DUP1 PUSH4 0x3E47D6F3 EQ PUSH2 0x9C JUMPI DUP1 PUSH4 0x8DA5CB5B EQ PUSH2 0xD9 JUMPI DUP1 PUSH4 0xB60D4288 EQ PUSH2 0x104 JUMPI DUP1 PUSH4 0xDC0D3DFF EQ PUSH2 0x10E JUMPI JUMPDEST PUSH1 0x0 DUP1 REVERT JUMPDEST CALLVALUE DUP1 ISZERO PUSH2 0x66 JUMPI PUSH1 0x0 DUP1 REVERT JUMPDEST POP PUSH2 0x6F PUSH2 0x14B JUMP JUMPDEST PUSH1 0x40 MLOAD PUSH2 0x7C SWAP2 SWAP1 PUSH2 0x993 JUMP JUMPDEST PUSH1 0x40 MLOAD DUP1 SWAP2 SUB SWAP1 RETURN JUMPDEST CALLVALUE DUP1 ISZERO PUSH2 0x91 JUMPI PUSH1 0x0 DUP1 REVERT JUMPDEST POP PUSH2 0x9A PUSH2 0x151 JUMP JUMPDEST STOP JUMPDEST CALLVALUE DUP1 ISZERO PUSH2 0xA8 JUMPI PUSH1 0x0 DUP1 REVERT JUMPDEST POP PUSH2 0xC3 PUSH1 0x4 DUP1 CALLDATASIZE SUB DUP2 ADD SWAP1 PUSH2 0xBE SWAP2 SWAP1 PUSH2 0x7A2 JUMP JUMPDEST PUSH2 0x41B JUMP JUMPDEST PUSH1 0x40 MLOAD PUSH2 0xD0 SWAP2 SWAP1 PUSH2 0x993 JUMP JUMPDEST PUSH1 0x40 MLOAD DUP1 SWAP2 SUB SWAP1 RETURN JUMPDEST CALLVALUE DUP1 ISZERO PUSH2 0xE5 JUMPI PUSH1 0x0 DUP1 REVERT JUMPDEST POP PUSH2 0xEE PUSH2 0x433 JUMP JUMPDEST PUSH1 0x40 MLOAD PUSH2 0xFB SWAP2 SWAP1 PUSH2 0x938 JUMP JUMPDEST PUSH1 0x40 MLOAD DUP1 SWAP2 SUB SWAP1 RETURN JUMPDEST PUSH2 0x10C PUSH2 0x459 JUMP JUMPDEST STOP JUMPDEST CALLVALUE DUP1 ISZERO PUSH2 0x11A JUMPI PUSH1 0x0 DUP1 REVERT JUMPDEST POP PUSH2 0x135 PUSH1 0x4 DUP1 CALLDATASIZE SUB DUP2 ADD SWAP1 PUSH2 0x130 SWAP2 SWAP1 PUSH2 0x7CB JUMP JUMPDEST PUSH2 0x561 JUMP JUMPDEST PUSH1 0x40 MLOAD PUSH2 0x142 SWAP2 SWAP1 PUSH2 0x938 JUMP JUMPDEST PUSH1 0x40 MLOAD DUP1 SWAP2 SUB SWAP1 RETURN JUMPDEST PUSH1 0x0 SLOAD DUP2 JUMP JUMPDEST PUSH1 0x0 JUMPDEST PUSH1 0x1 DUP1 SLOAD SWAP1 POP DUP2 LT ISZERO PUSH2 0x224 JUMPI PUSH1 0x0 PUSH1 0x1 DUP3 DUP2 SLOAD DUP2 LT PUSH2 0x19D JUMPI PUSH32 0x4E487B7100000000000000000000000000000000000000000000000000000000 PUSH1 0x0 MSTORE PUSH1 0x32 PUSH1 0x4 MSTORE PUSH1 0x24 PUSH1 0x0 REVERT JUMPDEST SWAP1 PUSH1 0x0 MSTORE PUSH1 0x20 PUSH1 0x0 KECCAK256 ADD PUSH1 0x0 SWAP1 SLOAD SWAP1 PUSH2 0x100 EXP SWAP1 DIV PUSH20 0xFFFFFFFFFFFFFFFFFFFFFFFFFFFFFFFFFFFFFFFF AND SWAP1 POP PUSH1 0x0 PUSH1 0x2 PUSH1 0x0 DUP4 PUSH20 0xFFFFFFFFFFFFFFFFFFFFFFFFFFFFFFFFFFFFFFFF AND PUSH20 0xFFFFFFFFFFFFFFFFFFFFFFFFFFFFFFFFFFFFFFFF AND DUP2 MSTORE PUSH1 0x20 ADD SWAP1 DUP2 MSTORE PUSH1 0x20 ADD PUSH1 0x0 KECCAK256 DUP2 SWAP1 SSTORE POP POP PUSH1 0x1 DUP2 PUSH2 0x21D SWAP2 SWAP1 PUSH2 0x9CA JUMP JUMPDEST SWAP1 POP PUSH2 0x154 JUMP JUMPDEST POP PUSH1 0x0 PUSH8 0xFFFFFFFFFFFFFFFF DUP2 GT ISZERO PUSH2 0x266 JUMPI PUSH32 0x4E487B7100000000000000000000000000000000000000000000000000000000 PUSH1 0x0 MSTORE PUSH1 0x41 PUSH1 0x4 MSTORE PUSH1 0x24 PUSH1 0x0 REVERT JUMPDEST PUSH1 0x40 MLOAD SWAP1 DUP1 DUP3 MSTORE DUP1 PUSH1 0x20 MUL PUSH1 0x20 ADD DUP3 ADD PUSH1 0x40 MSTORE DUP1 ISZERO PUSH2 0x294 JUMPI DUP2 PUSH1 0x20 ADD PUSH1 0x20 DUP3 MUL DUP1 CALLDATASIZE DUP4 CALLDATACOPY DUP1 DUP3 ADD SWAP2 POP POP SWAP1 POP JUMPDEST POP PUSH1 0x1 SWAP1 DUP1 MLOAD SWAP1 PUSH1 0x20 ADD SWAP1 PUSH2 0x2AA SWAP3 SWAP2 SWAP1 PUSH2 0x692 JUMP JUMPDEST POP CALLER PUSH20 0xFFFFFFFFFFFFFFFFFFFFFFFFFFFFFFFFFFFFFFFF AND PUSH2 0x8FC SELFBALANCE SWAP1 DUP2 ISZERO MUL SWAP1 PUSH1 0x40 MLOAD PUSH1 0x0 PUSH1 0x40 MLOAD DUP1 DUP4 SUB DUP2 DUP6 DUP9 DUP9 CALL SWAP4 POP POP POP POP ISZERO DUP1 ISZERO PUSH2 0x2F1 JUMPI RETURNDATASIZE PUSH1 0x0 DUP1 RETURNDATACOPY RETURNDATASIZE PUSH1 0x0 REVERT JUMPDEST POP PUSH1 0x0 CALLER PUSH20 0xFFFFFFFFFFFFFFFFFFFFFFFFFFFFFFFFFFFFFFFF AND PUSH2 0x8FC SELFBALANCE SWAP1 DUP2 ISZERO MUL SWAP1 PUSH1 0x40 MLOAD PUSH1 0x0 PUSH1 0x40 MLOAD DUP1 DUP4 SUB DUP2 DUP6 DUP9 DUP9 CALL SWAP4 POP POP POP POP SWAP1 POP DUP1 PUSH2 0x36B JUMPI PUSH1 0x40 MLOAD PUSH32 0x8C379A000000000000000000000000000000000000000000000000000000000 DUP2 MSTORE PUSH1 0x4 ADD PUSH2 0x362 SWAP1 PUSH2 0x973 JUMP JUMPDEST PUSH1 0x40 MLOAD DUP1 SWAP2 SUB SWAP1 REVERT JUMPDEST PUSH1 0x0 CALLER PUSH20 0xFFFFFFFFFFFFFFFFFFFFFFFFFFFFFFFFFFFFFFFF AND SELFBALANCE PUSH1 0x40 MLOAD PUSH2 0x391 SWAP1 PUSH2 0x923 JUMP JUMPDEST PUSH1 0x0 PUSH1 0x40 MLOAD DUP1 DUP4 SUB DUP2 DUP6 DUP8 GAS CALL SWAP3 POP POP POP RETURNDATASIZE DUP1 PUSH1 0x0 DUP2 EQ PUSH2 0x3CE JUMPI PUSH1 0x40 MLOAD SWAP2 POP PUSH1 0x1F NOT PUSH1 0x3F RETURNDATASIZE ADD AND DUP3 ADD PUSH1 0x40 MSTORE RETURNDATASIZE DUP3 MSTORE RETURNDATASIZE PUSH1 0x0 PUSH1 0x20 DUP5 ADD RETURNDATACOPY PUSH2 0x3D3 JUMP JUMPDEST PUSH1 0x60 SWAP2 POP JUMPDEST POP POP SWAP1 POP DUP1 PUSH2 0x417 JUMPI PUSH1 0x40 MLOAD PUSH32 0x8C379A000000000000000000000000000000000000000000000000000000000 DUP2 MSTORE PUSH1 0x4 ADD PUSH2 0x40E SWAP1 PUSH2 0x973 JUMP JUMPDEST PUSH1 0x40 MLOAD DUP1 SWAP2 SUB SWAP1 REVERT JUMPDEST POP POP JUMP JUMPDEST PUSH1 0x2 PUSH1 0x20 MSTORE DUP1 PUSH1 0x0 MSTORE PUSH1 0x40 PUSH1 0x0 KECCAK256 PUSH1 0x0 SWAP2 POP SWAP1 POP SLOAD DUP2 JUMP JUMPDEST PUSH1 0x3 PUSH1 0x0 SWAP1 SLOAD SWAP1 PUSH2 0x100 EXP SWAP1 DIV PUSH20 0xFFFFFFFFFFFFFFFFFFFFFFFFFFFFFFFFFFFFFFFF AND DUP2 JUMP JUMPDEST PUSH1 0x0 SLOAD PUSH2 0x465 CALLVALUE PUSH2 0x5A0 JUMP JUMPDEST LT ISZERO PUSH2 0x4A6 JUMPI PUSH1 0x40 MLOAD PUSH32 0x8C379A000000000000000000000000000000000000000000000000000000000 DUP2 MSTORE PUSH1 0x4 ADD PUSH2 0x49D SWAP1 PUSH2 0x953 JUMP JUMPDEST PUSH1 0x40 MLOAD DUP1 SWAP2 SUB SWAP1 REVERT JUMPDEST PUSH1 0x1 CALLER SWAP1 DUP1 PUSH1 0x1 DUP2 SLOAD ADD DUP1 DUP3 SSTORE DUP1 SWAP2 POP POP PUSH1 0x1 SWAP1 SUB SWAP1 PUSH1 0x0 MSTORE PUSH1 0x20 PUSH1 0x0 KECCAK256 ADD PUSH1 0x0 SWAP1 SWAP2 SWAP1 SWAP2 SWAP1 SWAP2 PUSH2 0x100 EXP DUP2 SLOAD DUP2 PUSH20 0xFFFFFFFFFFFFFFFFFFFFFFFFFFFFFFFFFFFFFFFF MUL NOT AND SWAP1 DUP4 PUSH20 0xFFFFFFFFFFFFFFFFFFFFFFFFFFFFFFFFFFFFFFFF AND MUL OR SWAP1 SSTORE POP CALLVALUE PUSH1 0x2 PUSH1 0x0 CALLER PUSH20 0xFFFFFFFFFFFFFFFFFFFFFFFFFFFFFFFFFFFFFFFF AND PUSH20 0xFFFFFFFFFFFFFFFFFFFFFFFFFFFFFFFFFFFFFFFF AND DUP2 MSTORE PUSH1 0x20 ADD SWAP1 DUP2 MSTORE PUSH1 0x20 ADD PUSH1 0x0 KECCAK256 PUSH1 0x0 DUP3 DUP3 SLOAD PUSH2 0x558 SWAP2 SWAP1 PUSH2 0x9CA JUMP JUMPDEST SWAP3 POP POP DUP2 SWAP1 SSTORE POP JUMP JUMPDEST PUSH1 0x1 DUP2 DUP2 SLOAD DUP2 LT PUSH2 0x571 JUMPI PUSH1 0x0 DUP1 REVERT JUMPDEST SWAP1 PUSH1 0x0 MSTORE PUSH1 0x20 PUSH1 0x0 KECCAK256 ADD PUSH1 0x0 SWAP2 POP SLOAD SWAP1 PUSH2 0x100 EXP SWAP1 DIV PUSH20 0xFFFFFFFFFFFFFFFFFFFFFFFFFFFFFFFFFFFFFFFF AND DUP2 JUMP JUMPDEST PUSH1 0x0 DUP1 PUSH2 0x5AB PUSH2 0x5DA JUMP JUMPDEST SWAP1 POP PUSH1 0x0 PUSH8 0xDE0B6B3A7640000 DUP5 DUP4 PUSH2 0x5C4 SWAP2 SWAP1 PUSH2 0xB68 JUMP JUMPDEST PUSH2 0x5CE SWAP2 SWAP1 PUSH2 0xA20 JUMP JUMPDEST SWAP1 POP DUP1 SWAP3 POP POP POP SWAP2 SWAP1 POP JUMP JUMPDEST PUSH1 0x0 DUP1 PUSH20 0xD4A33860578DE61DBABDC8BFDB98FD742FA7028E SWAP1 POP PUSH1 0x0 DUP2 PUSH20 0xFFFFFFFFFFFFFFFFFFFFFFFFFFFFFFFFFFFFFFFF AND PUSH4 0xFEAF968C PUSH1 0x40 MLOAD DUP2 PUSH4 0xFFFFFFFF AND PUSH1 0xE0 SHL DUP2 MSTORE PUSH1 0x4 ADD PUSH1 0xA0 PUSH1 0x40 MLOAD DUP1 DUP4 SUB DUP2 DUP7 DUP1 EXTCODESIZE ISZERO DUP1 ISZERO PUSH2 0x63C JUMPI PUSH1 0x0 DUP1 REVERT JUMPDEST POP GAS STATICCALL ISZERO DUP1 ISZERO PUSH2 0x650 JUMPI RETURNDATASIZE PUSH1 0x0 DUP1 RETURNDATACOPY RETURNDATASIZE PUSH1 0x0 REVERT JUMPDEST POP POP POP POP PUSH1 0x40 MLOAD RETURNDATASIZE PUSH1 0x1F NOT PUSH1 0x1F DUP3 ADD AND DUP3 ADD DUP1 PUSH1 0x40 MSTORE POP DUP2 ADD SWAP1 PUSH2 0x674 SWAP2 SWAP1 PUSH2 0x7F4 JUMP JUMPDEST POP POP POP SWAP2 POP POP PUSH5 0x2540BE400 DUP2 PUSH2 0x68B SWAP2 SWAP1 PUSH2 0xA51 JUMP JUMPDEST SWAP3 POP POP POP SWAP1 JUMP JUMPDEST DUP3 DUP1 SLOAD DUP3 DUP3 SSTORE SWAP1 PUSH1 0x0 MSTORE PUSH1 0x20 PUSH1 0x0 KECCAK256 SWAP1 DUP2 ADD SWAP3 DUP3 ISZERO PUSH2 0x70B JUMPI SWAP2 PUSH1 0x20 MUL DUP3 ADD JUMPDEST DUP3 DUP2 GT ISZERO PUSH2 0x70A JUMPI DUP3 MLOAD DUP3 PUSH1 0x0 PUSH2 0x100 EXP DUP2 SLOAD DUP2 PUSH20 0xFFFFFFFFFFFFFFFFFFFFFFFFFFFFFFFFFFFFFFFF MUL NOT AND SWAP1 DUP4 PUSH20 0xFFFFFFFFFFFFFFFFFFFFFFFFFFFFFFFFFFFFFFFF AND MUL OR SWAP1 SSTORE POP SWAP2 PUSH1 0x20 ADD SWAP2 SWAP1 PUSH1 0x1 ADD SWAP1 PUSH2 0x6B2 JUMP JUMPDEST JUMPDEST POP SWAP1 POP PUSH2 0x718 SWAP2 SWAP1 PUSH2 0x71C JUMP JUMPDEST POP SWAP1 JUMP JUMPDEST JUMPDEST DUP1 DUP3 GT ISZERO PUSH2 0x735 JUMPI PUSH1 0x0 DUP2 PUSH1 0x0 SWAP1 SSTORE POP PUSH1 0x1 ADD PUSH2 0x71D JUMP JUMPDEST POP SWAP1 JUMP JUMPDEST PUSH1 0x0 DUP2 CALLDATALOAD SWAP1 POP PUSH2 0x748 DUP2 PUSH2 0xC7C JUMP JUMPDEST SWAP3 SWAP2 POP POP JUMP JUMPDEST PUSH1 0x0 DUP2 MLOAD SWAP1 POP PUSH2 0x75D DUP2 PUSH2 0xC93 JUMP JUMPDEST SWAP3 SWAP2 POP POP JUMP JUMPDEST PUSH1 0x0 DUP2 CALLDATALOAD SWAP1 POP PUSH2 0x772 DUP2 PUSH2 0xCAA JUMP JUMPDEST SWAP3 SWAP2 POP POP JUMP JUMPDEST PUSH1 0x0 DUP2 MLOAD SWAP1 POP PUSH2 0x787 DUP2 PUSH2 0xCAA JUMP JUMPDEST SWAP3 SWAP2 POP POP JUMP JUMPDEST PUSH1 0x0 DUP2 MLOAD SWAP1 POP PUSH2 0x79C DUP2 PUSH2 0xCC1 JUMP JUMPDEST SWAP3 SWAP2 POP POP JUMP JUMPDEST PUSH1 0x0 PUSH1 0x20 DUP3 DUP5 SUB SLT ISZERO PUSH2 0x7B4 JUMPI PUSH1 0x0 DUP1 REVERT JUMPDEST PUSH1 0x0 PUSH2 0x7C2 DUP5 DUP3 DUP6 ADD PUSH2 0x739 JUMP JUMPDEST SWAP2 POP POP SWAP3 SWAP2 POP POP JUMP JUMPDEST PUSH1 0x0 PUSH1 0x20 DUP3 DUP5 SUB SLT ISZERO PUSH2 0x7DD JUMPI PUSH1 0x0 DUP1 REVERT JUMPDEST PUSH1 0x0 PUSH2 0x7EB DUP5 DUP3 DUP6 ADD PUSH2 0x763 JUMP JUMPDEST SWAP2 POP POP SWAP3 SWAP2 POP POP JUMP JUMPDEST PUSH1 0x0 DUP1 PUSH1 0x0 DUP1 PUSH1 0x0 PUSH1 0xA0 DUP7 DUP9 SUB SLT ISZERO PUSH2 0x80C JUMPI PUSH1 0x0 DUP1 REVERT JUMPDEST PUSH1 0x0 PUSH2 0x81A DUP9 DUP3 DUP10 ADD PUSH2 0x78D JUMP JUMPDEST SWAP6 POP POP PUSH1 0x20 PUSH2 0x82B DUP9 DUP3 DUP10 ADD PUSH2 0x74E JUMP JUMPDEST SWAP5 POP POP PUSH1 0x40 PUSH2 0x83C DUP9 DUP3 DUP10 ADD PUSH2 0x778 JUMP JUMPDEST SWAP4 POP POP PUSH1 0x60 PUSH2 0x84D DUP9 DUP3 DUP10 ADD PUSH2 0x778 JUMP JUMPDEST SWAP3 POP POP PUSH1 0x80 PUSH2 0x85E DUP9 DUP3 DUP10 ADD PUSH2 0x78D JUMP JUMPDEST SWAP2 POP POP SWAP3 SWAP6 POP SWAP3 SWAP6 SWAP1 SWAP4 POP JUMP JUMPDEST PUSH2 0x874 DUP2 PUSH2 0xBC2 JUMP JUMPDEST DUP3 MSTORE POP POP JUMP JUMPDEST PUSH1 0x0 PUSH2 0x887 PUSH1 0x13 DUP4 PUSH2 0x9B9 JUMP JUMPDEST SWAP2 POP PUSH32 0x4469646E27742053656E6420656E6F7567682100000000000000000000000000 PUSH1 0x0 DUP4 ADD MSTORE PUSH1 0x20 DUP3 ADD SWAP1 POP SWAP2 SWAP1 POP JUMP JUMPDEST PUSH1 0x0 PUSH2 0x8C7 PUSH1 0xD DUP4 PUSH2 0x9B9 JUMP JUMPDEST SWAP2 POP PUSH32 0x53656E64204661696C6564212100000000000000000000000000000000000000 PUSH1 0x0 DUP4 ADD MSTORE PUSH1 0x20 DUP3 ADD SWAP1 POP SWAP2 SWAP1 POP JUMP JUMPDEST PUSH1 0x0 PUSH2 0x907 PUSH1 0x0 DUP4 PUSH2 0x9AE JUMP JUMPDEST SWAP2 POP PUSH1 0x0 DUP3 ADD SWAP1 POP SWAP2 SWAP1 POP JUMP JUMPDEST PUSH2 0x91D DUP2 PUSH2 0xBFE JUMP JUMPDEST DUP3 MSTORE POP POP JUMP JUMPDEST PUSH1 0x0 PUSH2 0x92E DUP3 PUSH2 0x8FA JUMP JUMPDEST SWAP2 POP DUP2 SWAP1 POP SWAP2 SWAP1 POP JUMP JUMPDEST PUSH1 0x0 PUSH1 0x20 DUP3 ADD SWAP1 POP PUSH2 0x94D PUSH1 0x0 DUP4 ADD DUP5 PUSH2 0x86B JUMP JUMPDEST SWAP3 SWAP2 POP POP JUMP JUMPDEST PUSH1 0x0 PUSH1 0x20 DUP3 ADD SWAP1 POP DUP2 DUP2 SUB PUSH1 0x0 DUP4 ADD MSTORE PUSH2 0x96C DUP2 PUSH2 0x87A JUMP JUMPDEST SWAP1 POP SWAP2 SWAP1 POP JUMP JUMPDEST PUSH1 0x0 PUSH1 0x20 DUP3 ADD SWAP1 POP DUP2 DUP2 SUB PUSH1 0x0 DUP4 ADD MSTORE PUSH2 0x98C DUP2 PUSH2 0x8BA JUMP JUMPDEST SWAP1 POP SWAP2 SWAP1 POP JUMP JUMPDEST PUSH1 0x0 PUSH1 0x20 DUP3 ADD SWAP1 POP PUSH2 0x9A8 PUSH1 0x0 DUP4 ADD DUP5 PUSH2 0x914 JUMP JUMPDEST SWAP3 SWAP2 POP POP JUMP JUMPDEST PUSH1 0x0 DUP2 SWAP1 POP SWAP3 SWAP2 POP POP JUMP JUMPDEST PUSH1 0x0 DUP3 DUP3 MSTORE PUSH1 0x20 DUP3 ADD SWAP1 POP SWAP3 SWAP2 POP POP JUMP JUMPDEST PUSH1 0x0 PUSH2 0x9D5 DUP3 PUSH2 0xBFE JUMP JUMPDEST SWAP2 POP PUSH2 0x9E0 DUP4 PUSH2 0xBFE JUMP JUMPDEST SWAP3 POP DUP3 PUSH32 0xFFFFFFFFFFFFFFFFFFFFFFFFFFFFFFFFFFFFFFFFFFFFFFFFFFFFFFFFFFFFFFFF SUB DUP3 GT ISZERO PUSH2 0xA15 JUMPI PUSH2 0xA14 PUSH2 0xC1E JUMP JUMPDEST JUMPDEST DUP3 DUP3 ADD SWAP1 POP SWAP3 SWAP2 POP POP JUMP JUMPDEST PUSH1 0x0 PUSH2 0xA2B DUP3 PUSH2 0xBFE JUMP JUMPDEST SWAP2 POP PUSH2 0xA36 DUP4 PUSH2 0xBFE JUMP JUMPDEST SWAP3 POP DUP3 PUSH2 0xA46 JUMPI PUSH2 0xA45 PUSH2 0xC4D JUMP JUMPDEST JUMPDEST DUP3 DUP3 DIV SWAP1 POP SWAP3 SWAP2 POP POP JUMP JUMPDEST PUSH1 0x0 PUSH2 0xA5C DUP3 PUSH2 0xBD4 JUMP JUMPDEST SWAP2 POP PUSH2 0xA67 DUP4 PUSH2 0xBD4 JUMP JUMPDEST SWAP3 POP DUP3 PUSH32 0x7FFFFFFFFFFFFFFFFFFFFFFFFFFFFFFFFFFFFFFFFFFFFFFFFFFFFFFFFFFFFFFF DIV DUP3 GT PUSH1 0x0 DUP5 SGT PUSH1 0x0 DUP5 SGT AND AND ISZERO PUSH2 0xAA6 JUMPI PUSH2 0xAA5 PUSH2 0xC1E JUMP JUMPDEST JUMPDEST DUP2 PUSH32 0x8000000000000000000000000000000000000000000000000000000000000000 SDIV DUP4 SLT PUSH1 0x0 DUP5 SLT PUSH1 0x0 DUP5 SGT AND AND ISZERO PUSH2 0xAE3 JUMPI PUSH2 0xAE2 PUSH2 0xC1E JUMP JUMPDEST JUMPDEST DUP3 PUSH32 0x8000000000000000000000000000000000000000000000000000000000000000 SDIV DUP3 SLT PUSH1 0x0 DUP5 SGT PUSH1 0x0 DUP5 SLT AND AND ISZERO PUSH2 0xB20 JUMPI PUSH2 0xB1F PUSH2 0xC1E JUMP JUMPDEST JUMPDEST DUP3 PUSH32 0x7FFFFFFFFFFFFFFFFFFFFFFFFFFFFFFFFFFFFFFFFFFFFFFFFFFFFFFFFFFFFFFF SDIV DUP3 SLT PUSH1 0x0 DUP5 SLT PUSH1 0x0 DUP5 SLT AND AND ISZERO PUSH2 0xB5D JUMPI PUSH2 0xB5C PUSH2 0xC1E JUMP JUMPDEST JUMPDEST DUP3 DUP3 MUL SWAP1 POP SWAP3 SWAP2 POP POP JUMP JUMPDEST PUSH1 0x0 PUSH2 0xB73 DUP3 PUSH2 0xBFE JUMP JUMPDEST SWAP2 POP PUSH2 0xB7E DUP4 PUSH2 0xBFE JUMP JUMPDEST SWAP3 POP DUP2 PUSH32 0xFFFFFFFFFFFFFFFFFFFFFFFFFFFFFFFFFFFFFFFFFFFFFFFFFFFFFFFFFFFFFFFF DIV DUP4 GT DUP3 ISZERO ISZERO AND ISZERO PUSH2 0xBB7 JUMPI PUSH2 0xBB6 PUSH2 0xC1E JUMP JUMPDEST JUMPDEST DUP3 DUP3 MUL SWAP1 POP SWAP3 SWAP2 POP POP JUMP JUMPDEST PUSH1 0x0 PUSH2 0xBCD DUP3 PUSH2 0xBDE JUMP JUMPDEST SWAP1 POP SWAP2 SWAP1 POP JUMP JUMPDEST PUSH1 0x0 DUP2 SWAP1 POP SWAP2 SWAP1 POP JUMP JUMPDEST PUSH1 0x0 PUSH20 0xFFFFFFFFFFFFFFFFFFFFFFFFFFFFFFFFFFFFFFFF DUP3 AND SWAP1 POP SWAP2 SWAP1 POP JUMP JUMPDEST PUSH1 0x0 DUP2 SWAP1 POP SWAP2 SWAP1 POP JUMP JUMPDEST PUSH1 0x0 PUSH10 0xFFFFFFFFFFFFFFFFFFFF DUP3 AND SWAP1 POP SWAP2 SWAP1 POP JUMP JUMPDEST PUSH32 0x4E487B7100000000000000000000000000000000000000000000000000000000 PUSH1 0x0 MSTORE PUSH1 0x11 PUSH1 0x4 MSTORE PUSH1 0x24 PUSH1 0x0 REVERT JUMPDEST PUSH32 0x4E487B7100000000000000000000000000000000000000000000000000000000 PUSH1 0x0 MSTORE PUSH1 0x12 PUSH1 0x4 MSTORE PUSH1 0x24 PUSH1 0x0 REVERT JUMPDEST PUSH2 0xC85 DUP2 PUSH2 0xBC2 JUMP JUMPDEST DUP2 EQ PUSH2 0xC90 JUMPI PUSH1 0x0 DUP1 REVERT JUMPDEST POP JUMP JUMPDEST PUSH2 0xC9C DUP2 PUSH2 0xBD4 JUMP JUMPDEST DUP2 EQ PUSH2 0xCA7 JUMPI PUSH1 0x0 DUP1 REVERT JUMPDEST POP JUMP JUMPDEST PUSH2 0xCB3 DUP2 PUSH2 0xBFE JUMP JUMPDEST DUP2 EQ PUSH2 0xCBE JUMPI PUSH1 0x0 DUP1 REVERT JUMPDEST POP JUMP JUMPDEST PUSH2 0xCCA DUP2 PUSH2 0xC08 JUMP JUMPDEST DUP2 EQ PUSH2 0xCD5 JUMPI PUSH1 0x0 DUP1 REVERT JUMPDEST POP JUMP INVALID LOG2 PUSH5 0x6970667358 0x22 SLT KECCAK256 0xB4 0x29 ADDRESS MOD 0xC0 CREATE2 0x4E 0x4E 0xFC SGT 0xD8 0x26 PUSH2 0x84D9 0xDB PUSH3 0x798B9A DELEGATECALL CREATE2 PUSH13 0xD7E7BB0E25B5FC070664736F6C PUSH4 0x43000800 STOP CALLER "
				},
				"gasEstimates": {
					"creation": {
						"codeDepositCost": "668400",
						"executionCost": "41574",
						"totalCost": "709974"
					},
					"external": {
						"addressToAmountFunded(address)": "1536",
						"fund()": "infinite",
						"funders(uint256)": "2444",
						"minimumUsd()": "1107",
						"owner()": "1258",
						"withdraw()": "infinite"
					}
				},
				"methodIdentifiers": {
					"addressToAmountFunded(address)": "3e47d6f3",
					"fund()": "b60d4288",
					"funders(uint256)": "dc0d3dff",
					"minimumUsd()": "098de820",
					"owner()": "8da5cb5b",
					"withdraw()": "3ccfd60b"
				}
			},
			"storageLayout": {
				"storage": [
					{
						"astId": 56,
						"contract": "contracts/FundMe.sol:FundMe",
						"label": "minimumUsd",
						"offset": 0,
						"slot": "0",
						"type": "t_uint256"
					},
					{
						"astId": 59,
						"contract": "contracts/FundMe.sol:FundMe",
						"label": "funders",
						"offset": 0,
						"slot": "1",
						"type": "t_array(t_address)dyn_storage"
					},
					{
						"astId": 63,
						"contract": "contracts/FundMe.sol:FundMe",
						"label": "addressToAmountFunded",
						"offset": 0,
						"slot": "2",
						"type": "t_mapping(t_address,t_uint256)"
					},
					{
						"astId": 65,
						"contract": "contracts/FundMe.sol:FundMe",
						"label": "owner",
						"offset": 0,
						"slot": "3",
						"type": "t_address"
					}
				],
				"types": {
					"t_address": {
						"encoding": "inplace",
						"label": "address",
						"numberOfBytes": "20"
					},
					"t_array(t_address)dyn_storage": {
						"base": "t_address",
						"encoding": "dynamic_array",
						"label": "address[]",
						"numberOfBytes": "32"
					},
					"t_mapping(t_address,t_uint256)": {
						"encoding": "mapping",
						"key": "t_address",
						"label": "mapping(address => uint256)",
						"numberOfBytes": "32",
						"value": "t_uint256"
					},
					"t_uint256": {
						"encoding": "inplace",
						"label": "uint256",
						"numberOfBytes": "32"
					}
				}
			},
			"userdoc": {
				"kind": "user",
				"methods": {},
				"version": 1
			}
		}
	}
}