{
	"contracts/SafeMathTester.sol": {
		"SafeMathTester": {
			"abi": [
				{
					"inputs": [],
					"name": "add",
					"outputs": [],
					"stateMutability": "nonpayable",
					"type": "function"
				},
				{
					"inputs": [],
					"name": "bigNumber",
					"outputs": [
						{
							"internalType": "uint8",
							"name": "",
							"type": "uint8"
						}
					],
					"stateMutability": "view",
					"type": "function"
				}
			],
			"devdoc": {
				"methods": {}
			},
			"evm": {
				"assembly": "    /* \"contracts/SafeMathTester.sol\":67:204  contract SafeMathTester {\r... */\n  mstore(0x40, 0x80)\n    /* \"contracts/SafeMathTester.sol\":123:126  255 */\n  0xff\n    /* \"contracts/SafeMathTester.sol\":98:126  uint8 public bigNumber = 255 */\n  0x00\n  dup1\n  0x0100\n  exp\n  dup2\n  sload\n  dup2\n  0xff\n  mul\n  not\n  and\n  swap1\n  dup4\n  0xff\n  and\n  mul\n  or\n  swap1\n  sstore\n  pop\n    /* \"contracts/SafeMathTester.sol\":67:204  contract SafeMathTester {\r... */\n  callvalue\n    /* \"--CODEGEN--\":5:14   */\n  dup1\n    /* \"--CODEGEN--\":2:4   */\n  iszero\n  tag_1\n  jumpi\n    /* \"--CODEGEN--\":27:28   */\n  0x00\n    /* \"--CODEGEN--\":24:25   */\n  dup1\n    /* \"--CODEGEN--\":17:29   */\n  revert\n    /* \"--CODEGEN--\":2:4   */\ntag_1:\n    /* \"contracts/SafeMathTester.sol\":67:204  contract SafeMathTester {\r... */\n  pop\n  dataSize(sub_0)\n  dup1\n  dataOffset(sub_0)\n  0x00\n  codecopy\n  0x00\n  return\nstop\n\nsub_0: assembly {\n        /* \"contracts/SafeMathTester.sol\":67:204  contract SafeMathTester {\r... */\n      mstore(0x40, 0x80)\n      callvalue\n        /* \"--CODEGEN--\":5:14   */\n      dup1\n        /* \"--CODEGEN--\":2:4   */\n      iszero\n      tag_1\n      jumpi\n        /* \"--CODEGEN--\":27:28   */\n      0x00\n        /* \"--CODEGEN--\":24:25   */\n      dup1\n        /* \"--CODEGEN--\":17:29   */\n      revert\n        /* \"--CODEGEN--\":2:4   */\n    tag_1:\n        /* \"contracts/SafeMathTester.sol\":67:204  contract SafeMathTester {\r... */\n      pop\n      jumpi(tag_2, lt(calldatasize, 0x04))\n      shr(0xe0, calldataload(0x00))\n      dup1\n      0x45964e9e\n      eq\n      tag_3\n      jumpi\n      dup1\n      0x4f2be91f\n      eq\n      tag_4\n      jumpi\n    tag_2:\n        /* \"--CODEGEN--\":12:13   */\n      0x00\n        /* \"--CODEGEN--\":9:10   */\n      dup1\n        /* \"--CODEGEN--\":2:14   */\n      revert\n        /* \"contracts/SafeMathTester.sol\":98:126  uint8 public bigNumber = 255 */\n    tag_3:\n      tag_5\n      tag_6\n      jump\t// in\n    tag_5:\n      mload(0x40)\n      dup1\n      dup3\n      0xff\n      and\n      0xff\n      and\n      dup2\n      mstore\n      0x20\n      add\n      swap2\n      pop\n      pop\n      mload(0x40)\n      dup1\n      swap2\n      sub\n      swap1\n      return\n        /* \"contracts/SafeMathTester.sol\":135:201  function add() public {\r... */\n    tag_4:\n      tag_7\n      tag_8\n      jump\t// in\n    tag_7:\n      stop\n        /* \"contracts/SafeMathTester.sol\":98:126  uint8 public bigNumber = 255 */\n    tag_6:\n      0x00\n      dup1\n      swap1\n      sload\n      swap1\n      0x0100\n      exp\n      swap1\n      div\n      0xff\n      and\n      dup2\n      jump\t// out\n        /* \"contracts/SafeMathTester.sol\":135:201  function add() public {\r... */\n    tag_8:\n        /* \"contracts/SafeMathTester.sol\":192:193  1 */\n      0x01\n        /* \"contracts/SafeMathTester.sol\":180:189  bigNumber */\n      0x00\n      dup1\n      swap1\n      sload\n      swap1\n      0x0100\n      exp\n      swap1\n      div\n      0xff\n      and\n        /* \"contracts/SafeMathTester.sol\":180:193  bigNumber + 1 */\n      add\n        /* \"contracts/SafeMathTester.sol\":168:177  bigNumber */\n      0x00\n      dup1\n        /* \"contracts/SafeMathTester.sol\":168:193  bigNumber = bigNumber + 1 */\n      0x0100\n      exp\n      dup2\n      sload\n      dup2\n      0xff\n      mul\n      not\n      and\n      swap1\n      dup4\n      0xff\n      and\n      mul\n      or\n      swap1\n      sstore\n      pop\n        /* \"contracts/SafeMathTester.sol\":135:201  function add() public {\r... */\n      jump\t// out\n\n    auxdata: 0xa264697066735822122063614ae282b94dc9a286b9faf1f874c3e8abcba0e92ff3cb1fc1590bffbd5cba64736f6c63430006070033\n}\n",
				"bytecode": {
					"linkReferences": {},
					"object": "608060405260ff6000806101000a81548160ff021916908360ff16021790555034801561002b57600080fd5b5060d68061003a6000396000f3fe6080604052348015600f57600080fd5b506004361060325760003560e01c806345964e9e1460375780634f2be91f146059575b600080fd5b603d6061565b604051808260ff1660ff16815260200191505060405180910390f35b605f6073565b005b6000809054906101000a900460ff1681565b60016000809054906101000a900460ff16016000806101000a81548160ff021916908360ff16021790555056fea264697066735822122063614ae282b94dc9a286b9faf1f874c3e8abcba0e92ff3cb1fc1590bffbd5cba64736f6c63430006070033",
					"opcodes": "PUSH1 0x80 PUSH1 0x40 MSTORE PUSH1 0xFF PUSH1 0x0 DUP1 PUSH2 0x100 EXP DUP2 SLOAD DUP2 PUSH1 0xFF MUL NOT AND SWAP1 DUP4 PUSH1 0xFF AND MUL OR SWAP1 SSTORE POP CALLVALUE DUP1 ISZERO PUSH2 0x2B JUMPI PUSH1 0x0 DUP1 REVERT JUMPDEST POP PUSH1 0xD6 DUP1 PUSH2 0x3A PUSH1 0x0 CODECOPY PUSH1 0x0 RETURN INVALID PUSH1 0x80 PUSH1 0x40 MSTORE CALLVALUE DUP1 ISZERO PUSH1 0xF JUMPI PUSH1 0x0 DUP1 REVERT JUMPDEST POP PUSH1 0x4 CALLDATASIZE LT PUSH1 0x32 JUMPI PUSH1 0x0 CALLDATALOAD PUSH1 0xE0 SHR DUP1 PUSH4 0x45964E9E EQ PUSH1 0x37 JUMPI DUP1 PUSH4 0x4F2BE91F EQ PUSH1 0x59 JUMPI JUMPDEST PUSH1 0x0 DUP1 REVERT JUMPDEST PUSH1 0x3D PUSH1 0x61 JUMP JUMPDEST PUSH1 0x40 MLOAD DUP1 DUP3 PUSH1 0xFF AND PUSH1 0xFF AND DUP2 MSTORE PUSH1 0x20 ADD SWAP2 POP POP PUSH1 0x40 MLOAD DUP1 SWAP2 SUB SWAP1 RETURN JUMPDEST PUSH1 0x5F PUSH1 0x73 JUMP JUMPDEST STOP JUMPDEST PUSH1 0x0 DUP1 SWAP1 SLOAD SWAP1 PUSH2 0x100 EXP SWAP1 DIV PUSH1 0xFF AND DUP2 JUMP JUMPDEST PUSH1 0x1 PUSH1 0x0 DUP1 SWAP1 SLOAD SWAP1 PUSH2 0x100 EXP SWAP1 DIV PUSH1 0xFF AND ADD PUSH1 0x0 DUP1 PUSH2 0x100 EXP DUP2 SLOAD DUP2 PUSH1 0xFF MUL NOT AND SWAP1 DUP4 PUSH1 0xFF AND MUL OR SWAP1 SSTORE POP JUMP INVALID LOG2 PUSH5 0x6970667358 0x22 SLT KECCAK256 PUSH4 0x614AE282 0xB9 0x4D 0xC9 LOG2 DUP7 0xB9 STATICCALL CALL 0xF8 PUSH21 0xC3E8ABCBA0E92FF3CB1FC1590BFFBD5CBA64736F6C PUSH4 0x43000607 STOP CALLER "
				},
				"gasEstimates": {
					"creation": {
						"codeDepositCost": "42800",
						"executionCost": "20960",
						"totalCost": "63760"
					},
					"external": {
						"add()": "21853",
						"bigNumber()": "1031"
					}
				},
				"methodIdentifiers": {
					"add()": "4f2be91f",
					"bigNumber()": "45964e9e"
				}
			},
			"storageLayout": {
				"storage": [
					{
						"astId": 4,
						"contract": "contracts/SafeMathTester.sol:SafeMathTester",
						"label": "bigNumber",
						"offset": 0,
						"slot": "0",
						"type": "t_uint8"
					}
				],
				"types": {
					"t_uint8": {
						"encoding": "inplace",
						"label": "uint8",
						"numberOfBytes": "1"
					}
				}
			},
			"userdoc": {
				"methods": {}
			}
		}
	}
}