{
	"contracts/FundMe.sol": {
		"FundMe": {
			"abi": [
				{
					"inputs": [
						{
							"internalType": "address",
							"name": "",
							"type": "address"
						}
					],
					"name": "addressToAmountFunded",
					"outputs": [
						{
							"internalType": "uint256",
							"name": "",
							"type": "uint256"
						}
					],
					"stateMutability": "view",
					"type": "function"
				},
				{
					"inputs": [],
					"name": "fund",
					"outputs": [],
					"stateMutability": "payable",
					"type": "function"
				},
				{
					"inputs": [
						{
							"internalType": "uint256",
							"name": "",
							"type": "uint256"
						}
					],
					"name": "funders",
					"outputs": [
						{
							"internalType": "address",
							"name": "",
							"type": "address"
						}
					],
					"stateMutability": "view",
					"type": "function"
				},
				{
					"inputs": [],
					"name": "minimumUsd",
					"outputs": [
						{
							"internalType": "uint256",
							"name": "",
							"type": "uint256"
						}
					],
					"stateMutability": "view",
					"type": "function"
				},
				{
					"inputs": [],
					"name": "withdraw",
					"outputs": [],
					"stateMutability": "nonpayable",
					"type": "function"
				}
			],
			"devdoc": {
				"kind": "dev",
				"methods": {},
				"version": 1
			},
			"evm": {
				"assembly": "    /* \"contracts/FundMe.sol\":210:2173  contract FundMe {\r... */\n  mstore(0x40, 0x80)\n    /* \"contracts/FundMe.sol\":306:315  50 * 1e18 */\n  0x02b5e3af16b1880000\n    /* \"contracts/FundMe.sol\":278:315  uint256 public minimumUsd = 50 * 1e18 */\n  0x00\n  sstore\n    /* \"contracts/FundMe.sol\":210:2173  contract FundMe {\r... */\n  callvalue\n  dup1\n  iszero\n  tag_1\n  jumpi\n  0x00\n  dup1\n  revert\ntag_1:\n  pop\n  dataSize(sub_0)\n  dup1\n  dataOffset(sub_0)\n  0x00\n  codecopy\n  0x00\n  return\nstop\n\nsub_0: assembly {\n        /* \"contracts/FundMe.sol\":210:2173  contract FundMe {\r... */\n      mstore(0x40, 0x80)\n      jumpi(tag_1, lt(calldatasize, 0x04))\n      shr(0xe0, calldataload(0x00))\n      dup1\n      0x098de820\n      eq\n      tag_2\n      jumpi\n      dup1\n      0x3ccfd60b\n      eq\n      tag_3\n      jumpi\n      dup1\n      0x3e47d6f3\n      eq\n      tag_4\n      jumpi\n      dup1\n      0xb60d4288\n      eq\n      tag_5\n      jumpi\n      dup1\n      0xdc0d3dff\n      eq\n      tag_6\n      jumpi\n    tag_1:\n      0x00\n      dup1\n      revert\n        /* \"contracts/FundMe.sol\":278:315  uint256 public minimumUsd = 50 * 1e18 */\n    tag_2:\n      callvalue\n      dup1\n      iszero\n      tag_7\n      jumpi\n      0x00\n      dup1\n      revert\n    tag_7:\n      pop\n      tag_8\n      tag_9\n      jump\t// in\n    tag_8:\n      mload(0x40)\n      tag_10\n      swap2\n      swap1\n      tag_11\n      jump\t// in\n    tag_10:\n      mload(0x40)\n      dup1\n      swap2\n      sub\n      swap1\n      return\n        /* \"contracts/FundMe.sol\":877:2170  function withdraw() public {\r... */\n    tag_3:\n      callvalue\n      dup1\n      iszero\n      tag_12\n      jumpi\n      0x00\n      dup1\n      revert\n    tag_12:\n      pop\n      tag_13\n      tag_14\n      jump\t// in\n    tag_13:\n      stop\n        /* \"contracts/FundMe.sol\":388:444  mapping(address => uint256) public addressToAmountFunded */\n    tag_4:\n      callvalue\n      dup1\n      iszero\n      tag_15\n      jumpi\n      0x00\n      dup1\n      revert\n    tag_15:\n      pop\n      tag_16\n      0x04\n      dup1\n      calldatasize\n      sub\n      dup2\n      add\n      swap1\n      tag_17\n      swap2\n      swap1\n      tag_18\n      jump\t// in\n    tag_17:\n      tag_19\n      jump\t// in\n    tag_16:\n      mload(0x40)\n      tag_20\n      swap2\n      swap1\n      tag_11\n      jump\t// in\n    tag_20:\n      mload(0x40)\n      dup1\n      swap2\n      sub\n      swap1\n      return\n        /* \"contracts/FundMe.sol\":453:869  function fund() public payable{\r... */\n    tag_5:\n      tag_21\n      tag_22\n      jump\t// in\n    tag_21:\n      stop\n        /* \"contracts/FundMe.sol\":336:360  address[] public funders */\n    tag_6:\n      callvalue\n      dup1\n      iszero\n      tag_23\n      jumpi\n      0x00\n      dup1\n      revert\n    tag_23:\n      pop\n      tag_24\n      0x04\n      dup1\n      calldatasize\n      sub\n      dup2\n      add\n      swap1\n      tag_25\n      swap2\n      swap1\n      tag_26\n      jump\t// in\n    tag_25:\n      tag_27\n      jump\t// in\n    tag_24:\n      mload(0x40)\n      tag_28\n      swap2\n      swap1\n      tag_29\n      jump\t// in\n    tag_28:\n      mload(0x40)\n      dup1\n      swap2\n      sub\n      swap1\n      return\n        /* \"contracts/FundMe.sol\":278:315  uint256 public minimumUsd = 50 * 1e18 */\n    tag_9:\n      sload(0x00)\n      dup2\n      jump\t// out\n        /* \"contracts/FundMe.sol\":877:2170  function withdraw() public {\r... */\n    tag_14:\n        /* \"contracts/FundMe.sol\":1047:1066  uint256 funderIndex */\n      0x00\n        /* \"contracts/FundMe.sol\":1043:1464  for(uint256 funderIndex = 0; funderIndex < funders.length; funderIndex = funderIndex ++) { \r... */\n    tag_31:\n        /* \"contracts/FundMe.sol\":1086:1093  funders */\n      0x01\n        /* \"contracts/FundMe.sol\":1086:1100  funders.length */\n      dup1\n      sload\n      swap1\n      pop\n        /* \"contracts/FundMe.sol\":1072:1083  funderIndex */\n      dup2\n        /* \"contracts/FundMe.sol\":1072:1100  funderIndex < funders.length */\n      lt\n        /* \"contracts/FundMe.sol\":1043:1464  for(uint256 funderIndex = 0; funderIndex < funders.length; funderIndex = funderIndex ++) { \r... */\n      iszero\n      tag_32\n      jumpi\n        /* \"contracts/FundMe.sol\":1365:1380  address funders */\n      0x00\n        /* \"contracts/FundMe.sol\":1383:1390  funders */\n      0x01\n        /* \"contracts/FundMe.sol\":1391:1402  funderIndex */\n      dup3\n        /* \"contracts/FundMe.sol\":1383:1403  funders[funderIndex] */\n      dup2\n      sload\n      dup2\n      lt\n      tag_34\n      jumpi\n      mstore(0x00, 0x4e487b7100000000000000000000000000000000000000000000000000000000)\n      mstore(0x04, 0x32)\n      revert(0x00, 0x24)\n    tag_34:\n      swap1\n      0x00\n      mstore\n      keccak256(0x00, 0x20)\n      add\n      0x00\n      swap1\n      sload\n      swap1\n      0x0100\n      exp\n      swap1\n      div\n      0xffffffffffffffffffffffffffffffffffffffff\n      and\n        /* \"contracts/FundMe.sol\":1365:1403  address funders = funders[funderIndex] */\n      swap1\n      pop\n        /* \"contracts/FundMe.sol\":1043:1464  for(uint256 funderIndex = 0; funderIndex < funders.length; funderIndex = funderIndex ++) { \r... */\n      pop\n        /* \"contracts/FundMe.sol\":1116:1130  funderIndex ++ */\n      dup1\n      dup1\n      tag_36\n      swap1\n      tag_37\n      jump\t// in\n    tag_36:\n      swap2\n      pop\n        /* \"contracts/FundMe.sol\":1102:1130  funderIndex = funderIndex ++ */\n      swap1\n      pop\n        /* \"contracts/FundMe.sol\":1043:1464  for(uint256 funderIndex = 0; funderIndex < funders.length; funderIndex = funderIndex ++) { \r... */\n      jump(tag_31)\n    tag_32:\n      pop\n        /* \"contracts/FundMe.sol\":877:2170  function withdraw() public {\r... */\n      jump\t// out\n        /* \"contracts/FundMe.sol\":388:444  mapping(address => uint256) public addressToAmountFunded */\n    tag_19:\n      mstore(0x20, 0x02)\n      dup1\n      0x00\n      mstore\n      keccak256(0x00, 0x40)\n      0x00\n      swap2\n      pop\n      swap1\n      pop\n      sload\n      dup2\n      jump\t// out\n        /* \"contracts/FundMe.sol\":453:869  function fund() public payable{\r... */\n    tag_22:\n        /* \"contracts/FundMe.sol\":702:712  minimumUsd */\n      sload(0x00)\n        /* \"contracts/FundMe.sol\":669:698  msg.value.getConversionRate() */\n      tag_39\n        /* \"contracts/FundMe.sol\":669:678  msg.value */\n      callvalue\n        /* \"contracts/FundMe.sol\":669:696  msg.value.getConversionRate */\n      tag_40\n        /* \"contracts/FundMe.sol\":669:698  msg.value.getConversionRate() */\n      jump\t// in\n    tag_39:\n        /* \"contracts/FundMe.sol\":669:712  msg.value.getConversionRate() >= minimumUsd */\n      lt\n      iszero\n        /* \"contracts/FundMe.sol\":661:736  require(msg.value.getConversionRate() >= minimumUsd, \"Didn't Send enough!\") */\n      tag_41\n      jumpi\n      mload(0x40)\n      0x08c379a000000000000000000000000000000000000000000000000000000000\n      dup2\n      mstore\n      0x04\n      add\n      tag_42\n      swap1\n      tag_43\n      jump\t// in\n    tag_42:\n      mload(0x40)\n      dup1\n      swap2\n      sub\n      swap1\n      revert\n    tag_41:\n        /* \"contracts/FundMe.sol\":768:775  funders */\n      0x01\n        /* \"contracts/FundMe.sol\":781:791  msg.sender */\n      caller\n        /* \"contracts/FundMe.sol\":768:792  funders.push(msg.sender) */\n      swap1\n      dup1\n      0x01\n      dup2\n      sload\n      add\n      dup1\n      dup3\n      sstore\n      dup1\n      swap2\n      pop\n      pop\n      0x01\n      swap1\n      sub\n      swap1\n      0x00\n      mstore\n      keccak256(0x00, 0x20)\n      add\n      0x00\n      swap1\n      swap2\n      swap1\n      swap2\n      swap1\n      swap2\n      0x0100\n      exp\n      dup2\n      sload\n      dup2\n      0xffffffffffffffffffffffffffffffffffffffff\n      mul\n      not\n      and\n      swap1\n      dup4\n      0xffffffffffffffffffffffffffffffffffffffff\n      and\n      mul\n      or\n      swap1\n      sstore\n      pop\n        /* \"contracts/FundMe.sol\":840:849  msg.value */\n      callvalue\n        /* \"contracts/FundMe.sol\":803:824  addressToAmountFunded */\n      0x02\n        /* \"contracts/FundMe.sol\":803:836  addressToAmountFunded[msg.sender] */\n      0x00\n        /* \"contracts/FundMe.sol\":825:835  msg.sender */\n      caller\n        /* \"contracts/FundMe.sol\":803:836  addressToAmountFunded[msg.sender] */\n      0xffffffffffffffffffffffffffffffffffffffff\n      and\n      0xffffffffffffffffffffffffffffffffffffffff\n      and\n      dup2\n      mstore\n      0x20\n      add\n      swap1\n      dup2\n      mstore\n      0x20\n      add\n      0x00\n      keccak256\n      0x00\n        /* \"contracts/FundMe.sol\":803:849  addressToAmountFunded[msg.sender] += msg.value */\n      dup3\n      dup3\n      sload\n      tag_45\n      swap2\n      swap1\n      tag_46\n      jump\t// in\n    tag_45:\n      swap3\n      pop\n      pop\n      dup2\n      swap1\n      sstore\n      pop\n        /* \"contracts/FundMe.sol\":453:869  function fund() public payable{\r... */\n      jump\t// out\n        /* \"contracts/FundMe.sol\":336:360  address[] public funders */\n    tag_27:\n      0x01\n      dup2\n      dup2\n      sload\n      dup2\n      lt\n      tag_47\n      jumpi\n      0x00\n      dup1\n      revert\n    tag_47:\n      swap1\n      0x00\n      mstore\n      keccak256(0x00, 0x20)\n      add\n      0x00\n      swap2\n      pop\n      sload\n      swap1\n      0x0100\n      exp\n      swap1\n      div\n      0xffffffffffffffffffffffffffffffffffffffff\n      and\n      dup2\n      jump\t// out\n        /* \"contracts/PriceConverter.sol\":893:1193  function getConversionRate(uint256 ethAmount) internal view returns (uint256) {\r... */\n    tag_40:\n        /* \"contracts/PriceConverter.sol\":962:969  uint256 */\n      0x00\n        /* \"contracts/PriceConverter.sol\":1061:1077  uint256 ethPrice */\n      dup1\n        /* \"contracts/PriceConverter.sol\":1080:1090  getPrice() */\n      tag_50\n        /* \"contracts/PriceConverter.sol\":1080:1088  getPrice */\n      tag_51\n        /* \"contracts/PriceConverter.sol\":1080:1090  getPrice() */\n      jump\t// in\n    tag_50:\n        /* \"contracts/PriceConverter.sol\":1061:1090  uint256 ethPrice = getPrice() */\n      swap1\n      pop\n        /* \"contracts/PriceConverter.sol\":1101:1123  uint256 ethAmountInUsd */\n      0x00\n        /* \"contracts/PriceConverter.sol\":1149:1153  1e18 */\n      0x0de0b6b3a7640000\n        /* \"contracts/PriceConverter.sol\":1138:1147  ethAmount */\n      dup5\n        /* \"contracts/PriceConverter.sol\":1127:1135  ethPrice */\n      dup4\n        /* \"contracts/PriceConverter.sol\":1127:1147  ethPrice * ethAmount */\n      tag_52\n      swap2\n      swap1\n      tag_53\n      jump\t// in\n    tag_52:\n        /* \"contracts/PriceConverter.sol\":1126:1153  (ethPrice * ethAmount)/1e18 */\n      tag_54\n      swap2\n      swap1\n      tag_55\n      jump\t// in\n    tag_54:\n        /* \"contracts/PriceConverter.sol\":1101:1153  uint256 ethAmountInUsd = (ethPrice * ethAmount)/1e18 */\n      swap1\n      pop\n        /* \"contracts/PriceConverter.sol\":1171:1185  ethAmountInUsd */\n      dup1\n        /* \"contracts/PriceConverter.sol\":1164:1185  return ethAmountInUsd */\n      swap3\n      pop\n      pop\n      pop\n        /* \"contracts/PriceConverter.sol\":893:1193  function getConversionRate(uint256 ethAmount) internal view returns (uint256) {\r... */\n      swap2\n      swap1\n      pop\n      jump\t// out\n        /* \"contracts/PriceConverter.sol\":182:668  function getPrice() internal view returns(uint256) {\r... */\n    tag_51:\n        /* \"contracts/PriceConverter.sol\":224:231  uint256 */\n      0x00\n        /* \"contracts/PriceConverter.sol\":322:353  AggregatorV3Interface priceFeed */\n      dup1\n        /* \"contracts/PriceConverter.sol\":378:420  0xD4a33860578De61DBAbDc8BFdb98FD742fA7028e */\n      0xd4a33860578de61dbabdc8bfdb98fd742fa7028e\n        /* \"contracts/PriceConverter.sol\":322:421  AggregatorV3Interface priceFeed = AggregatorV3Interface(0xD4a33860578De61DBAbDc8BFdb98FD742fA7028e) */\n      swap1\n      pop\n        /* \"contracts/PriceConverter.sol\":436:448  int256 price */\n      0x00\n        /* \"contracts/PriceConverter.sol\":458:467  priceFeed */\n      dup2\n        /* \"contracts/PriceConverter.sol\":458:483  priceFeed.latestRoundData */\n      0xffffffffffffffffffffffffffffffffffffffff\n      and\n      0xfeaf968c\n        /* \"contracts/PriceConverter.sol\":458:485  priceFeed.latestRoundData() */\n      mload(0x40)\n      dup2\n      0xffffffff\n      and\n      0xe0\n      shl\n      dup2\n      mstore\n      0x04\n      add\n      0xa0\n      mload(0x40)\n      dup1\n      dup4\n      sub\n      dup2\n      dup7\n      dup1\n      extcodesize\n      iszero\n      dup1\n      iszero\n      tag_57\n      jumpi\n      0x00\n      dup1\n      revert\n    tag_57:\n      pop\n      gas\n      staticcall\n      iszero\n      dup1\n      iszero\n      tag_59\n      jumpi\n      returndatasize\n      0x00\n      dup1\n      returndatacopy\n      revert(0x00, returndatasize)\n    tag_59:\n      pop\n      pop\n      pop\n      pop\n      mload(0x40)\n      returndatasize\n      not(0x1f)\n      0x1f\n      dup3\n      add\n      and\n      dup3\n      add\n      dup1\n      0x40\n      mstore\n      pop\n      dup2\n      add\n      swap1\n      tag_60\n      swap2\n      swap1\n      tag_61\n      jump\t// in\n    tag_60:\n        /* \"contracts/PriceConverter.sol\":433:485  (, int256 price, , , ) = priceFeed.latestRoundData() */\n      pop\n      pop\n      pop\n      swap2\n      pop\n      pop\n        /* \"contracts/PriceConverter.sol\":622:626  1e10 */\n      0x02540be400\n        /* \"contracts/PriceConverter.sol\":614:619  price */\n      dup2\n        /* \"contracts/PriceConverter.sol\":614:626  price * 1e10 */\n      tag_62\n      swap2\n      swap1\n      tag_63\n      jump\t// in\n    tag_62:\n        /* \"contracts/PriceConverter.sol\":598:627  return uint256 (price * 1e10) */\n      swap3\n      pop\n      pop\n      pop\n        /* \"contracts/PriceConverter.sol\":182:668  function getPrice() internal view returns(uint256) {\r... */\n      swap1\n      jump\t// out\n        /* \"#utility.yul\":7:146   */\n    tag_65:\n      0x00\n        /* \"#utility.yul\":91:97   */\n      dup2\n        /* \"#utility.yul\":78:98   */\n      calldataload\n        /* \"#utility.yul\":69:98   */\n      swap1\n      pop\n        /* \"#utility.yul\":107:140   */\n      tag_67\n        /* \"#utility.yul\":134:139   */\n      dup2\n        /* \"#utility.yul\":107:140   */\n      tag_68\n      jump\t// in\n    tag_67:\n        /* \"#utility.yul\":59:146   */\n      swap3\n      swap2\n      pop\n      pop\n      jump\t// out\n        /* \"#utility.yul\":152:293   */\n    tag_69:\n      0x00\n        /* \"#utility.yul\":239:245   */\n      dup2\n        /* \"#utility.yul\":233:246   */\n      mload\n        /* \"#utility.yul\":224:246   */\n      swap1\n      pop\n        /* \"#utility.yul\":255:287   */\n      tag_71\n        /* \"#utility.yul\":281:286   */\n      dup2\n        /* \"#utility.yul\":255:287   */\n      tag_72\n      jump\t// in\n    tag_71:\n        /* \"#utility.yul\":214:293   */\n      swap3\n      swap2\n      pop\n      pop\n      jump\t// out\n        /* \"#utility.yul\":299:438   */\n    tag_73:\n      0x00\n        /* \"#utility.yul\":383:389   */\n      dup2\n        /* \"#utility.yul\":370:390   */\n      calldataload\n        /* \"#utility.yul\":361:390   */\n      swap1\n      pop\n        /* \"#utility.yul\":399:432   */\n      tag_75\n        /* \"#utility.yul\":426:431   */\n      dup2\n        /* \"#utility.yul\":399:432   */\n      tag_76\n      jump\t// in\n    tag_75:\n        /* \"#utility.yul\":351:438   */\n      swap3\n      swap2\n      pop\n      pop\n      jump\t// out\n        /* \"#utility.yul\":444:587   */\n    tag_77:\n      0x00\n        /* \"#utility.yul\":532:538   */\n      dup2\n        /* \"#utility.yul\":526:539   */\n      mload\n        /* \"#utility.yul\":517:539   */\n      swap1\n      pop\n        /* \"#utility.yul\":548:581   */\n      tag_79\n        /* \"#utility.yul\":575:580   */\n      dup2\n        /* \"#utility.yul\":548:581   */\n      tag_76\n      jump\t// in\n    tag_79:\n        /* \"#utility.yul\":507:587   */\n      swap3\n      swap2\n      pop\n      pop\n      jump\t// out\n        /* \"#utility.yul\":593:734   */\n    tag_80:\n      0x00\n        /* \"#utility.yul\":680:686   */\n      dup2\n        /* \"#utility.yul\":674:687   */\n      mload\n        /* \"#utility.yul\":665:687   */\n      swap1\n      pop\n        /* \"#utility.yul\":696:728   */\n      tag_82\n        /* \"#utility.yul\":722:727   */\n      dup2\n        /* \"#utility.yul\":696:728   */\n      tag_83\n      jump\t// in\n    tag_82:\n        /* \"#utility.yul\":655:734   */\n      swap3\n      swap2\n      pop\n      pop\n      jump\t// out\n        /* \"#utility.yul\":740:1002   */\n    tag_18:\n      0x00\n        /* \"#utility.yul\":848:850   */\n      0x20\n        /* \"#utility.yul\":836:845   */\n      dup3\n        /* \"#utility.yul\":827:834   */\n      dup5\n        /* \"#utility.yul\":823:846   */\n      sub\n        /* \"#utility.yul\":819:851   */\n      slt\n        /* \"#utility.yul\":816:818   */\n      iszero\n      tag_85\n      jumpi\n        /* \"#utility.yul\":864:865   */\n      0x00\n        /* \"#utility.yul\":861:862   */\n      dup1\n        /* \"#utility.yul\":854:866   */\n      revert\n        /* \"#utility.yul\":816:818   */\n    tag_85:\n        /* \"#utility.yul\":907:908   */\n      0x00\n        /* \"#utility.yul\":932:985   */\n      tag_86\n        /* \"#utility.yul\":977:984   */\n      dup5\n        /* \"#utility.yul\":968:974   */\n      dup3\n        /* \"#utility.yul\":957:966   */\n      dup6\n        /* \"#utility.yul\":953:975   */\n      add\n        /* \"#utility.yul\":932:985   */\n      tag_65\n      jump\t// in\n    tag_86:\n        /* \"#utility.yul\":922:985   */\n      swap2\n      pop\n        /* \"#utility.yul\":878:995   */\n      pop\n        /* \"#utility.yul\":806:1002   */\n      swap3\n      swap2\n      pop\n      pop\n      jump\t// out\n        /* \"#utility.yul\":1008:1270   */\n    tag_26:\n      0x00\n        /* \"#utility.yul\":1116:1118   */\n      0x20\n        /* \"#utility.yul\":1104:1113   */\n      dup3\n        /* \"#utility.yul\":1095:1102   */\n      dup5\n        /* \"#utility.yul\":1091:1114   */\n      sub\n        /* \"#utility.yul\":1087:1119   */\n      slt\n        /* \"#utility.yul\":1084:1086   */\n      iszero\n      tag_88\n      jumpi\n        /* \"#utility.yul\":1132:1133   */\n      0x00\n        /* \"#utility.yul\":1129:1130   */\n      dup1\n        /* \"#utility.yul\":1122:1134   */\n      revert\n        /* \"#utility.yul\":1084:1086   */\n    tag_88:\n        /* \"#utility.yul\":1175:1176   */\n      0x00\n        /* \"#utility.yul\":1200:1253   */\n      tag_89\n        /* \"#utility.yul\":1245:1252   */\n      dup5\n        /* \"#utility.yul\":1236:1242   */\n      dup3\n        /* \"#utility.yul\":1225:1234   */\n      dup6\n        /* \"#utility.yul\":1221:1243   */\n      add\n        /* \"#utility.yul\":1200:1253   */\n      tag_73\n      jump\t// in\n    tag_89:\n        /* \"#utility.yul\":1190:1253   */\n      swap2\n      pop\n        /* \"#utility.yul\":1146:1263   */\n      pop\n        /* \"#utility.yul\":1074:1270   */\n      swap3\n      swap2\n      pop\n      pop\n      jump\t// out\n        /* \"#utility.yul\":1276:2180   */\n    tag_61:\n      0x00\n      dup1\n      0x00\n      dup1\n      0x00\n        /* \"#utility.yul\":1460:1463   */\n      0xa0\n        /* \"#utility.yul\":1448:1457   */\n      dup7\n        /* \"#utility.yul\":1439:1446   */\n      dup9\n        /* \"#utility.yul\":1435:1458   */\n      sub\n        /* \"#utility.yul\":1431:1464   */\n      slt\n        /* \"#utility.yul\":1428:1430   */\n      iszero\n      tag_91\n      jumpi\n        /* \"#utility.yul\":1477:1478   */\n      0x00\n        /* \"#utility.yul\":1474:1475   */\n      dup1\n        /* \"#utility.yul\":1467:1479   */\n      revert\n        /* \"#utility.yul\":1428:1430   */\n    tag_91:\n        /* \"#utility.yul\":1520:1521   */\n      0x00\n        /* \"#utility.yul\":1545:1608   */\n      tag_92\n        /* \"#utility.yul\":1600:1607   */\n      dup9\n        /* \"#utility.yul\":1591:1597   */\n      dup3\n        /* \"#utility.yul\":1580:1589   */\n      dup10\n        /* \"#utility.yul\":1576:1598   */\n      add\n        /* \"#utility.yul\":1545:1608   */\n      tag_80\n      jump\t// in\n    tag_92:\n        /* \"#utility.yul\":1535:1608   */\n      swap6\n      pop\n        /* \"#utility.yul\":1491:1618   */\n      pop\n        /* \"#utility.yul\":1657:1659   */\n      0x20\n        /* \"#utility.yul\":1683:1746   */\n      tag_93\n        /* \"#utility.yul\":1738:1745   */\n      dup9\n        /* \"#utility.yul\":1729:1735   */\n      dup3\n        /* \"#utility.yul\":1718:1727   */\n      dup10\n        /* \"#utility.yul\":1714:1736   */\n      add\n        /* \"#utility.yul\":1683:1746   */\n      tag_69\n      jump\t// in\n    tag_93:\n        /* \"#utility.yul\":1673:1746   */\n      swap5\n      pop\n        /* \"#utility.yul\":1628:1756   */\n      pop\n        /* \"#utility.yul\":1795:1797   */\n      0x40\n        /* \"#utility.yul\":1821:1885   */\n      tag_94\n        /* \"#utility.yul\":1877:1884   */\n      dup9\n        /* \"#utility.yul\":1868:1874   */\n      dup3\n        /* \"#utility.yul\":1857:1866   */\n      dup10\n        /* \"#utility.yul\":1853:1875   */\n      add\n        /* \"#utility.yul\":1821:1885   */\n      tag_77\n      jump\t// in\n    tag_94:\n        /* \"#utility.yul\":1811:1885   */\n      swap4\n      pop\n        /* \"#utility.yul\":1766:1895   */\n      pop\n        /* \"#utility.yul\":1934:1936   */\n      0x60\n        /* \"#utility.yul\":1960:2024   */\n      tag_95\n        /* \"#utility.yul\":2016:2023   */\n      dup9\n        /* \"#utility.yul\":2007:2013   */\n      dup3\n        /* \"#utility.yul\":1996:2005   */\n      dup10\n        /* \"#utility.yul\":1992:2014   */\n      add\n        /* \"#utility.yul\":1960:2024   */\n      tag_77\n      jump\t// in\n    tag_95:\n        /* \"#utility.yul\":1950:2024   */\n      swap3\n      pop\n        /* \"#utility.yul\":1905:2034   */\n      pop\n        /* \"#utility.yul\":2073:2076   */\n      0x80\n        /* \"#utility.yul\":2100:2163   */\n      tag_96\n        /* \"#utility.yul\":2155:2162   */\n      dup9\n        /* \"#utility.yul\":2146:2152   */\n      dup3\n        /* \"#utility.yul\":2135:2144   */\n      dup10\n        /* \"#utility.yul\":2131:2153   */\n      add\n        /* \"#utility.yul\":2100:2163   */\n      tag_80\n      jump\t// in\n    tag_96:\n        /* \"#utility.yul\":2090:2163   */\n      swap2\n      pop\n        /* \"#utility.yul\":2044:2173   */\n      pop\n        /* \"#utility.yul\":1418:2180   */\n      swap3\n      swap6\n      pop\n      swap3\n      swap6\n      swap1\n      swap4\n      pop\n      jump\t// out\n        /* \"#utility.yul\":2186:2304   */\n    tag_97:\n        /* \"#utility.yul\":2273:2297   */\n      tag_99\n        /* \"#utility.yul\":2291:2296   */\n      dup2\n        /* \"#utility.yul\":2273:2297   */\n      tag_100\n      jump\t// in\n    tag_99:\n        /* \"#utility.yul\":2268:2271   */\n      dup3\n        /* \"#utility.yul\":2261:2298   */\n      mstore\n        /* \"#utility.yul\":2251:2304   */\n      pop\n      pop\n      jump\t// out\n        /* \"#utility.yul\":2310:2627   */\n    tag_101:\n      0x00\n        /* \"#utility.yul\":2473:2540   */\n      tag_103\n        /* \"#utility.yul\":2537:2539   */\n      0x13\n        /* \"#utility.yul\":2532:2535   */\n      dup4\n        /* \"#utility.yul\":2473:2540   */\n      tag_104\n      jump\t// in\n    tag_103:\n        /* \"#utility.yul\":2466:2540   */\n      swap2\n      pop\n        /* \"#utility.yul\":2570:2591   */\n      0x4469646e27742053656e6420656e6f7567682100000000000000000000000000\n        /* \"#utility.yul\":2566:2567   */\n      0x00\n        /* \"#utility.yul\":2561:2564   */\n      dup4\n        /* \"#utility.yul\":2557:2568   */\n      add\n        /* \"#utility.yul\":2550:2592   */\n      mstore\n        /* \"#utility.yul\":2618:2620   */\n      0x20\n        /* \"#utility.yul\":2613:2616   */\n      dup3\n        /* \"#utility.yul\":2609:2621   */\n      add\n        /* \"#utility.yul\":2602:2621   */\n      swap1\n      pop\n        /* \"#utility.yul\":2456:2627   */\n      swap2\n      swap1\n      pop\n      jump\t// out\n        /* \"#utility.yul\":2633:2751   */\n    tag_105:\n        /* \"#utility.yul\":2720:2744   */\n      tag_107\n        /* \"#utility.yul\":2738:2743   */\n      dup2\n        /* \"#utility.yul\":2720:2744   */\n      tag_108\n      jump\t// in\n    tag_107:\n        /* \"#utility.yul\":2715:2718   */\n      dup3\n        /* \"#utility.yul\":2708:2745   */\n      mstore\n        /* \"#utility.yul\":2698:2751   */\n      pop\n      pop\n      jump\t// out\n        /* \"#utility.yul\":2757:2979   */\n    tag_29:\n      0x00\n        /* \"#utility.yul\":2888:2890   */\n      0x20\n        /* \"#utility.yul\":2877:2886   */\n      dup3\n        /* \"#utility.yul\":2873:2891   */\n      add\n        /* \"#utility.yul\":2865:2891   */\n      swap1\n      pop\n        /* \"#utility.yul\":2901:2972   */\n      tag_110\n        /* \"#utility.yul\":2969:2970   */\n      0x00\n        /* \"#utility.yul\":2958:2967   */\n      dup4\n        /* \"#utility.yul\":2954:2971   */\n      add\n        /* \"#utility.yul\":2945:2951   */\n      dup5\n        /* \"#utility.yul\":2901:2972   */\n      tag_97\n      jump\t// in\n    tag_110:\n        /* \"#utility.yul\":2855:2979   */\n      swap3\n      swap2\n      pop\n      pop\n      jump\t// out\n        /* \"#utility.yul\":2985:3404   */\n    tag_43:\n      0x00\n        /* \"#utility.yul\":3189:3191   */\n      0x20\n        /* \"#utility.yul\":3178:3187   */\n      dup3\n        /* \"#utility.yul\":3174:3192   */\n      add\n        /* \"#utility.yul\":3166:3192   */\n      swap1\n      pop\n        /* \"#utility.yul\":3238:3247   */\n      dup2\n        /* \"#utility.yul\":3232:3236   */\n      dup2\n        /* \"#utility.yul\":3228:3248   */\n      sub\n        /* \"#utility.yul\":3224:3225   */\n      0x00\n        /* \"#utility.yul\":3213:3222   */\n      dup4\n        /* \"#utility.yul\":3209:3226   */\n      add\n        /* \"#utility.yul\":3202:3249   */\n      mstore\n        /* \"#utility.yul\":3266:3397   */\n      tag_112\n        /* \"#utility.yul\":3392:3396   */\n      dup2\n        /* \"#utility.yul\":3266:3397   */\n      tag_101\n      jump\t// in\n    tag_112:\n        /* \"#utility.yul\":3258:3397   */\n      swap1\n      pop\n        /* \"#utility.yul\":3156:3404   */\n      swap2\n      swap1\n      pop\n      jump\t// out\n        /* \"#utility.yul\":3410:3632   */\n    tag_11:\n      0x00\n        /* \"#utility.yul\":3541:3543   */\n      0x20\n        /* \"#utility.yul\":3530:3539   */\n      dup3\n        /* \"#utility.yul\":3526:3544   */\n      add\n        /* \"#utility.yul\":3518:3544   */\n      swap1\n      pop\n        /* \"#utility.yul\":3554:3625   */\n      tag_114\n        /* \"#utility.yul\":3622:3623   */\n      0x00\n        /* \"#utility.yul\":3611:3620   */\n      dup4\n        /* \"#utility.yul\":3607:3624   */\n      add\n        /* \"#utility.yul\":3598:3604   */\n      dup5\n        /* \"#utility.yul\":3554:3625   */\n      tag_105\n      jump\t// in\n    tag_114:\n        /* \"#utility.yul\":3508:3632   */\n      swap3\n      swap2\n      pop\n      pop\n      jump\t// out\n        /* \"#utility.yul\":3638:3807   */\n    tag_104:\n      0x00\n        /* \"#utility.yul\":3756:3762   */\n      dup3\n        /* \"#utility.yul\":3751:3754   */\n      dup3\n        /* \"#utility.yul\":3744:3763   */\n      mstore\n        /* \"#utility.yul\":3796:3800   */\n      0x20\n        /* \"#utility.yul\":3791:3794   */\n      dup3\n        /* \"#utility.yul\":3787:3801   */\n      add\n        /* \"#utility.yul\":3772:3801   */\n      swap1\n      pop\n        /* \"#utility.yul\":3734:3807   */\n      swap3\n      swap2\n      pop\n      pop\n      jump\t// out\n        /* \"#utility.yul\":3813:4118   */\n    tag_46:\n      0x00\n        /* \"#utility.yul\":3872:3892   */\n      tag_117\n        /* \"#utility.yul\":3890:3891   */\n      dup3\n        /* \"#utility.yul\":3872:3892   */\n      tag_108\n      jump\t// in\n    tag_117:\n        /* \"#utility.yul\":3867:3892   */\n      swap2\n      pop\n        /* \"#utility.yul\":3906:3926   */\n      tag_118\n        /* \"#utility.yul\":3924:3925   */\n      dup4\n        /* \"#utility.yul\":3906:3926   */\n      tag_108\n      jump\t// in\n    tag_118:\n        /* \"#utility.yul\":3901:3926   */\n      swap3\n      pop\n        /* \"#utility.yul\":4060:4061   */\n      dup3\n        /* \"#utility.yul\":3992:4058   */\n      0xffffffffffffffffffffffffffffffffffffffffffffffffffffffffffffffff\n        /* \"#utility.yul\":3988:4062   */\n      sub\n        /* \"#utility.yul\":3985:3986   */\n      dup3\n        /* \"#utility.yul\":3982:4063   */\n      gt\n        /* \"#utility.yul\":3979:3981   */\n      iszero\n      tag_119\n      jumpi\n        /* \"#utility.yul\":4066:4084   */\n      tag_120\n      tag_121\n      jump\t// in\n    tag_120:\n        /* \"#utility.yul\":3979:3981   */\n    tag_119:\n        /* \"#utility.yul\":4110:4111   */\n      dup3\n        /* \"#utility.yul\":4107:4108   */\n      dup3\n        /* \"#utility.yul\":4103:4112   */\n      add\n        /* \"#utility.yul\":4096:4112   */\n      swap1\n      pop\n        /* \"#utility.yul\":3857:4118   */\n      swap3\n      swap2\n      pop\n      pop\n      jump\t// out\n        /* \"#utility.yul\":4124:4309   */\n    tag_55:\n      0x00\n        /* \"#utility.yul\":4181:4201   */\n      tag_123\n        /* \"#utility.yul\":4199:4200   */\n      dup3\n        /* \"#utility.yul\":4181:4201   */\n      tag_108\n      jump\t// in\n    tag_123:\n        /* \"#utility.yul\":4176:4201   */\n      swap2\n      pop\n        /* \"#utility.yul\":4215:4235   */\n      tag_124\n        /* \"#utility.yul\":4233:4234   */\n      dup4\n        /* \"#utility.yul\":4215:4235   */\n      tag_108\n      jump\t// in\n    tag_124:\n        /* \"#utility.yul\":4210:4235   */\n      swap3\n      pop\n        /* \"#utility.yul\":4254:4255   */\n      dup3\n        /* \"#utility.yul\":4244:4246   */\n      tag_125\n      jumpi\n        /* \"#utility.yul\":4259:4277   */\n      tag_126\n      tag_127\n      jump\t// in\n    tag_126:\n        /* \"#utility.yul\":4244:4246   */\n    tag_125:\n        /* \"#utility.yul\":4301:4302   */\n      dup3\n        /* \"#utility.yul\":4298:4299   */\n      dup3\n        /* \"#utility.yul\":4294:4303   */\n      div\n        /* \"#utility.yul\":4289:4303   */\n      swap1\n      pop\n        /* \"#utility.yul\":4166:4309   */\n      swap3\n      swap2\n      pop\n      pop\n      jump\t// out\n        /* \"#utility.yul\":4315:5306   */\n    tag_63:\n      0x00\n        /* \"#utility.yul\":4377:4396   */\n      tag_129\n        /* \"#utility.yul\":4394:4395   */\n      dup3\n        /* \"#utility.yul\":4377:4396   */\n      tag_130\n      jump\t// in\n    tag_129:\n        /* \"#utility.yul\":4372:4396   */\n      swap2\n      pop\n        /* \"#utility.yul\":4410:4429   */\n      tag_131\n        /* \"#utility.yul\":4427:4428   */\n      dup4\n        /* \"#utility.yul\":4410:4429   */\n      tag_130\n      jump\t// in\n    tag_131:\n        /* \"#utility.yul\":4405:4429   */\n      swap3\n      pop\n        /* \"#utility.yul\":4611:4612   */\n      dup3\n        /* \"#utility.yul\":4543:4609   */\n      0x7fffffffffffffffffffffffffffffffffffffffffffffffffffffffffffffff\n        /* \"#utility.yul\":4539:4613   */\n      div\n        /* \"#utility.yul\":4536:4537   */\n      dup3\n        /* \"#utility.yul\":4533:4614   */\n      gt\n        /* \"#utility.yul\":4528:4529   */\n      0x00\n        /* \"#utility.yul\":4525:4526   */\n      dup5\n        /* \"#utility.yul\":4521:4530   */\n      sgt\n        /* \"#utility.yul\":4517:4518   */\n      0x00\n        /* \"#utility.yul\":4514:4515   */\n      dup5\n        /* \"#utility.yul\":4510:4519   */\n      sgt\n        /* \"#utility.yul\":4506:4531   */\n      and\n        /* \"#utility.yul\":4502:4615   */\n      and\n        /* \"#utility.yul\":4499:4501   */\n      iszero\n      tag_132\n      jumpi\n        /* \"#utility.yul\":4618:4636   */\n      tag_133\n      tag_121\n      jump\t// in\n    tag_133:\n        /* \"#utility.yul\":4499:4501   */\n    tag_132:\n        /* \"#utility.yul\":4822:4823   */\n      dup2\n        /* \"#utility.yul\":4754:4820   */\n      0x8000000000000000000000000000000000000000000000000000000000000000\n        /* \"#utility.yul\":4749:4824   */\n      sdiv\n        /* \"#utility.yul\":4746:4747   */\n      dup4\n        /* \"#utility.yul\":4742:4825   */\n      slt\n        /* \"#utility.yul\":4737:4738   */\n      0x00\n        /* \"#utility.yul\":4734:4735   */\n      dup5\n        /* \"#utility.yul\":4730:4739   */\n      slt\n        /* \"#utility.yul\":4726:4727   */\n      0x00\n        /* \"#utility.yul\":4723:4724   */\n      dup5\n        /* \"#utility.yul\":4719:4728   */\n      sgt\n        /* \"#utility.yul\":4715:4740   */\n      and\n        /* \"#utility.yul\":4711:4826   */\n      and\n        /* \"#utility.yul\":4708:4710   */\n      iszero\n      tag_134\n      jumpi\n        /* \"#utility.yul\":4829:4847   */\n      tag_135\n      tag_121\n      jump\t// in\n    tag_135:\n        /* \"#utility.yul\":4708:4710   */\n    tag_134:\n        /* \"#utility.yul\":5033:5034   */\n      dup3\n        /* \"#utility.yul\":4965:5031   */\n      0x8000000000000000000000000000000000000000000000000000000000000000\n        /* \"#utility.yul\":4960:5035   */\n      sdiv\n        /* \"#utility.yul\":4957:4958   */\n      dup3\n        /* \"#utility.yul\":4953:5036   */\n      slt\n        /* \"#utility.yul\":4948:4949   */\n      0x00\n        /* \"#utility.yul\":4945:4946   */\n      dup5\n        /* \"#utility.yul\":4941:4950   */\n      sgt\n        /* \"#utility.yul\":4937:4938   */\n      0x00\n        /* \"#utility.yul\":4934:4935   */\n      dup5\n        /* \"#utility.yul\":4930:4939   */\n      slt\n        /* \"#utility.yul\":4926:4951   */\n      and\n        /* \"#utility.yul\":4922:5037   */\n      and\n        /* \"#utility.yul\":4919:4921   */\n      iszero\n      tag_136\n      jumpi\n        /* \"#utility.yul\":5040:5058   */\n      tag_137\n      tag_121\n      jump\t// in\n    tag_137:\n        /* \"#utility.yul\":4919:4921   */\n    tag_136:\n        /* \"#utility.yul\":5243:5244   */\n      dup3\n        /* \"#utility.yul\":5175:5241   */\n      0x7fffffffffffffffffffffffffffffffffffffffffffffffffffffffffffffff\n        /* \"#utility.yul\":5170:5245   */\n      sdiv\n        /* \"#utility.yul\":5167:5168   */\n      dup3\n        /* \"#utility.yul\":5163:5246   */\n      slt\n        /* \"#utility.yul\":5158:5159   */\n      0x00\n        /* \"#utility.yul\":5155:5156   */\n      dup5\n        /* \"#utility.yul\":5151:5160   */\n      slt\n        /* \"#utility.yul\":5147:5148   */\n      0x00\n        /* \"#utility.yul\":5144:5145   */\n      dup5\n        /* \"#utility.yul\":5140:5149   */\n      slt\n        /* \"#utility.yul\":5136:5161   */\n      and\n        /* \"#utility.yul\":5132:5247   */\n      and\n        /* \"#utility.yul\":5129:5131   */\n      iszero\n      tag_138\n      jumpi\n        /* \"#utility.yul\":5250:5268   */\n      tag_139\n      tag_121\n      jump\t// in\n    tag_139:\n        /* \"#utility.yul\":5129:5131   */\n    tag_138:\n        /* \"#utility.yul\":5298:5299   */\n      dup3\n        /* \"#utility.yul\":5295:5296   */\n      dup3\n        /* \"#utility.yul\":5291:5300   */\n      mul\n        /* \"#utility.yul\":5280:5300   */\n      swap1\n      pop\n        /* \"#utility.yul\":4362:5306   */\n      swap3\n      swap2\n      pop\n      pop\n      jump\t// out\n        /* \"#utility.yul\":5312:5660   */\n    tag_53:\n      0x00\n        /* \"#utility.yul\":5375:5395   */\n      tag_141\n        /* \"#utility.yul\":5393:5394   */\n      dup3\n        /* \"#utility.yul\":5375:5395   */\n      tag_108\n      jump\t// in\n    tag_141:\n        /* \"#utility.yul\":5370:5395   */\n      swap2\n      pop\n        /* \"#utility.yul\":5409:5429   */\n      tag_142\n        /* \"#utility.yul\":5427:5428   */\n      dup4\n        /* \"#utility.yul\":5409:5429   */\n      tag_108\n      jump\t// in\n    tag_142:\n        /* \"#utility.yul\":5404:5429   */\n      swap3\n      pop\n        /* \"#utility.yul\":5597:5598   */\n      dup2\n        /* \"#utility.yul\":5529:5595   */\n      0xffffffffffffffffffffffffffffffffffffffffffffffffffffffffffffffff\n        /* \"#utility.yul\":5525:5599   */\n      div\n        /* \"#utility.yul\":5522:5523   */\n      dup4\n        /* \"#utility.yul\":5519:5600   */\n      gt\n        /* \"#utility.yul\":5514:5515   */\n      dup3\n        /* \"#utility.yul\":5507:5516   */\n      iszero\n        /* \"#utility.yul\":5500:5517   */\n      iszero\n        /* \"#utility.yul\":5496:5601   */\n      and\n        /* \"#utility.yul\":5493:5495   */\n      iszero\n      tag_143\n      jumpi\n        /* \"#utility.yul\":5604:5622   */\n      tag_144\n      tag_121\n      jump\t// in\n    tag_144:\n        /* \"#utility.yul\":5493:5495   */\n    tag_143:\n        /* \"#utility.yul\":5652:5653   */\n      dup3\n        /* \"#utility.yul\":5649:5650   */\n      dup3\n        /* \"#utility.yul\":5645:5654   */\n      mul\n        /* \"#utility.yul\":5634:5654   */\n      swap1\n      pop\n        /* \"#utility.yul\":5360:5660   */\n      swap3\n      swap2\n      pop\n      pop\n      jump\t// out\n        /* \"#utility.yul\":5666:5762   */\n    tag_100:\n      0x00\n        /* \"#utility.yul\":5732:5756   */\n      tag_146\n        /* \"#utility.yul\":5750:5755   */\n      dup3\n        /* \"#utility.yul\":5732:5756   */\n      tag_147\n      jump\t// in\n    tag_146:\n        /* \"#utility.yul\":5721:5756   */\n      swap1\n      pop\n        /* \"#utility.yul\":5711:5762   */\n      swap2\n      swap1\n      pop\n      jump\t// out\n        /* \"#utility.yul\":5768:5844   */\n    tag_130:\n      0x00\n        /* \"#utility.yul\":5833:5838   */\n      dup2\n        /* \"#utility.yul\":5822:5838   */\n      swap1\n      pop\n        /* \"#utility.yul\":5812:5844   */\n      swap2\n      swap1\n      pop\n      jump\t// out\n        /* \"#utility.yul\":5850:5976   */\n    tag_147:\n      0x00\n        /* \"#utility.yul\":5927:5969   */\n      0xffffffffffffffffffffffffffffffffffffffff\n        /* \"#utility.yul\":5920:5925   */\n      dup3\n        /* \"#utility.yul\":5916:5970   */\n      and\n        /* \"#utility.yul\":5905:5970   */\n      swap1\n      pop\n        /* \"#utility.yul\":5895:5976   */\n      swap2\n      swap1\n      pop\n      jump\t// out\n        /* \"#utility.yul\":5982:6059   */\n    tag_108:\n      0x00\n        /* \"#utility.yul\":6048:6053   */\n      dup2\n        /* \"#utility.yul\":6037:6053   */\n      swap1\n      pop\n        /* \"#utility.yul\":6027:6059   */\n      swap2\n      swap1\n      pop\n      jump\t// out\n        /* \"#utility.yul\":6065:6170   */\n    tag_151:\n      0x00\n        /* \"#utility.yul\":6141:6163   */\n      0xffffffffffffffffffff\n        /* \"#utility.yul\":6134:6139   */\n      dup3\n        /* \"#utility.yul\":6130:6164   */\n      and\n        /* \"#utility.yul\":6119:6164   */\n      swap1\n      pop\n        /* \"#utility.yul\":6109:6170   */\n      swap2\n      swap1\n      pop\n      jump\t// out\n        /* \"#utility.yul\":6176:6409   */\n    tag_37:\n      0x00\n        /* \"#utility.yul\":6238:6262   */\n      tag_154\n        /* \"#utility.yul\":6256:6261   */\n      dup3\n        /* \"#utility.yul\":6238:6262   */\n      tag_108\n      jump\t// in\n    tag_154:\n        /* \"#utility.yul\":6229:6262   */\n      swap2\n      pop\n        /* \"#utility.yul\":6284:6350   */\n      0xffffffffffffffffffffffffffffffffffffffffffffffffffffffffffffffff\n        /* \"#utility.yul\":6277:6282   */\n      dup3\n        /* \"#utility.yul\":6274:6351   */\n      eq\n        /* \"#utility.yul\":6271:6273   */\n      iszero\n      tag_155\n      jumpi\n        /* \"#utility.yul\":6354:6372   */\n      tag_156\n      tag_121\n      jump\t// in\n    tag_156:\n        /* \"#utility.yul\":6271:6273   */\n    tag_155:\n        /* \"#utility.yul\":6401:6402   */\n      0x01\n        /* \"#utility.yul\":6394:6399   */\n      dup3\n        /* \"#utility.yul\":6390:6403   */\n      add\n        /* \"#utility.yul\":6383:6403   */\n      swap1\n      pop\n        /* \"#utility.yul\":6219:6409   */\n      swap2\n      swap1\n      pop\n      jump\t// out\n        /* \"#utility.yul\":6415:6595   */\n    tag_121:\n        /* \"#utility.yul\":6463:6540   */\n      0x4e487b7100000000000000000000000000000000000000000000000000000000\n        /* \"#utility.yul\":6460:6461   */\n      0x00\n        /* \"#utility.yul\":6453:6541   */\n      mstore\n        /* \"#utility.yul\":6560:6564   */\n      0x11\n        /* \"#utility.yul\":6557:6558   */\n      0x04\n        /* \"#utility.yul\":6550:6565   */\n      mstore\n        /* \"#utility.yul\":6584:6588   */\n      0x24\n        /* \"#utility.yul\":6581:6582   */\n      0x00\n        /* \"#utility.yul\":6574:6589   */\n      revert\n        /* \"#utility.yul\":6601:6781   */\n    tag_127:\n        /* \"#utility.yul\":6649:6726   */\n      0x4e487b7100000000000000000000000000000000000000000000000000000000\n        /* \"#utility.yul\":6646:6647   */\n      0x00\n        /* \"#utility.yul\":6639:6727   */\n      mstore\n        /* \"#utility.yul\":6746:6750   */\n      0x12\n        /* \"#utility.yul\":6743:6744   */\n      0x04\n        /* \"#utility.yul\":6736:6751   */\n      mstore\n        /* \"#utility.yul\":6770:6774   */\n      0x24\n        /* \"#utility.yul\":6767:6768   */\n      0x00\n        /* \"#utility.yul\":6760:6775   */\n      revert\n        /* \"#utility.yul\":6787:6909   */\n    tag_68:\n        /* \"#utility.yul\":6860:6884   */\n      tag_160\n        /* \"#utility.yul\":6878:6883   */\n      dup2\n        /* \"#utility.yul\":6860:6884   */\n      tag_100\n      jump\t// in\n    tag_160:\n        /* \"#utility.yul\":6853:6858   */\n      dup2\n        /* \"#utility.yul\":6850:6885   */\n      eq\n        /* \"#utility.yul\":6840:6842   */\n      tag_161\n      jumpi\n        /* \"#utility.yul\":6899:6900   */\n      0x00\n        /* \"#utility.yul\":6896:6897   */\n      dup1\n        /* \"#utility.yul\":6889:6901   */\n      revert\n        /* \"#utility.yul\":6840:6842   */\n    tag_161:\n        /* \"#utility.yul\":6830:6909   */\n      pop\n      jump\t// out\n        /* \"#utility.yul\":6915:7035   */\n    tag_72:\n        /* \"#utility.yul\":6987:7010   */\n      tag_163\n        /* \"#utility.yul\":7004:7009   */\n      dup2\n        /* \"#utility.yul\":6987:7010   */\n      tag_130\n      jump\t// in\n    tag_163:\n        /* \"#utility.yul\":6980:6985   */\n      dup2\n        /* \"#utility.yul\":6977:7011   */\n      eq\n        /* \"#utility.yul\":6967:6969   */\n      tag_164\n      jumpi\n        /* \"#utility.yul\":7025:7026   */\n      0x00\n        /* \"#utility.yul\":7022:7023   */\n      dup1\n        /* \"#utility.yul\":7015:7027   */\n      revert\n        /* \"#utility.yul\":6967:6969   */\n    tag_164:\n        /* \"#utility.yul\":6957:7035   */\n      pop\n      jump\t// out\n        /* \"#utility.yul\":7041:7163   */\n    tag_76:\n        /* \"#utility.yul\":7114:7138   */\n      tag_166\n        /* \"#utility.yul\":7132:7137   */\n      dup2\n        /* \"#utility.yul\":7114:7138   */\n      tag_108\n      jump\t// in\n    tag_166:\n        /* \"#utility.yul\":7107:7112   */\n      dup2\n        /* \"#utility.yul\":7104:7139   */\n      eq\n        /* \"#utility.yul\":7094:7096   */\n      tag_167\n      jumpi\n        /* \"#utility.yul\":7153:7154   */\n      0x00\n        /* \"#utility.yul\":7150:7151   */\n      dup1\n        /* \"#utility.yul\":7143:7155   */\n      revert\n        /* \"#utility.yul\":7094:7096   */\n    tag_167:\n        /* \"#utility.yul\":7084:7163   */\n      pop\n      jump\t// out\n        /* \"#utility.yul\":7169:7289   */\n    tag_83:\n        /* \"#utility.yul\":7241:7264   */\n      tag_169\n        /* \"#utility.yul\":7258:7263   */\n      dup2\n        /* \"#utility.yul\":7241:7264   */\n      tag_151\n      jump\t// in\n    tag_169:\n        /* \"#utility.yul\":7234:7239   */\n      dup2\n        /* \"#utility.yul\":7231:7265   */\n      eq\n        /* \"#utility.yul\":7221:7223   */\n      tag_170\n      jumpi\n        /* \"#utility.yul\":7279:7280   */\n      0x00\n        /* \"#utility.yul\":7276:7277   */\n      dup1\n        /* \"#utility.yul\":7269:7281   */\n      revert\n        /* \"#utility.yul\":7221:7223   */\n    tag_170:\n        /* \"#utility.yul\":7211:7289   */\n      pop\n      jump\t// out\n\n    auxdata: 0xa2646970667358221220f59aafeb11c19f32b3b8297b26e86e3a937a79aaad3189549a605643880ffac364736f6c63430008000033\n}\n",
				"bytecode": {
					"linkReferences": {},
					"object": "60806040526802b5e3af16b188000060005534801561001d57600080fd5b506109818061002d6000396000f3fe60806040526004361061004a5760003560e01c8063098de8201461004f5780633ccfd60b1461007a5780633e47d6f314610091578063b60d4288146100ce578063dc0d3dff146100d8575b600080fd5b34801561005b57600080fd5b50610064610115565b60405161007191906105c8565b60405180910390f35b34801561008657600080fd5b5061008f61011b565b005b34801561009d57600080fd5b506100b860048036038101906100b39190610466565b6101ac565b6040516100c591906105c8565b60405180910390f35b6100d66101c4565b005b3480156100e457600080fd5b506100ff60048036038101906100fa919061048f565b6102cc565b60405161010c919061058d565b60405180910390f35b60005481565b60005b6001805490508110156101a957600060018281548110610167577f4e487b7100000000000000000000000000000000000000000000000000000000600052603260045260246000fd5b9060005260206000200160009054906101000a900473ffffffffffffffffffffffffffffffffffffffff1690505080806101a090610848565b9150905061011e565b50565b60026020528060005260406000206000915090505481565b6000546101d03461030b565b1015610211576040517f08c379a0000000000000000000000000000000000000000000000000000000008152600401610208906105a8565b60405180910390fd5b6001339080600181540180825580915050600190039060005260206000200160009091909190916101000a81548173ffffffffffffffffffffffffffffffffffffffff021916908373ffffffffffffffffffffffffffffffffffffffff16021790555034600260003373ffffffffffffffffffffffffffffffffffffffff1673ffffffffffffffffffffffffffffffffffffffff16815260200190815260200160002060008282546102c391906105f4565b92505081905550565b600181815481106102dc57600080fd5b906000526020600020016000915054906101000a900473ffffffffffffffffffffffffffffffffffffffff1681565b600080610316610345565b90506000670de0b6b3a7640000848361032f9190610792565b610339919061064a565b90508092505050919050565b60008073d4a33860578de61dbabdc8bfdb98fd742fa7028e905060008173ffffffffffffffffffffffffffffffffffffffff1663feaf968c6040518163ffffffff1660e01b815260040160a06040518083038186803b1580156103a757600080fd5b505afa1580156103bb573d6000803e3d6000fd5b505050506040513d601f19601f820116820180604052508101906103df91906104b8565b5050509150506402540be400816103f6919061067b565b9250505090565b60008135905061040c816108ef565b92915050565b60008151905061042181610906565b92915050565b6000813590506104368161091d565b92915050565b60008151905061044b8161091d565b92915050565b60008151905061046081610934565b92915050565b60006020828403121561047857600080fd5b6000610486848285016103fd565b91505092915050565b6000602082840312156104a157600080fd5b60006104af84828501610427565b91505092915050565b600080600080600060a086880312156104d057600080fd5b60006104de88828901610451565b95505060206104ef88828901610412565b94505060406105008882890161043c565b93505060606105118882890161043c565b925050608061052288828901610451565b9150509295509295909350565b610538816107ec565b82525050565b600061054b6013836105e3565b91507f4469646e27742053656e6420656e6f75676821000000000000000000000000006000830152602082019050919050565b61058781610828565b82525050565b60006020820190506105a2600083018461052f565b92915050565b600060208201905081810360008301526105c18161053e565b9050919050565b60006020820190506105dd600083018461057e565b92915050565b600082825260208201905092915050565b60006105ff82610828565b915061060a83610828565b9250827fffffffffffffffffffffffffffffffffffffffffffffffffffffffffffffffff0382111561063f5761063e610891565b5b828201905092915050565b600061065582610828565b915061066083610828565b9250826106705761066f6108c0565b5b828204905092915050565b6000610686826107fe565b9150610691836107fe565b9250827f7fffffffffffffffffffffffffffffffffffffffffffffffffffffffffffffff04821160008413600084131616156106d0576106cf610891565b5b817f8000000000000000000000000000000000000000000000000000000000000000058312600084126000841316161561070d5761070c610891565b5b827f8000000000000000000000000000000000000000000000000000000000000000058212600084136000841216161561074a57610749610891565b5b827f7fffffffffffffffffffffffffffffffffffffffffffffffffffffffffffffff058212600084126000841216161561078757610786610891565b5b828202905092915050565b600061079d82610828565b91506107a883610828565b9250817fffffffffffffffffffffffffffffffffffffffffffffffffffffffffffffffff04831182151516156107e1576107e0610891565b5b828202905092915050565b60006107f782610808565b9050919050565b6000819050919050565b600073ffffffffffffffffffffffffffffffffffffffff82169050919050565b6000819050919050565b600069ffffffffffffffffffff82169050919050565b600061085382610828565b91507fffffffffffffffffffffffffffffffffffffffffffffffffffffffffffffffff82141561088657610885610891565b5b600182019050919050565b7f4e487b7100000000000000000000000000000000000000000000000000000000600052601160045260246000fd5b7f4e487b7100000000000000000000000000000000000000000000000000000000600052601260045260246000fd5b6108f8816107ec565b811461090357600080fd5b50565b61090f816107fe565b811461091a57600080fd5b50565b61092681610828565b811461093157600080fd5b50565b61093d81610832565b811461094857600080fd5b5056fea2646970667358221220f59aafeb11c19f32b3b8297b26e86e3a937a79aaad3189549a605643880ffac364736f6c63430008000033",
					"opcodes": "PUSH1 0x80 PUSH1 0x40 MSTORE PUSH9 0x2B5E3AF16B1880000 PUSH1 0x0 SSTORE CALLVALUE DUP1 ISZERO PUSH2 0x1D JUMPI PUSH1 0x0 DUP1 REVERT JUMPDEST POP PUSH2 0x981 DUP1 PUSH2 0x2D PUSH1 0x0 CODECOPY PUSH1 0x0 RETURN INVALID PUSH1 0x80 PUSH1 0x40 MSTORE PUSH1 0x4 CALLDATASIZE LT PUSH2 0x4A JUMPI PUSH1 0x0 CALLDATALOAD PUSH1 0xE0 SHR DUP1 PUSH4 0x98DE820 EQ PUSH2 0x4F JUMPI DUP1 PUSH4 0x3CCFD60B EQ PUSH2 0x7A JUMPI DUP1 PUSH4 0x3E47D6F3 EQ PUSH2 0x91 JUMPI DUP1 PUSH4 0xB60D4288 EQ PUSH2 0xCE JUMPI DUP1 PUSH4 0xDC0D3DFF EQ PUSH2 0xD8 JUMPI JUMPDEST PUSH1 0x0 DUP1 REVERT JUMPDEST CALLVALUE DUP1 ISZERO PUSH2 0x5B JUMPI PUSH1 0x0 DUP1 REVERT JUMPDEST POP PUSH2 0x64 PUSH2 0x115 JUMP JUMPDEST PUSH1 0x40 MLOAD PUSH2 0x71 SWAP2 SWAP1 PUSH2 0x5C8 JUMP JUMPDEST PUSH1 0x40 MLOAD DUP1 SWAP2 SUB SWAP1 RETURN JUMPDEST CALLVALUE DUP1 ISZERO PUSH2 0x86 JUMPI PUSH1 0x0 DUP1 REVERT JUMPDEST POP PUSH2 0x8F PUSH2 0x11B JUMP JUMPDEST STOP JUMPDEST CALLVALUE DUP1 ISZERO PUSH2 0x9D JUMPI PUSH1 0x0 DUP1 REVERT JUMPDEST POP PUSH2 0xB8 PUSH1 0x4 DUP1 CALLDATASIZE SUB DUP2 ADD SWAP1 PUSH2 0xB3 SWAP2 SWAP1 PUSH2 0x466 JUMP JUMPDEST PUSH2 0x1AC JUMP JUMPDEST PUSH1 0x40 MLOAD PUSH2 0xC5 SWAP2 SWAP1 PUSH2 0x5C8 JUMP JUMPDEST PUSH1 0x40 MLOAD DUP1 SWAP2 SUB SWAP1 RETURN JUMPDEST PUSH2 0xD6 PUSH2 0x1C4 JUMP JUMPDEST STOP JUMPDEST CALLVALUE DUP1 ISZERO PUSH2 0xE4 JUMPI PUSH1 0x0 DUP1 REVERT JUMPDEST POP PUSH2 0xFF PUSH1 0x4 DUP1 CALLDATASIZE SUB DUP2 ADD SWAP1 PUSH2 0xFA SWAP2 SWAP1 PUSH2 0x48F JUMP JUMPDEST PUSH2 0x2CC JUMP JUMPDEST PUSH1 0x40 MLOAD PUSH2 0x10C SWAP2 SWAP1 PUSH2 0x58D JUMP JUMPDEST PUSH1 0x40 MLOAD DUP1 SWAP2 SUB SWAP1 RETURN JUMPDEST PUSH1 0x0 SLOAD DUP2 JUMP JUMPDEST PUSH1 0x0 JUMPDEST PUSH1 0x1 DUP1 SLOAD SWAP1 POP DUP2 LT ISZERO PUSH2 0x1A9 JUMPI PUSH1 0x0 PUSH1 0x1 DUP3 DUP2 SLOAD DUP2 LT PUSH2 0x167 JUMPI PUSH32 0x4E487B7100000000000000000000000000000000000000000000000000000000 PUSH1 0x0 MSTORE PUSH1 0x32 PUSH1 0x4 MSTORE PUSH1 0x24 PUSH1 0x0 REVERT JUMPDEST SWAP1 PUSH1 0x0 MSTORE PUSH1 0x20 PUSH1 0x0 KECCAK256 ADD PUSH1 0x0 SWAP1 SLOAD SWAP1 PUSH2 0x100 EXP SWAP1 DIV PUSH20 0xFFFFFFFFFFFFFFFFFFFFFFFFFFFFFFFFFFFFFFFF AND SWAP1 POP POP DUP1 DUP1 PUSH2 0x1A0 SWAP1 PUSH2 0x848 JUMP JUMPDEST SWAP2 POP SWAP1 POP PUSH2 0x11E JUMP JUMPDEST POP JUMP JUMPDEST PUSH1 0x2 PUSH1 0x20 MSTORE DUP1 PUSH1 0x0 MSTORE PUSH1 0x40 PUSH1 0x0 KECCAK256 PUSH1 0x0 SWAP2 POP SWAP1 POP SLOAD DUP2 JUMP JUMPDEST PUSH1 0x0 SLOAD PUSH2 0x1D0 CALLVALUE PUSH2 0x30B JUMP JUMPDEST LT ISZERO PUSH2 0x211 JUMPI PUSH1 0x40 MLOAD PUSH32 0x8C379A000000000000000000000000000000000000000000000000000000000 DUP2 MSTORE PUSH1 0x4 ADD PUSH2 0x208 SWAP1 PUSH2 0x5A8 JUMP JUMPDEST PUSH1 0x40 MLOAD DUP1 SWAP2 SUB SWAP1 REVERT JUMPDEST PUSH1 0x1 CALLER SWAP1 DUP1 PUSH1 0x1 DUP2 SLOAD ADD DUP1 DUP3 SSTORE DUP1 SWAP2 POP POP PUSH1 0x1 SWAP1 SUB SWAP1 PUSH1 0x0 MSTORE PUSH1 0x20 PUSH1 0x0 KECCAK256 ADD PUSH1 0x0 SWAP1 SWAP2 SWAP1 SWAP2 SWAP1 SWAP2 PUSH2 0x100 EXP DUP2 SLOAD DUP2 PUSH20 0xFFFFFFFFFFFFFFFFFFFFFFFFFFFFFFFFFFFFFFFF MUL NOT AND SWAP1 DUP4 PUSH20 0xFFFFFFFFFFFFFFFFFFFFFFFFFFFFFFFFFFFFFFFF AND MUL OR SWAP1 SSTORE POP CALLVALUE PUSH1 0x2 PUSH1 0x0 CALLER PUSH20 0xFFFFFFFFFFFFFFFFFFFFFFFFFFFFFFFFFFFFFFFF AND PUSH20 0xFFFFFFFFFFFFFFFFFFFFFFFFFFFFFFFFFFFFFFFF AND DUP2 MSTORE PUSH1 0x20 ADD SWAP1 DUP2 MSTORE PUSH1 0x20 ADD PUSH1 0x0 KECCAK256 PUSH1 0x0 DUP3 DUP3 SLOAD PUSH2 0x2C3 SWAP2 SWAP1 PUSH2 0x5F4 JUMP JUMPDEST SWAP3 POP POP DUP2 SWAP1 SSTORE POP JUMP JUMPDEST PUSH1 0x1 DUP2 DUP2 SLOAD DUP2 LT PUSH2 0x2DC JUMPI PUSH1 0x0 DUP1 REVERT JUMPDEST SWAP1 PUSH1 0x0 MSTORE PUSH1 0x20 PUSH1 0x0 KECCAK256 ADD PUSH1 0x0 SWAP2 POP SLOAD SWAP1 PUSH2 0x100 EXP SWAP1 DIV PUSH20 0xFFFFFFFFFFFFFFFFFFFFFFFFFFFFFFFFFFFFFFFF AND DUP2 JUMP JUMPDEST PUSH1 0x0 DUP1 PUSH2 0x316 PUSH2 0x345 JUMP JUMPDEST SWAP1 POP PUSH1 0x0 PUSH8 0xDE0B6B3A7640000 DUP5 DUP4 PUSH2 0x32F SWAP2 SWAP1 PUSH2 0x792 JUMP JUMPDEST PUSH2 0x339 SWAP2 SWAP1 PUSH2 0x64A JUMP JUMPDEST SWAP1 POP DUP1 SWAP3 POP POP POP SWAP2 SWAP1 POP JUMP JUMPDEST PUSH1 0x0 DUP1 PUSH20 0xD4A33860578DE61DBABDC8BFDB98FD742FA7028E SWAP1 POP PUSH1 0x0 DUP2 PUSH20 0xFFFFFFFFFFFFFFFFFFFFFFFFFFFFFFFFFFFFFFFF AND PUSH4 0xFEAF968C PUSH1 0x40 MLOAD DUP2 PUSH4 0xFFFFFFFF AND PUSH1 0xE0 SHL DUP2 MSTORE PUSH1 0x4 ADD PUSH1 0xA0 PUSH1 0x40 MLOAD DUP1 DUP4 SUB DUP2 DUP7 DUP1 EXTCODESIZE ISZERO DUP1 ISZERO PUSH2 0x3A7 JUMPI PUSH1 0x0 DUP1 REVERT JUMPDEST POP GAS STATICCALL ISZERO DUP1 ISZERO PUSH2 0x3BB JUMPI RETURNDATASIZE PUSH1 0x0 DUP1 RETURNDATACOPY RETURNDATASIZE PUSH1 0x0 REVERT JUMPDEST POP POP POP POP PUSH1 0x40 MLOAD RETURNDATASIZE PUSH1 0x1F NOT PUSH1 0x1F DUP3 ADD AND DUP3 ADD DUP1 PUSH1 0x40 MSTORE POP DUP2 ADD SWAP1 PUSH2 0x3DF SWAP2 SWAP1 PUSH2 0x4B8 JUMP JUMPDEST POP POP POP SWAP2 POP POP PUSH5 0x2540BE400 DUP2 PUSH2 0x3F6 SWAP2 SWAP1 PUSH2 0x67B JUMP JUMPDEST SWAP3 POP POP POP SWAP1 JUMP JUMPDEST PUSH1 0x0 DUP2 CALLDATALOAD SWAP1 POP PUSH2 0x40C DUP2 PUSH2 0x8EF JUMP JUMPDEST SWAP3 SWAP2 POP POP JUMP JUMPDEST PUSH1 0x0 DUP2 MLOAD SWAP1 POP PUSH2 0x421 DUP2 PUSH2 0x906 JUMP JUMPDEST SWAP3 SWAP2 POP POP JUMP JUMPDEST PUSH1 0x0 DUP2 CALLDATALOAD SWAP1 POP PUSH2 0x436 DUP2 PUSH2 0x91D JUMP JUMPDEST SWAP3 SWAP2 POP POP JUMP JUMPDEST PUSH1 0x0 DUP2 MLOAD SWAP1 POP PUSH2 0x44B DUP2 PUSH2 0x91D JUMP JUMPDEST SWAP3 SWAP2 POP POP JUMP JUMPDEST PUSH1 0x0 DUP2 MLOAD SWAP1 POP PUSH2 0x460 DUP2 PUSH2 0x934 JUMP JUMPDEST SWAP3 SWAP2 POP POP JUMP JUMPDEST PUSH1 0x0 PUSH1 0x20 DUP3 DUP5 SUB SLT ISZERO PUSH2 0x478 JUMPI PUSH1 0x0 DUP1 REVERT JUMPDEST PUSH1 0x0 PUSH2 0x486 DUP5 DUP3 DUP6 ADD PUSH2 0x3FD JUMP JUMPDEST SWAP2 POP POP SWAP3 SWAP2 POP POP JUMP JUMPDEST PUSH1 0x0 PUSH1 0x20 DUP3 DUP5 SUB SLT ISZERO PUSH2 0x4A1 JUMPI PUSH1 0x0 DUP1 REVERT JUMPDEST PUSH1 0x0 PUSH2 0x4AF DUP5 DUP3 DUP6 ADD PUSH2 0x427 JUMP JUMPDEST SWAP2 POP POP SWAP3 SWAP2 POP POP JUMP JUMPDEST PUSH1 0x0 DUP1 PUSH1 0x0 DUP1 PUSH1 0x0 PUSH1 0xA0 DUP7 DUP9 SUB SLT ISZERO PUSH2 0x4D0 JUMPI PUSH1 0x0 DUP1 REVERT JUMPDEST PUSH1 0x0 PUSH2 0x4DE DUP9 DUP3 DUP10 ADD PUSH2 0x451 JUMP JUMPDEST SWAP6 POP POP PUSH1 0x20 PUSH2 0x4EF DUP9 DUP3 DUP10 ADD PUSH2 0x412 JUMP JUMPDEST SWAP5 POP POP PUSH1 0x40 PUSH2 0x500 DUP9 DUP3 DUP10 ADD PUSH2 0x43C JUMP JUMPDEST SWAP4 POP POP PUSH1 0x60 PUSH2 0x511 DUP9 DUP3 DUP10 ADD PUSH2 0x43C JUMP JUMPDEST SWAP3 POP POP PUSH1 0x80 PUSH2 0x522 DUP9 DUP3 DUP10 ADD PUSH2 0x451 JUMP JUMPDEST SWAP2 POP POP SWAP3 SWAP6 POP SWAP3 SWAP6 SWAP1 SWAP4 POP JUMP JUMPDEST PUSH2 0x538 DUP2 PUSH2 0x7EC JUMP JUMPDEST DUP3 MSTORE POP POP JUMP JUMPDEST PUSH1 0x0 PUSH2 0x54B PUSH1 0x13 DUP4 PUSH2 0x5E3 JUMP JUMPDEST SWAP2 POP PUSH32 0x4469646E27742053656E6420656E6F7567682100000000000000000000000000 PUSH1 0x0 DUP4 ADD MSTORE PUSH1 0x20 DUP3 ADD SWAP1 POP SWAP2 SWAP1 POP JUMP JUMPDEST PUSH2 0x587 DUP2 PUSH2 0x828 JUMP JUMPDEST DUP3 MSTORE POP POP JUMP JUMPDEST PUSH1 0x0 PUSH1 0x20 DUP3 ADD SWAP1 POP PUSH2 0x5A2 PUSH1 0x0 DUP4 ADD DUP5 PUSH2 0x52F JUMP JUMPDEST SWAP3 SWAP2 POP POP JUMP JUMPDEST PUSH1 0x0 PUSH1 0x20 DUP3 ADD SWAP1 POP DUP2 DUP2 SUB PUSH1 0x0 DUP4 ADD MSTORE PUSH2 0x5C1 DUP2 PUSH2 0x53E JUMP JUMPDEST SWAP1 POP SWAP2 SWAP1 POP JUMP JUMPDEST PUSH1 0x0 PUSH1 0x20 DUP3 ADD SWAP1 POP PUSH2 0x5DD PUSH1 0x0 DUP4 ADD DUP5 PUSH2 0x57E JUMP JUMPDEST SWAP3 SWAP2 POP POP JUMP JUMPDEST PUSH1 0x0 DUP3 DUP3 MSTORE PUSH1 0x20 DUP3 ADD SWAP1 POP SWAP3 SWAP2 POP POP JUMP JUMPDEST PUSH1 0x0 PUSH2 0x5FF DUP3 PUSH2 0x828 JUMP JUMPDEST SWAP2 POP PUSH2 0x60A DUP4 PUSH2 0x828 JUMP JUMPDEST SWAP3 POP DUP3 PUSH32 0xFFFFFFFFFFFFFFFFFFFFFFFFFFFFFFFFFFFFFFFFFFFFFFFFFFFFFFFFFFFFFFFF SUB DUP3 GT ISZERO PUSH2 0x63F JUMPI PUSH2 0x63E PUSH2 0x891 JUMP JUMPDEST JUMPDEST DUP3 DUP3 ADD SWAP1 POP SWAP3 SWAP2 POP POP JUMP JUMPDEST PUSH1 0x0 PUSH2 0x655 DUP3 PUSH2 0x828 JUMP JUMPDEST SWAP2 POP PUSH2 0x660 DUP4 PUSH2 0x828 JUMP JUMPDEST SWAP3 POP DUP3 PUSH2 0x670 JUMPI PUSH2 0x66F PUSH2 0x8C0 JUMP JUMPDEST JUMPDEST DUP3 DUP3 DIV SWAP1 POP SWAP3 SWAP2 POP POP JUMP JUMPDEST PUSH1 0x0 PUSH2 0x686 DUP3 PUSH2 0x7FE JUMP JUMPDEST SWAP2 POP PUSH2 0x691 DUP4 PUSH2 0x7FE JUMP JUMPDEST SWAP3 POP DUP3 PUSH32 0x7FFFFFFFFFFFFFFFFFFFFFFFFFFFFFFFFFFFFFFFFFFFFFFFFFFFFFFFFFFFFFFF DIV DUP3 GT PUSH1 0x0 DUP5 SGT PUSH1 0x0 DUP5 SGT AND AND ISZERO PUSH2 0x6D0 JUMPI PUSH2 0x6CF PUSH2 0x891 JUMP JUMPDEST JUMPDEST DUP2 PUSH32 0x8000000000000000000000000000000000000000000000000000000000000000 SDIV DUP4 SLT PUSH1 0x0 DUP5 SLT PUSH1 0x0 DUP5 SGT AND AND ISZERO PUSH2 0x70D JUMPI PUSH2 0x70C PUSH2 0x891 JUMP JUMPDEST JUMPDEST DUP3 PUSH32 0x8000000000000000000000000000000000000000000000000000000000000000 SDIV DUP3 SLT PUSH1 0x0 DUP5 SGT PUSH1 0x0 DUP5 SLT AND AND ISZERO PUSH2 0x74A JUMPI PUSH2 0x749 PUSH2 0x891 JUMP JUMPDEST JUMPDEST DUP3 PUSH32 0x7FFFFFFFFFFFFFFFFFFFFFFFFFFFFFFFFFFFFFFFFFFFFFFFFFFFFFFFFFFFFFFF SDIV DUP3 SLT PUSH1 0x0 DUP5 SLT PUSH1 0x0 DUP5 SLT AND AND ISZERO PUSH2 0x787 JUMPI PUSH2 0x786 PUSH2 0x891 JUMP JUMPDEST JUMPDEST DUP3 DUP3 MUL SWAP1 POP SWAP3 SWAP2 POP POP JUMP JUMPDEST PUSH1 0x0 PUSH2 0x79D DUP3 PUSH2 0x828 JUMP JUMPDEST SWAP2 POP PUSH2 0x7A8 DUP4 PUSH2 0x828 JUMP JUMPDEST SWAP3 POP DUP2 PUSH32 0xFFFFFFFFFFFFFFFFFFFFFFFFFFFFFFFFFFFFFFFFFFFFFFFFFFFFFFFFFFFFFFFF DIV DUP4 GT DUP3 ISZERO ISZERO AND ISZERO PUSH2 0x7E1 JUMPI PUSH2 0x7E0 PUSH2 0x891 JUMP JUMPDEST JUMPDEST DUP3 DUP3 MUL SWAP1 POP SWAP3 SWAP2 POP POP JUMP JUMPDEST PUSH1 0x0 PUSH2 0x7F7 DUP3 PUSH2 0x808 JUMP JUMPDEST SWAP1 POP SWAP2 SWAP1 POP JUMP JUMPDEST PUSH1 0x0 DUP2 SWAP1 POP SWAP2 SWAP1 POP JUMP JUMPDEST PUSH1 0x0 PUSH20 0xFFFFFFFFFFFFFFFFFFFFFFFFFFFFFFFFFFFFFFFF DUP3 AND SWAP1 POP SWAP2 SWAP1 POP JUMP JUMPDEST PUSH1 0x0 DUP2 SWAP1 POP SWAP2 SWAP1 POP JUMP JUMPDEST PUSH1 0x0 PUSH10 0xFFFFFFFFFFFFFFFFFFFF DUP3 AND SWAP1 POP SWAP2 SWAP1 POP JUMP JUMPDEST PUSH1 0x0 PUSH2 0x853 DUP3 PUSH2 0x828 JUMP JUMPDEST SWAP2 POP PUSH32 0xFFFFFFFFFFFFFFFFFFFFFFFFFFFFFFFFFFFFFFFFFFFFFFFFFFFFFFFFFFFFFFFF DUP3 EQ ISZERO PUSH2 0x886 JUMPI PUSH2 0x885 PUSH2 0x891 JUMP JUMPDEST JUMPDEST PUSH1 0x1 DUP3 ADD SWAP1 POP SWAP2 SWAP1 POP JUMP JUMPDEST PUSH32 0x4E487B7100000000000000000000000000000000000000000000000000000000 PUSH1 0x0 MSTORE PUSH1 0x11 PUSH1 0x4 MSTORE PUSH1 0x24 PUSH1 0x0 REVERT JUMPDEST PUSH32 0x4E487B7100000000000000000000000000000000000000000000000000000000 PUSH1 0x0 MSTORE PUSH1 0x12 PUSH1 0x4 MSTORE PUSH1 0x24 PUSH1 0x0 REVERT JUMPDEST PUSH2 0x8F8 DUP2 PUSH2 0x7EC JUMP JUMPDEST DUP2 EQ PUSH2 0x903 JUMPI PUSH1 0x0 DUP1 REVERT JUMPDEST POP JUMP JUMPDEST PUSH2 0x90F DUP2 PUSH2 0x7FE JUMP JUMPDEST DUP2 EQ PUSH2 0x91A JUMPI PUSH1 0x0 DUP1 REVERT JUMPDEST POP JUMP JUMPDEST PUSH2 0x926 DUP2 PUSH2 0x828 JUMP JUMPDEST DUP2 EQ PUSH2 0x931 JUMPI PUSH1 0x0 DUP1 REVERT JUMPDEST POP JUMP JUMPDEST PUSH2 0x93D DUP2 PUSH2 0x832 JUMP JUMPDEST DUP2 EQ PUSH2 0x948 JUMPI PUSH1 0x0 DUP1 REVERT JUMPDEST POP JUMP INVALID LOG2 PUSH5 0x6970667358 0x22 SLT KECCAK256 CREATE2 SWAP11 0xAF 0xEB GT 0xC1 SWAP16 ORIGIN 0xB3 0xB8 0x29 PUSH28 0x26E86E3A937A79AAAD3189549A605643880FFAC364736F6C63430008 STOP STOP CALLER "
				},
				"gasEstimates": {
					"creation": {
						"codeDepositCost": "486600",
						"executionCost": "20530",
						"totalCost": "507130"
					},
					"external": {
						"addressToAmountFunded(address)": "1536",
						"fund()": "infinite",
						"funders(uint256)": "2422",
						"minimumUsd()": "1107",
						"withdraw()": "infinite"
					}
				},
				"methodIdentifiers": {
					"addressToAmountFunded(address)": "3e47d6f3",
					"fund()": "b60d4288",
					"funders(uint256)": "dc0d3dff",
					"minimumUsd()": "098de820",
					"withdraw()": "3ccfd60b"
				}
			},
			"storageLayout": {
				"storage": [
					{
						"astId": 56,
						"contract": "contracts/FundMe.sol:FundMe",
						"label": "minimumUsd",
						"offset": 0,
						"slot": "0",
						"type": "t_uint256"
					},
					{
						"astId": 59,
						"contract": "contracts/FundMe.sol:FundMe",
						"label": "funders",
						"offset": 0,
						"slot": "1",
						"type": "t_array(t_address)dyn_storage"
					},
					{
						"astId": 63,
						"contract": "contracts/FundMe.sol:FundMe",
						"label": "addressToAmountFunded",
						"offset": 0,
						"slot": "2",
						"type": "t_mapping(t_address,t_uint256)"
					}
				],
				"types": {
					"t_address": {
						"encoding": "inplace",
						"label": "address",
						"numberOfBytes": "20"
					},
					"t_array(t_address)dyn_storage": {
						"base": "t_address",
						"encoding": "dynamic_array",
						"label": "address[]",
						"numberOfBytes": "32"
					},
					"t_mapping(t_address,t_uint256)": {
						"encoding": "mapping",
						"key": "t_address",
						"label": "mapping(address => uint256)",
						"numberOfBytes": "32",
						"value": "t_uint256"
					},
					"t_uint256": {
						"encoding": "inplace",
						"label": "uint256",
						"numberOfBytes": "32"
					}
				}
			},
			"userdoc": {
				"kind": "user",
				"methods": {},
				"version": 1
			}
		}
	}
}