{
	"contracts/FundMe.sol": {
		"FundMe": {
			"abi": [
				{
					"inputs": [],
					"name": "fund",
					"outputs": [],
					"stateMutability": "payable",
					"type": "function"
				},
				{
					"inputs": [],
					"name": "getConversionRate",
					"outputs": [],
					"stateMutability": "nonpayable",
					"type": "function"
				},
				{
					"inputs": [],
					"name": "getPrice",
					"outputs": [
						{
							"internalType": "uint256",
							"name": "",
							"type": "uint256"
						}
					],
					"stateMutability": "view",
					"type": "function"
				},
				{
					"inputs": [],
					"name": "getVersion",
					"outputs": [
						{
							"internalType": "uint256",
							"name": "",
							"type": "uint256"
						}
					],
					"stateMutability": "view",
					"type": "function"
				},
				{
					"inputs": [],
					"name": "minimumUsd",
					"outputs": [
						{
							"internalType": "uint256",
							"name": "",
							"type": "uint256"
						}
					],
					"stateMutability": "view",
					"type": "function"
				}
			],
			"devdoc": {
				"kind": "dev",
				"methods": {},
				"version": 1
			},
			"evm": {
				"assembly": "    /* \"contracts/FundMe.sol\":256:1296  contract FundMe {... */\n  mstore(0x40, 0x80)\n    /* \"contracts/FundMe.sol\":313:315  50 */\n  0x32\n    /* \"contracts/FundMe.sol\":285:315  uint256 public minimumUsd = 50 */\n  0x00\n  sstore\n    /* \"contracts/FundMe.sol\":256:1296  contract FundMe {... */\n  callvalue\n  dup1\n  iszero\n  tag_1\n  jumpi\n  0x00\n  dup1\n  revert\ntag_1:\n  pop\n  dataSize(sub_0)\n  dup1\n  dataOffset(sub_0)\n  0x00\n  codecopy\n  0x00\n  return\nstop\n\nsub_0: assembly {\n        /* \"contracts/FundMe.sol\":256:1296  contract FundMe {... */\n      mstore(0x40, 0x80)\n      jumpi(tag_1, lt(calldatasize, 0x04))\n      shr(0xe0, calldataload(0x00))\n      dup1\n      0x098de820\n      eq\n      tag_2\n      jumpi\n      dup1\n      0x0d8e6e2c\n      eq\n      tag_3\n      jumpi\n      dup1\n      0x98d5fdca\n      eq\n      tag_4\n      jumpi\n      dup1\n      0xb60d4288\n      eq\n      tag_5\n      jumpi\n      dup1\n      0xf36089ec\n      eq\n      tag_6\n      jumpi\n    tag_1:\n      0x00\n      dup1\n      revert\n        /* \"contracts/FundMe.sol\":285:315  uint256 public minimumUsd = 50 */\n    tag_2:\n      callvalue\n      dup1\n      iszero\n      tag_7\n      jumpi\n      0x00\n      dup1\n      revert\n    tag_7:\n      pop\n      tag_8\n      tag_9\n      jump\t// in\n    tag_8:\n      mload(0x40)\n      tag_10\n      swap2\n      swap1\n      tag_11\n      jump\t// in\n    tag_10:\n      mload(0x40)\n      dup1\n      swap2\n      sub\n      swap1\n      return\n        /* \"contracts/FundMe.sol\":1038:1245  function getVersion() public view returns (uint256) {... */\n    tag_3:\n      callvalue\n      dup1\n      iszero\n      tag_12\n      jumpi\n      0x00\n      dup1\n      revert\n    tag_12:\n      pop\n      tag_13\n      tag_14\n      jump\t// in\n    tag_13:\n      mload(0x40)\n      tag_15\n      swap2\n      swap1\n      tag_11\n      jump\t// in\n    tag_15:\n      mload(0x40)\n      dup1\n      swap2\n      sub\n      swap1\n      return\n        /* \"contracts/FundMe.sol\":546:1030  function getPrice() public view returns(uint256) {... */\n    tag_4:\n      callvalue\n      dup1\n      iszero\n      tag_16\n      jumpi\n      0x00\n      dup1\n      revert\n    tag_16:\n      pop\n      tag_17\n      tag_18\n      jump\t// in\n    tag_17:\n      mload(0x40)\n      tag_19\n      swap2\n      swap1\n      tag_11\n      jump\t// in\n    tag_19:\n      mload(0x40)\n      dup1\n      swap2\n      sub\n      swap1\n      return\n        /* \"contracts/FundMe.sol\":324:540  function fund() public payable{... */\n    tag_5:\n      tag_20\n      tag_21\n      jump\t// in\n    tag_20:\n      stop\n        /* \"contracts/FundMe.sol\":1253:1291  function getConversionRate() public {} */\n    tag_6:\n      callvalue\n      dup1\n      iszero\n      tag_22\n      jumpi\n      0x00\n      dup1\n      revert\n    tag_22:\n      pop\n      tag_23\n      tag_24\n      jump\t// in\n    tag_23:\n      stop\n        /* \"contracts/FundMe.sol\":285:315  uint256 public minimumUsd = 50 */\n    tag_9:\n      sload(0x00)\n      dup2\n      jump\t// out\n        /* \"contracts/FundMe.sol\":1038:1245  function getVersion() public view returns (uint256) {... */\n    tag_14:\n        /* \"contracts/FundMe.sol\":1081:1088  uint256 */\n      0x00\n        /* \"contracts/FundMe.sol\":1101:1132  AggregatorV3Interface priceFeed */\n      dup1\n        /* \"contracts/FundMe.sol\":1157:1199  0xD4a33860578De61DBAbDc8BFdb98FD742fA7028e */\n      0xd4a33860578de61dbabdc8bfdb98fd742fa7028e\n        /* \"contracts/FundMe.sol\":1101:1200  AggregatorV3Interface priceFeed = AggregatorV3Interface(0xD4a33860578De61DBAbDc8BFdb98FD742fA7028e) */\n      swap1\n      pop\n        /* \"contracts/FundMe.sol\":1218:1227  priceFeed */\n      dup1\n        /* \"contracts/FundMe.sol\":1218:1235  priceFeed.version */\n      0xffffffffffffffffffffffffffffffffffffffff\n      and\n      0x54fd4d50\n        /* \"contracts/FundMe.sol\":1218:1237  priceFeed.version() */\n      mload(0x40)\n      dup2\n      0xffffffff\n      and\n      0xe0\n      shl\n      dup2\n      mstore\n      0x04\n      add\n      0x20\n      mload(0x40)\n      dup1\n      dup4\n      sub\n      dup2\n      dup7\n      dup1\n      extcodesize\n      iszero\n      dup1\n      iszero\n      tag_26\n      jumpi\n      0x00\n      dup1\n      revert\n    tag_26:\n      pop\n      gas\n      staticcall\n      iszero\n      dup1\n      iszero\n      tag_28\n      jumpi\n      returndatasize\n      0x00\n      dup1\n      returndatacopy\n      revert(0x00, returndatasize)\n    tag_28:\n      pop\n      pop\n      pop\n      pop\n      mload(0x40)\n      returndatasize\n      not(0x1f)\n      0x1f\n      dup3\n      add\n      and\n      dup3\n      add\n      dup1\n      0x40\n      mstore\n      pop\n      dup2\n      add\n      swap1\n      tag_29\n      swap2\n      swap1\n      tag_30\n      jump\t// in\n    tag_29:\n        /* \"contracts/FundMe.sol\":1211:1237  return priceFeed.version() */\n      swap2\n      pop\n      pop\n        /* \"contracts/FundMe.sol\":1038:1245  function getVersion() public view returns (uint256) {... */\n      swap1\n      jump\t// out\n        /* \"contracts/FundMe.sol\":546:1030  function getPrice() public view returns(uint256) {... */\n    tag_18:\n        /* \"contracts/FundMe.sol\":586:593  uint256 */\n      0x00\n        /* \"contracts/FundMe.sol\":684:715  AggregatorV3Interface priceFeed */\n      dup1\n        /* \"contracts/FundMe.sol\":740:782  0xD4a33860578De61DBAbDc8BFdb98FD742fA7028e */\n      0xd4a33860578de61dbabdc8bfdb98fd742fa7028e\n        /* \"contracts/FundMe.sol\":684:783  AggregatorV3Interface priceFeed = AggregatorV3Interface(0xD4a33860578De61DBAbDc8BFdb98FD742fA7028e) */\n      swap1\n      pop\n        /* \"contracts/FundMe.sol\":798:810  int256 price */\n      0x00\n        /* \"contracts/FundMe.sol\":820:829  priceFeed */\n      dup2\n        /* \"contracts/FundMe.sol\":820:845  priceFeed.latestRoundData */\n      0xffffffffffffffffffffffffffffffffffffffff\n      and\n      0xfeaf968c\n        /* \"contracts/FundMe.sol\":820:847  priceFeed.latestRoundData() */\n      mload(0x40)\n      dup2\n      0xffffffff\n      and\n      0xe0\n      shl\n      dup2\n      mstore\n      0x04\n      add\n      0xa0\n      mload(0x40)\n      dup1\n      dup4\n      sub\n      dup2\n      dup7\n      dup1\n      extcodesize\n      iszero\n      dup1\n      iszero\n      tag_32\n      jumpi\n      0x00\n      dup1\n      revert\n    tag_32:\n      pop\n      gas\n      staticcall\n      iszero\n      dup1\n      iszero\n      tag_34\n      jumpi\n      returndatasize\n      0x00\n      dup1\n      returndatacopy\n      revert(0x00, returndatasize)\n    tag_34:\n      pop\n      pop\n      pop\n      pop\n      mload(0x40)\n      returndatasize\n      not(0x1f)\n      0x1f\n      dup3\n      add\n      and\n      dup3\n      add\n      dup1\n      0x40\n      mstore\n      pop\n      dup2\n      add\n      swap1\n      tag_35\n      swap2\n      swap1\n      tag_36\n      jump\t// in\n    tag_35:\n        /* \"contracts/FundMe.sol\":795:847  (, int256 price, , , ) = priceFeed.latestRoundData() */\n      pop\n      pop\n      pop\n      swap2\n      pop\n      pop\n        /* \"contracts/FundMe.sol\":984:988  1e10 */\n      0x02540be400\n        /* \"contracts/FundMe.sol\":976:981  price */\n      dup2\n        /* \"contracts/FundMe.sol\":976:988  price * 1e10 */\n      tag_37\n      swap2\n      swap1\n      tag_38\n      jump\t// in\n    tag_37:\n        /* \"contracts/FundMe.sol\":960:989  return uint256 (price * 1e10) */\n      swap3\n      pop\n      pop\n      pop\n        /* \"contracts/FundMe.sol\":546:1030  function getPrice() public view returns(uint256) {... */\n      swap1\n      jump\t// out\n        /* \"contracts/FundMe.sol\":324:540  function fund() public payable{... */\n    tag_21:\n        /* \"contracts/FundMe.sol\":473:483  minimumUsd */\n      sload(0x00)\n        /* \"contracts/FundMe.sol\":461:470  msg.value */\n      callvalue\n        /* \"contracts/FundMe.sol\":461:483  msg.value > minimumUsd */\n      gt\n        /* \"contracts/FundMe.sol\":453:507  require(msg.value > minimumUsd, \"Didn't Send enough!\") */\n      tag_40\n      jumpi\n      mload(0x40)\n      0x08c379a000000000000000000000000000000000000000000000000000000000\n      dup2\n      mstore\n      0x04\n      add\n      tag_41\n      swap1\n      tag_42\n      jump\t// in\n    tag_41:\n      mload(0x40)\n      dup1\n      swap2\n      sub\n      swap1\n      revert\n    tag_40:\n        /* \"contracts/FundMe.sol\":324:540  function fund() public payable{... */\n      jump\t// out\n        /* \"contracts/FundMe.sol\":1253:1291  function getConversionRate() public {} */\n    tag_24:\n      jump\t// out\n        /* \"#utility.yul\":7:84   */\n    tag_44:\n        /* \"#utility.yul\":44:51   */\n      0x00\n        /* \"#utility.yul\":73:78   */\n      dup2\n        /* \"#utility.yul\":62:78   */\n      swap1\n      pop\n        /* \"#utility.yul\":7:84   */\n      swap2\n      swap1\n      pop\n      jump\t// out\n        /* \"#utility.yul\":90:208   */\n    tag_45:\n        /* \"#utility.yul\":177:201   */\n      tag_64\n        /* \"#utility.yul\":195:200   */\n      dup2\n        /* \"#utility.yul\":177:201   */\n      tag_44\n      jump\t// in\n    tag_64:\n        /* \"#utility.yul\":172:175   */\n      dup3\n        /* \"#utility.yul\":165:202   */\n      mstore\n        /* \"#utility.yul\":90:208   */\n      pop\n      pop\n      jump\t// out\n        /* \"#utility.yul\":214:436   */\n    tag_11:\n        /* \"#utility.yul\":307:311   */\n      0x00\n        /* \"#utility.yul\":345:347   */\n      0x20\n        /* \"#utility.yul\":334:343   */\n      dup3\n        /* \"#utility.yul\":330:348   */\n      add\n        /* \"#utility.yul\":322:348   */\n      swap1\n      pop\n        /* \"#utility.yul\":358:429   */\n      tag_66\n        /* \"#utility.yul\":426:427   */\n      0x00\n        /* \"#utility.yul\":415:424   */\n      dup4\n        /* \"#utility.yul\":411:428   */\n      add\n        /* \"#utility.yul\":402:408   */\n      dup5\n        /* \"#utility.yul\":358:429   */\n      tag_45\n      jump\t// in\n    tag_66:\n        /* \"#utility.yul\":214:436   */\n      swap3\n      swap2\n      pop\n      pop\n      jump\t// out\n        /* \"#utility.yul\":523:640   */\n    tag_47:\n        /* \"#utility.yul\":632:633   */\n      0x00\n        /* \"#utility.yul\":629:630   */\n      dup1\n        /* \"#utility.yul\":622:634   */\n      revert\n        /* \"#utility.yul\":769:891   */\n    tag_49:\n        /* \"#utility.yul\":842:866   */\n      tag_71\n        /* \"#utility.yul\":860:865   */\n      dup2\n        /* \"#utility.yul\":842:866   */\n      tag_44\n      jump\t// in\n    tag_71:\n        /* \"#utility.yul\":835:840   */\n      dup2\n        /* \"#utility.yul\":832:867   */\n      eq\n        /* \"#utility.yul\":822:885   */\n      tag_72\n      jumpi\n        /* \"#utility.yul\":881:882   */\n      0x00\n        /* \"#utility.yul\":878:879   */\n      dup1\n        /* \"#utility.yul\":871:883   */\n      revert\n        /* \"#utility.yul\":822:885   */\n    tag_72:\n        /* \"#utility.yul\":769:891   */\n      pop\n      jump\t// out\n        /* \"#utility.yul\":897:1040   */\n    tag_50:\n        /* \"#utility.yul\":954:959   */\n      0x00\n        /* \"#utility.yul\":985:991   */\n      dup2\n        /* \"#utility.yul\":979:992   */\n      mload\n        /* \"#utility.yul\":970:992   */\n      swap1\n      pop\n        /* \"#utility.yul\":1001:1034   */\n      tag_74\n        /* \"#utility.yul\":1028:1033   */\n      dup2\n        /* \"#utility.yul\":1001:1034   */\n      tag_49\n      jump\t// in\n    tag_74:\n        /* \"#utility.yul\":897:1040   */\n      swap3\n      swap2\n      pop\n      pop\n      jump\t// out\n        /* \"#utility.yul\":1046:1397   */\n    tag_30:\n        /* \"#utility.yul\":1116:1122   */\n      0x00\n        /* \"#utility.yul\":1165:1167   */\n      0x20\n        /* \"#utility.yul\":1153:1162   */\n      dup3\n        /* \"#utility.yul\":1144:1151   */\n      dup5\n        /* \"#utility.yul\":1140:1163   */\n      sub\n        /* \"#utility.yul\":1136:1168   */\n      slt\n        /* \"#utility.yul\":1133:1252   */\n      iszero\n      tag_76\n      jumpi\n        /* \"#utility.yul\":1171:1250   */\n      tag_77\n      tag_47\n      jump\t// in\n    tag_77:\n        /* \"#utility.yul\":1133:1252   */\n    tag_76:\n        /* \"#utility.yul\":1291:1292   */\n      0x00\n        /* \"#utility.yul\":1316:1380   */\n      tag_78\n        /* \"#utility.yul\":1372:1379   */\n      dup5\n        /* \"#utility.yul\":1363:1369   */\n      dup3\n        /* \"#utility.yul\":1352:1361   */\n      dup6\n        /* \"#utility.yul\":1348:1370   */\n      add\n        /* \"#utility.yul\":1316:1380   */\n      tag_50\n      jump\t// in\n    tag_78:\n        /* \"#utility.yul\":1306:1380   */\n      swap2\n      pop\n        /* \"#utility.yul\":1262:1390   */\n      pop\n        /* \"#utility.yul\":1046:1397   */\n      swap3\n      swap2\n      pop\n      pop\n      jump\t// out\n        /* \"#utility.yul\":1403:1508   */\n    tag_51:\n        /* \"#utility.yul\":1439:1446   */\n      0x00\n        /* \"#utility.yul\":1479:1501   */\n      0xffffffffffffffffffff\n        /* \"#utility.yul\":1472:1477   */\n      dup3\n        /* \"#utility.yul\":1468:1502   */\n      and\n        /* \"#utility.yul\":1457:1502   */\n      swap1\n      pop\n        /* \"#utility.yul\":1403:1508   */\n      swap2\n      swap1\n      pop\n      jump\t// out\n        /* \"#utility.yul\":1514:1634   */\n    tag_52:\n        /* \"#utility.yul\":1586:1609   */\n      tag_81\n        /* \"#utility.yul\":1603:1608   */\n      dup2\n        /* \"#utility.yul\":1586:1609   */\n      tag_51\n      jump\t// in\n    tag_81:\n        /* \"#utility.yul\":1579:1584   */\n      dup2\n        /* \"#utility.yul\":1576:1610   */\n      eq\n        /* \"#utility.yul\":1566:1628   */\n      tag_82\n      jumpi\n        /* \"#utility.yul\":1624:1625   */\n      0x00\n        /* \"#utility.yul\":1621:1622   */\n      dup1\n        /* \"#utility.yul\":1614:1626   */\n      revert\n        /* \"#utility.yul\":1566:1628   */\n    tag_82:\n        /* \"#utility.yul\":1514:1634   */\n      pop\n      jump\t// out\n        /* \"#utility.yul\":1640:1781   */\n    tag_53:\n        /* \"#utility.yul\":1696:1701   */\n      0x00\n        /* \"#utility.yul\":1727:1733   */\n      dup2\n        /* \"#utility.yul\":1721:1734   */\n      mload\n        /* \"#utility.yul\":1712:1734   */\n      swap1\n      pop\n        /* \"#utility.yul\":1743:1775   */\n      tag_84\n        /* \"#utility.yul\":1769:1774   */\n      dup2\n        /* \"#utility.yul\":1743:1775   */\n      tag_52\n      jump\t// in\n    tag_84:\n        /* \"#utility.yul\":1640:1781   */\n      swap3\n      swap2\n      pop\n      pop\n      jump\t// out\n        /* \"#utility.yul\":1787:1863   */\n    tag_54:\n        /* \"#utility.yul\":1823:1830   */\n      0x00\n        /* \"#utility.yul\":1852:1857   */\n      dup2\n        /* \"#utility.yul\":1841:1857   */\n      swap1\n      pop\n        /* \"#utility.yul\":1787:1863   */\n      swap2\n      swap1\n      pop\n      jump\t// out\n        /* \"#utility.yul\":1869:1989   */\n    tag_55:\n        /* \"#utility.yul\":1941:1964   */\n      tag_87\n        /* \"#utility.yul\":1958:1963   */\n      dup2\n        /* \"#utility.yul\":1941:1964   */\n      tag_54\n      jump\t// in\n    tag_87:\n        /* \"#utility.yul\":1934:1939   */\n      dup2\n        /* \"#utility.yul\":1931:1965   */\n      eq\n        /* \"#utility.yul\":1921:1983   */\n      tag_88\n      jumpi\n        /* \"#utility.yul\":1979:1980   */\n      0x00\n        /* \"#utility.yul\":1976:1977   */\n      dup1\n        /* \"#utility.yul\":1969:1981   */\n      revert\n        /* \"#utility.yul\":1921:1983   */\n    tag_88:\n        /* \"#utility.yul\":1869:1989   */\n      pop\n      jump\t// out\n        /* \"#utility.yul\":1995:2136   */\n    tag_56:\n        /* \"#utility.yul\":2051:2056   */\n      0x00\n        /* \"#utility.yul\":2082:2088   */\n      dup2\n        /* \"#utility.yul\":2076:2089   */\n      mload\n        /* \"#utility.yul\":2067:2089   */\n      swap1\n      pop\n        /* \"#utility.yul\":2098:2130   */\n      tag_90\n        /* \"#utility.yul\":2124:2129   */\n      dup2\n        /* \"#utility.yul\":2098:2130   */\n      tag_55\n      jump\t// in\n    tag_90:\n        /* \"#utility.yul\":1995:2136   */\n      swap3\n      swap2\n      pop\n      pop\n      jump\t// out\n        /* \"#utility.yul\":2142:3113   */\n    tag_36:\n        /* \"#utility.yul\":2245:2251   */\n      0x00\n        /* \"#utility.yul\":2253:2259   */\n      dup1\n        /* \"#utility.yul\":2261:2267   */\n      0x00\n        /* \"#utility.yul\":2269:2275   */\n      dup1\n        /* \"#utility.yul\":2277:2283   */\n      0x00\n        /* \"#utility.yul\":2326:2329   */\n      0xa0\n        /* \"#utility.yul\":2314:2323   */\n      dup7\n        /* \"#utility.yul\":2305:2312   */\n      dup9\n        /* \"#utility.yul\":2301:2324   */\n      sub\n        /* \"#utility.yul\":2297:2330   */\n      slt\n        /* \"#utility.yul\":2294:2414   */\n      iszero\n      tag_92\n      jumpi\n        /* \"#utility.yul\":2333:2412   */\n      tag_93\n      tag_47\n      jump\t// in\n    tag_93:\n        /* \"#utility.yul\":2294:2414   */\n    tag_92:\n        /* \"#utility.yul\":2453:2454   */\n      0x00\n        /* \"#utility.yul\":2478:2541   */\n      tag_94\n        /* \"#utility.yul\":2533:2540   */\n      dup9\n        /* \"#utility.yul\":2524:2530   */\n      dup3\n        /* \"#utility.yul\":2513:2522   */\n      dup10\n        /* \"#utility.yul\":2509:2531   */\n      add\n        /* \"#utility.yul\":2478:2541   */\n      tag_53\n      jump\t// in\n    tag_94:\n        /* \"#utility.yul\":2468:2541   */\n      swap6\n      pop\n        /* \"#utility.yul\":2424:2551   */\n      pop\n        /* \"#utility.yul\":2590:2592   */\n      0x20\n        /* \"#utility.yul\":2616:2679   */\n      tag_95\n        /* \"#utility.yul\":2671:2678   */\n      dup9\n        /* \"#utility.yul\":2662:2668   */\n      dup3\n        /* \"#utility.yul\":2651:2660   */\n      dup10\n        /* \"#utility.yul\":2647:2669   */\n      add\n        /* \"#utility.yul\":2616:2679   */\n      tag_56\n      jump\t// in\n    tag_95:\n        /* \"#utility.yul\":2606:2679   */\n      swap5\n      pop\n        /* \"#utility.yul\":2561:2689   */\n      pop\n        /* \"#utility.yul\":2728:2730   */\n      0x40\n        /* \"#utility.yul\":2754:2818   */\n      tag_96\n        /* \"#utility.yul\":2810:2817   */\n      dup9\n        /* \"#utility.yul\":2801:2807   */\n      dup3\n        /* \"#utility.yul\":2790:2799   */\n      dup10\n        /* \"#utility.yul\":2786:2808   */\n      add\n        /* \"#utility.yul\":2754:2818   */\n      tag_50\n      jump\t// in\n    tag_96:\n        /* \"#utility.yul\":2744:2818   */\n      swap4\n      pop\n        /* \"#utility.yul\":2699:2828   */\n      pop\n        /* \"#utility.yul\":2867:2869   */\n      0x60\n        /* \"#utility.yul\":2893:2957   */\n      tag_97\n        /* \"#utility.yul\":2949:2956   */\n      dup9\n        /* \"#utility.yul\":2940:2946   */\n      dup3\n        /* \"#utility.yul\":2929:2938   */\n      dup10\n        /* \"#utility.yul\":2925:2947   */\n      add\n        /* \"#utility.yul\":2893:2957   */\n      tag_50\n      jump\t// in\n    tag_97:\n        /* \"#utility.yul\":2883:2957   */\n      swap3\n      pop\n        /* \"#utility.yul\":2838:2967   */\n      pop\n        /* \"#utility.yul\":3006:3009   */\n      0x80\n        /* \"#utility.yul\":3033:3096   */\n      tag_98\n        /* \"#utility.yul\":3088:3095   */\n      dup9\n        /* \"#utility.yul\":3079:3085   */\n      dup3\n        /* \"#utility.yul\":3068:3077   */\n      dup10\n        /* \"#utility.yul\":3064:3086   */\n      add\n        /* \"#utility.yul\":3033:3096   */\n      tag_53\n      jump\t// in\n    tag_98:\n        /* \"#utility.yul\":3023:3096   */\n      swap2\n      pop\n        /* \"#utility.yul\":2977:3106   */\n      pop\n        /* \"#utility.yul\":2142:3113   */\n      swap3\n      swap6\n      pop\n      swap3\n      swap6\n      swap1\n      swap4\n      pop\n      jump\t// out\n        /* \"#utility.yul\":3119:3299   */\n    tag_57:\n        /* \"#utility.yul\":3167:3244   */\n      0x4e487b7100000000000000000000000000000000000000000000000000000000\n        /* \"#utility.yul\":3164:3165   */\n      0x00\n        /* \"#utility.yul\":3157:3245   */\n      mstore\n        /* \"#utility.yul\":3264:3268   */\n      0x11\n        /* \"#utility.yul\":3261:3262   */\n      0x04\n        /* \"#utility.yul\":3254:3269   */\n      mstore\n        /* \"#utility.yul\":3288:3292   */\n      0x24\n        /* \"#utility.yul\":3285:3286   */\n      0x00\n        /* \"#utility.yul\":3278:3293   */\n      revert\n        /* \"#utility.yul\":3305:4296   */\n    tag_38:\n        /* \"#utility.yul\":3344:3351   */\n      0x00\n        /* \"#utility.yul\":3367:3386   */\n      tag_101\n        /* \"#utility.yul\":3384:3385   */\n      dup3\n        /* \"#utility.yul\":3367:3386   */\n      tag_54\n      jump\t// in\n    tag_101:\n        /* \"#utility.yul\":3362:3386   */\n      swap2\n      pop\n        /* \"#utility.yul\":3400:3419   */\n      tag_102\n        /* \"#utility.yul\":3417:3418   */\n      dup4\n        /* \"#utility.yul\":3400:3419   */\n      tag_54\n      jump\t// in\n    tag_102:\n        /* \"#utility.yul\":3395:3419   */\n      swap3\n      pop\n        /* \"#utility.yul\":3601:3602   */\n      dup3\n        /* \"#utility.yul\":3533:3599   */\n      0x7fffffffffffffffffffffffffffffffffffffffffffffffffffffffffffffff\n        /* \"#utility.yul\":3529:3603   */\n      div\n        /* \"#utility.yul\":3526:3527   */\n      dup3\n        /* \"#utility.yul\":3523:3604   */\n      gt\n        /* \"#utility.yul\":3518:3519   */\n      0x00\n        /* \"#utility.yul\":3515:3516   */\n      dup5\n        /* \"#utility.yul\":3511:3520   */\n      sgt\n        /* \"#utility.yul\":3507:3508   */\n      0x00\n        /* \"#utility.yul\":3504:3505   */\n      dup5\n        /* \"#utility.yul\":3500:3509   */\n      sgt\n        /* \"#utility.yul\":3496:3521   */\n      and\n        /* \"#utility.yul\":3492:3605   */\n      and\n        /* \"#utility.yul\":3489:3628   */\n      iszero\n      tag_103\n      jumpi\n        /* \"#utility.yul\":3608:3626   */\n      tag_104\n      tag_57\n      jump\t// in\n    tag_104:\n        /* \"#utility.yul\":3489:3628   */\n    tag_103:\n        /* \"#utility.yul\":3812:3813   */\n      dup2\n        /* \"#utility.yul\":3744:3810   */\n      0x8000000000000000000000000000000000000000000000000000000000000000\n        /* \"#utility.yul\":3739:3814   */\n      sdiv\n        /* \"#utility.yul\":3736:3737   */\n      dup4\n        /* \"#utility.yul\":3732:3815   */\n      slt\n        /* \"#utility.yul\":3727:3728   */\n      0x00\n        /* \"#utility.yul\":3724:3725   */\n      dup5\n        /* \"#utility.yul\":3720:3729   */\n      slt\n        /* \"#utility.yul\":3716:3717   */\n      0x00\n        /* \"#utility.yul\":3713:3714   */\n      dup5\n        /* \"#utility.yul\":3709:3718   */\n      sgt\n        /* \"#utility.yul\":3705:3730   */\n      and\n        /* \"#utility.yul\":3701:3816   */\n      and\n        /* \"#utility.yul\":3698:3839   */\n      iszero\n      tag_105\n      jumpi\n        /* \"#utility.yul\":3819:3837   */\n      tag_106\n      tag_57\n      jump\t// in\n    tag_106:\n        /* \"#utility.yul\":3698:3839   */\n    tag_105:\n        /* \"#utility.yul\":4023:4024   */\n      dup3\n        /* \"#utility.yul\":3955:4021   */\n      0x8000000000000000000000000000000000000000000000000000000000000000\n        /* \"#utility.yul\":3950:4025   */\n      sdiv\n        /* \"#utility.yul\":3947:3948   */\n      dup3\n        /* \"#utility.yul\":3943:4026   */\n      slt\n        /* \"#utility.yul\":3938:3939   */\n      0x00\n        /* \"#utility.yul\":3935:3936   */\n      dup5\n        /* \"#utility.yul\":3931:3940   */\n      sgt\n        /* \"#utility.yul\":3927:3928   */\n      0x00\n        /* \"#utility.yul\":3924:3925   */\n      dup5\n        /* \"#utility.yul\":3920:3929   */\n      slt\n        /* \"#utility.yul\":3916:3941   */\n      and\n        /* \"#utility.yul\":3912:4027   */\n      and\n        /* \"#utility.yul\":3909:4050   */\n      iszero\n      tag_107\n      jumpi\n        /* \"#utility.yul\":4030:4048   */\n      tag_108\n      tag_57\n      jump\t// in\n    tag_108:\n        /* \"#utility.yul\":3909:4050   */\n    tag_107:\n        /* \"#utility.yul\":4233:4234   */\n      dup3\n        /* \"#utility.yul\":4165:4231   */\n      0x7fffffffffffffffffffffffffffffffffffffffffffffffffffffffffffffff\n        /* \"#utility.yul\":4160:4235   */\n      sdiv\n        /* \"#utility.yul\":4157:4158   */\n      dup3\n        /* \"#utility.yul\":4153:4236   */\n      slt\n        /* \"#utility.yul\":4148:4149   */\n      0x00\n        /* \"#utility.yul\":4145:4146   */\n      dup5\n        /* \"#utility.yul\":4141:4150   */\n      slt\n        /* \"#utility.yul\":4137:4138   */\n      0x00\n        /* \"#utility.yul\":4134:4135   */\n      dup5\n        /* \"#utility.yul\":4130:4139   */\n      slt\n        /* \"#utility.yul\":4126:4151   */\n      and\n        /* \"#utility.yul\":4122:4237   */\n      and\n        /* \"#utility.yul\":4119:4260   */\n      iszero\n      tag_109\n      jumpi\n        /* \"#utility.yul\":4240:4258   */\n      tag_110\n      tag_57\n      jump\t// in\n    tag_110:\n        /* \"#utility.yul\":4119:4260   */\n    tag_109:\n        /* \"#utility.yul\":4288:4289   */\n      dup3\n        /* \"#utility.yul\":4285:4286   */\n      dup3\n        /* \"#utility.yul\":4281:4290   */\n      mul\n        /* \"#utility.yul\":4270:4290   */\n      swap1\n      pop\n        /* \"#utility.yul\":3305:4296   */\n      swap3\n      swap2\n      pop\n      pop\n      jump\t// out\n        /* \"#utility.yul\":4302:4471   */\n    tag_58:\n        /* \"#utility.yul\":4386:4397   */\n      0x00\n        /* \"#utility.yul\":4420:4426   */\n      dup3\n        /* \"#utility.yul\":4415:4418   */\n      dup3\n        /* \"#utility.yul\":4408:4427   */\n      mstore\n        /* \"#utility.yul\":4460:4464   */\n      0x20\n        /* \"#utility.yul\":4455:4458   */\n      dup3\n        /* \"#utility.yul\":4451:4465   */\n      add\n        /* \"#utility.yul\":4436:4465   */\n      swap1\n      pop\n        /* \"#utility.yul\":4302:4471   */\n      swap3\n      swap2\n      pop\n      pop\n      jump\t// out\n        /* \"#utility.yul\":4477:4646   */\n    tag_59:\n        /* \"#utility.yul\":4617:4638   */\n      0x4469646e27742053656e6420656e6f7567682100000000000000000000000000\n        /* \"#utility.yul\":4613:4614   */\n      0x00\n        /* \"#utility.yul\":4605:4611   */\n      dup3\n        /* \"#utility.yul\":4601:4615   */\n      add\n        /* \"#utility.yul\":4594:4639   */\n      mstore\n        /* \"#utility.yul\":4477:4646   */\n      pop\n      jump\t// out\n        /* \"#utility.yul\":4652:5018   */\n    tag_60:\n        /* \"#utility.yul\":4794:4797   */\n      0x00\n        /* \"#utility.yul\":4815:4882   */\n      tag_114\n        /* \"#utility.yul\":4879:4881   */\n      0x13\n        /* \"#utility.yul\":4874:4877   */\n      dup4\n        /* \"#utility.yul\":4815:4882   */\n      tag_58\n      jump\t// in\n    tag_114:\n        /* \"#utility.yul\":4808:4882   */\n      swap2\n      pop\n        /* \"#utility.yul\":4891:4984   */\n      tag_115\n        /* \"#utility.yul\":4980:4983   */\n      dup3\n        /* \"#utility.yul\":4891:4984   */\n      tag_59\n      jump\t// in\n    tag_115:\n        /* \"#utility.yul\":5009:5011   */\n      0x20\n        /* \"#utility.yul\":5004:5007   */\n      dup3\n        /* \"#utility.yul\":5000:5012   */\n      add\n        /* \"#utility.yul\":4993:5012   */\n      swap1\n      pop\n        /* \"#utility.yul\":4652:5018   */\n      swap2\n      swap1\n      pop\n      jump\t// out\n        /* \"#utility.yul\":5024:5443   */\n    tag_42:\n        /* \"#utility.yul\":5190:5194   */\n      0x00\n        /* \"#utility.yul\":5228:5230   */\n      0x20\n        /* \"#utility.yul\":5217:5226   */\n      dup3\n        /* \"#utility.yul\":5213:5231   */\n      add\n        /* \"#utility.yul\":5205:5231   */\n      swap1\n      pop\n        /* \"#utility.yul\":5277:5286   */\n      dup2\n        /* \"#utility.yul\":5271:5275   */\n      dup2\n        /* \"#utility.yul\":5267:5287   */\n      sub\n        /* \"#utility.yul\":5263:5264   */\n      0x00\n        /* \"#utility.yul\":5252:5261   */\n      dup4\n        /* \"#utility.yul\":5248:5265   */\n      add\n        /* \"#utility.yul\":5241:5288   */\n      mstore\n        /* \"#utility.yul\":5305:5436   */\n      tag_117\n        /* \"#utility.yul\":5431:5435   */\n      dup2\n        /* \"#utility.yul\":5305:5436   */\n      tag_60\n      jump\t// in\n    tag_117:\n        /* \"#utility.yul\":5297:5436   */\n      swap1\n      pop\n        /* \"#utility.yul\":5024:5443   */\n      swap2\n      swap1\n      pop\n      jump\t// out\n\n    auxdata: 0xa2646970667358221220dc1c7cf5666194551b46c4daef48bb39e091ba45ef330cd835656bc7132fbf5c64736f6c63430008080033\n}\n",
				"bytecode": {
					"linkReferences": {},
					"object": "6080604052603260005534801561001557600080fd5b50610613806100256000396000f3fe60806040526004361061004a5760003560e01c8063098de8201461004f5780630d8e6e2c1461007a57806398d5fdca146100a5578063b60d4288146100d0578063f36089ec146100da575b600080fd5b34801561005b57600080fd5b506100646100f1565b60405161007191906102ae565b60405180910390f35b34801561008657600080fd5b5061008f6100f7565b60405161009c91906102ae565b60405180910390f35b3480156100b157600080fd5b506100ba610195565b6040516100c791906102ae565b60405180910390f35b6100d861024d565b005b3480156100e657600080fd5b506100ef610293565b005b60005481565b60008073d4a33860578de61dbabdc8bfdb98fd742fa7028e90508073ffffffffffffffffffffffffffffffffffffffff166354fd4d506040518163ffffffff1660e01b815260040160206040518083038186803b15801561015757600080fd5b505afa15801561016b573d6000803e3d6000fd5b505050506040513d601f19601f8201168201806040525081019061018f91906102fa565b91505090565b60008073d4a33860578de61dbabdc8bfdb98fd742fa7028e905060008173ffffffffffffffffffffffffffffffffffffffff1663feaf968c6040518163ffffffff1660e01b815260040160a06040518083038186803b1580156101f757600080fd5b505afa15801561020b573d6000803e3d6000fd5b505050506040513d601f19601f8201168201806040525081019061022f919061039f565b5050509150506402540be400816102469190610449565b9250505090565b6000543411610291576040517f08c379a0000000000000000000000000000000000000000000000000000000008152600401610288906105bd565b60405180910390fd5b565b565b6000819050919050565b6102a881610295565b82525050565b60006020820190506102c3600083018461029f565b92915050565b600080fd5b6102d781610295565b81146102e257600080fd5b50565b6000815190506102f4816102ce565b92915050565b6000602082840312156103105761030f6102c9565b5b600061031e848285016102e5565b91505092915050565b600069ffffffffffffffffffff82169050919050565b61034681610327565b811461035157600080fd5b50565b6000815190506103638161033d565b92915050565b6000819050919050565b61037c81610369565b811461038757600080fd5b50565b60008151905061039981610373565b92915050565b600080600080600060a086880312156103bb576103ba6102c9565b5b60006103c988828901610354565b95505060206103da8882890161038a565b94505060406103eb888289016102e5565b93505060606103fc888289016102e5565b925050608061040d88828901610354565b9150509295509295909350565b7f4e487b7100000000000000000000000000000000000000000000000000000000600052601160045260246000fd5b600061045482610369565b915061045f83610369565b9250827f7fffffffffffffffffffffffffffffffffffffffffffffffffffffffffffffff048211600084136000841316161561049e5761049d61041a565b5b817f800000000000000000000000000000000000000000000000000000000000000005831260008412600084131616156104db576104da61041a565b5b827f800000000000000000000000000000000000000000000000000000000000000005821260008413600084121616156105185761051761041a565b5b827f7fffffffffffffffffffffffffffffffffffffffffffffffffffffffffffffff05821260008412600084121616156105555761055461041a565b5b828202905092915050565b600082825260208201905092915050565b7f4469646e27742053656e6420656e6f7567682100000000000000000000000000600082015250565b60006105a7601383610560565b91506105b282610571565b602082019050919050565b600060208201905081810360008301526105d68161059a565b905091905056fea2646970667358221220dc1c7cf5666194551b46c4daef48bb39e091ba45ef330cd835656bc7132fbf5c64736f6c63430008080033",
					"opcodes": "PUSH1 0x80 PUSH1 0x40 MSTORE PUSH1 0x32 PUSH1 0x0 SSTORE CALLVALUE DUP1 ISZERO PUSH2 0x15 JUMPI PUSH1 0x0 DUP1 REVERT JUMPDEST POP PUSH2 0x613 DUP1 PUSH2 0x25 PUSH1 0x0 CODECOPY PUSH1 0x0 RETURN INVALID PUSH1 0x80 PUSH1 0x40 MSTORE PUSH1 0x4 CALLDATASIZE LT PUSH2 0x4A JUMPI PUSH1 0x0 CALLDATALOAD PUSH1 0xE0 SHR DUP1 PUSH4 0x98DE820 EQ PUSH2 0x4F JUMPI DUP1 PUSH4 0xD8E6E2C EQ PUSH2 0x7A JUMPI DUP1 PUSH4 0x98D5FDCA EQ PUSH2 0xA5 JUMPI DUP1 PUSH4 0xB60D4288 EQ PUSH2 0xD0 JUMPI DUP1 PUSH4 0xF36089EC EQ PUSH2 0xDA JUMPI JUMPDEST PUSH1 0x0 DUP1 REVERT JUMPDEST CALLVALUE DUP1 ISZERO PUSH2 0x5B JUMPI PUSH1 0x0 DUP1 REVERT JUMPDEST POP PUSH2 0x64 PUSH2 0xF1 JUMP JUMPDEST PUSH1 0x40 MLOAD PUSH2 0x71 SWAP2 SWAP1 PUSH2 0x2AE JUMP JUMPDEST PUSH1 0x40 MLOAD DUP1 SWAP2 SUB SWAP1 RETURN JUMPDEST CALLVALUE DUP1 ISZERO PUSH2 0x86 JUMPI PUSH1 0x0 DUP1 REVERT JUMPDEST POP PUSH2 0x8F PUSH2 0xF7 JUMP JUMPDEST PUSH1 0x40 MLOAD PUSH2 0x9C SWAP2 SWAP1 PUSH2 0x2AE JUMP JUMPDEST PUSH1 0x40 MLOAD DUP1 SWAP2 SUB SWAP1 RETURN JUMPDEST CALLVALUE DUP1 ISZERO PUSH2 0xB1 JUMPI PUSH1 0x0 DUP1 REVERT JUMPDEST POP PUSH2 0xBA PUSH2 0x195 JUMP JUMPDEST PUSH1 0x40 MLOAD PUSH2 0xC7 SWAP2 SWAP1 PUSH2 0x2AE JUMP JUMPDEST PUSH1 0x40 MLOAD DUP1 SWAP2 SUB SWAP1 RETURN JUMPDEST PUSH2 0xD8 PUSH2 0x24D JUMP JUMPDEST STOP JUMPDEST CALLVALUE DUP1 ISZERO PUSH2 0xE6 JUMPI PUSH1 0x0 DUP1 REVERT JUMPDEST POP PUSH2 0xEF PUSH2 0x293 JUMP JUMPDEST STOP JUMPDEST PUSH1 0x0 SLOAD DUP2 JUMP JUMPDEST PUSH1 0x0 DUP1 PUSH20 0xD4A33860578DE61DBABDC8BFDB98FD742FA7028E SWAP1 POP DUP1 PUSH20 0xFFFFFFFFFFFFFFFFFFFFFFFFFFFFFFFFFFFFFFFF AND PUSH4 0x54FD4D50 PUSH1 0x40 MLOAD DUP2 PUSH4 0xFFFFFFFF AND PUSH1 0xE0 SHL DUP2 MSTORE PUSH1 0x4 ADD PUSH1 0x20 PUSH1 0x40 MLOAD DUP1 DUP4 SUB DUP2 DUP7 DUP1 EXTCODESIZE ISZERO DUP1 ISZERO PUSH2 0x157 JUMPI PUSH1 0x0 DUP1 REVERT JUMPDEST POP GAS STATICCALL ISZERO DUP1 ISZERO PUSH2 0x16B JUMPI RETURNDATASIZE PUSH1 0x0 DUP1 RETURNDATACOPY RETURNDATASIZE PUSH1 0x0 REVERT JUMPDEST POP POP POP POP PUSH1 0x40 MLOAD RETURNDATASIZE PUSH1 0x1F NOT PUSH1 0x1F DUP3 ADD AND DUP3 ADD DUP1 PUSH1 0x40 MSTORE POP DUP2 ADD SWAP1 PUSH2 0x18F SWAP2 SWAP1 PUSH2 0x2FA JUMP JUMPDEST SWAP2 POP POP SWAP1 JUMP JUMPDEST PUSH1 0x0 DUP1 PUSH20 0xD4A33860578DE61DBABDC8BFDB98FD742FA7028E SWAP1 POP PUSH1 0x0 DUP2 PUSH20 0xFFFFFFFFFFFFFFFFFFFFFFFFFFFFFFFFFFFFFFFF AND PUSH4 0xFEAF968C PUSH1 0x40 MLOAD DUP2 PUSH4 0xFFFFFFFF AND PUSH1 0xE0 SHL DUP2 MSTORE PUSH1 0x4 ADD PUSH1 0xA0 PUSH1 0x40 MLOAD DUP1 DUP4 SUB DUP2 DUP7 DUP1 EXTCODESIZE ISZERO DUP1 ISZERO PUSH2 0x1F7 JUMPI PUSH1 0x0 DUP1 REVERT JUMPDEST POP GAS STATICCALL ISZERO DUP1 ISZERO PUSH2 0x20B JUMPI RETURNDATASIZE PUSH1 0x0 DUP1 RETURNDATACOPY RETURNDATASIZE PUSH1 0x0 REVERT JUMPDEST POP POP POP POP PUSH1 0x40 MLOAD RETURNDATASIZE PUSH1 0x1F NOT PUSH1 0x1F DUP3 ADD AND DUP3 ADD DUP1 PUSH1 0x40 MSTORE POP DUP2 ADD SWAP1 PUSH2 0x22F SWAP2 SWAP1 PUSH2 0x39F JUMP JUMPDEST POP POP POP SWAP2 POP POP PUSH5 0x2540BE400 DUP2 PUSH2 0x246 SWAP2 SWAP1 PUSH2 0x449 JUMP JUMPDEST SWAP3 POP POP POP SWAP1 JUMP JUMPDEST PUSH1 0x0 SLOAD CALLVALUE GT PUSH2 0x291 JUMPI PUSH1 0x40 MLOAD PUSH32 0x8C379A000000000000000000000000000000000000000000000000000000000 DUP2 MSTORE PUSH1 0x4 ADD PUSH2 0x288 SWAP1 PUSH2 0x5BD JUMP JUMPDEST PUSH1 0x40 MLOAD DUP1 SWAP2 SUB SWAP1 REVERT JUMPDEST JUMP JUMPDEST JUMP JUMPDEST PUSH1 0x0 DUP2 SWAP1 POP SWAP2 SWAP1 POP JUMP JUMPDEST PUSH2 0x2A8 DUP2 PUSH2 0x295 JUMP JUMPDEST DUP3 MSTORE POP POP JUMP JUMPDEST PUSH1 0x0 PUSH1 0x20 DUP3 ADD SWAP1 POP PUSH2 0x2C3 PUSH1 0x0 DUP4 ADD DUP5 PUSH2 0x29F JUMP JUMPDEST SWAP3 SWAP2 POP POP JUMP JUMPDEST PUSH1 0x0 DUP1 REVERT JUMPDEST PUSH2 0x2D7 DUP2 PUSH2 0x295 JUMP JUMPDEST DUP2 EQ PUSH2 0x2E2 JUMPI PUSH1 0x0 DUP1 REVERT JUMPDEST POP JUMP JUMPDEST PUSH1 0x0 DUP2 MLOAD SWAP1 POP PUSH2 0x2F4 DUP2 PUSH2 0x2CE JUMP JUMPDEST SWAP3 SWAP2 POP POP JUMP JUMPDEST PUSH1 0x0 PUSH1 0x20 DUP3 DUP5 SUB SLT ISZERO PUSH2 0x310 JUMPI PUSH2 0x30F PUSH2 0x2C9 JUMP JUMPDEST JUMPDEST PUSH1 0x0 PUSH2 0x31E DUP5 DUP3 DUP6 ADD PUSH2 0x2E5 JUMP JUMPDEST SWAP2 POP POP SWAP3 SWAP2 POP POP JUMP JUMPDEST PUSH1 0x0 PUSH10 0xFFFFFFFFFFFFFFFFFFFF DUP3 AND SWAP1 POP SWAP2 SWAP1 POP JUMP JUMPDEST PUSH2 0x346 DUP2 PUSH2 0x327 JUMP JUMPDEST DUP2 EQ PUSH2 0x351 JUMPI PUSH1 0x0 DUP1 REVERT JUMPDEST POP JUMP JUMPDEST PUSH1 0x0 DUP2 MLOAD SWAP1 POP PUSH2 0x363 DUP2 PUSH2 0x33D JUMP JUMPDEST SWAP3 SWAP2 POP POP JUMP JUMPDEST PUSH1 0x0 DUP2 SWAP1 POP SWAP2 SWAP1 POP JUMP JUMPDEST PUSH2 0x37C DUP2 PUSH2 0x369 JUMP JUMPDEST DUP2 EQ PUSH2 0x387 JUMPI PUSH1 0x0 DUP1 REVERT JUMPDEST POP JUMP JUMPDEST PUSH1 0x0 DUP2 MLOAD SWAP1 POP PUSH2 0x399 DUP2 PUSH2 0x373 JUMP JUMPDEST SWAP3 SWAP2 POP POP JUMP JUMPDEST PUSH1 0x0 DUP1 PUSH1 0x0 DUP1 PUSH1 0x0 PUSH1 0xA0 DUP7 DUP9 SUB SLT ISZERO PUSH2 0x3BB JUMPI PUSH2 0x3BA PUSH2 0x2C9 JUMP JUMPDEST JUMPDEST PUSH1 0x0 PUSH2 0x3C9 DUP9 DUP3 DUP10 ADD PUSH2 0x354 JUMP JUMPDEST SWAP6 POP POP PUSH1 0x20 PUSH2 0x3DA DUP9 DUP3 DUP10 ADD PUSH2 0x38A JUMP JUMPDEST SWAP5 POP POP PUSH1 0x40 PUSH2 0x3EB DUP9 DUP3 DUP10 ADD PUSH2 0x2E5 JUMP JUMPDEST SWAP4 POP POP PUSH1 0x60 PUSH2 0x3FC DUP9 DUP3 DUP10 ADD PUSH2 0x2E5 JUMP JUMPDEST SWAP3 POP POP PUSH1 0x80 PUSH2 0x40D DUP9 DUP3 DUP10 ADD PUSH2 0x354 JUMP JUMPDEST SWAP2 POP POP SWAP3 SWAP6 POP SWAP3 SWAP6 SWAP1 SWAP4 POP JUMP JUMPDEST PUSH32 0x4E487B7100000000000000000000000000000000000000000000000000000000 PUSH1 0x0 MSTORE PUSH1 0x11 PUSH1 0x4 MSTORE PUSH1 0x24 PUSH1 0x0 REVERT JUMPDEST PUSH1 0x0 PUSH2 0x454 DUP3 PUSH2 0x369 JUMP JUMPDEST SWAP2 POP PUSH2 0x45F DUP4 PUSH2 0x369 JUMP JUMPDEST SWAP3 POP DUP3 PUSH32 0x7FFFFFFFFFFFFFFFFFFFFFFFFFFFFFFFFFFFFFFFFFFFFFFFFFFFFFFFFFFFFFFF DIV DUP3 GT PUSH1 0x0 DUP5 SGT PUSH1 0x0 DUP5 SGT AND AND ISZERO PUSH2 0x49E JUMPI PUSH2 0x49D PUSH2 0x41A JUMP JUMPDEST JUMPDEST DUP2 PUSH32 0x8000000000000000000000000000000000000000000000000000000000000000 SDIV DUP4 SLT PUSH1 0x0 DUP5 SLT PUSH1 0x0 DUP5 SGT AND AND ISZERO PUSH2 0x4DB JUMPI PUSH2 0x4DA PUSH2 0x41A JUMP JUMPDEST JUMPDEST DUP3 PUSH32 0x8000000000000000000000000000000000000000000000000000000000000000 SDIV DUP3 SLT PUSH1 0x0 DUP5 SGT PUSH1 0x0 DUP5 SLT AND AND ISZERO PUSH2 0x518 JUMPI PUSH2 0x517 PUSH2 0x41A JUMP JUMPDEST JUMPDEST DUP3 PUSH32 0x7FFFFFFFFFFFFFFFFFFFFFFFFFFFFFFFFFFFFFFFFFFFFFFFFFFFFFFFFFFFFFFF SDIV DUP3 SLT PUSH1 0x0 DUP5 SLT PUSH1 0x0 DUP5 SLT AND AND ISZERO PUSH2 0x555 JUMPI PUSH2 0x554 PUSH2 0x41A JUMP JUMPDEST JUMPDEST DUP3 DUP3 MUL SWAP1 POP SWAP3 SWAP2 POP POP JUMP JUMPDEST PUSH1 0x0 DUP3 DUP3 MSTORE PUSH1 0x20 DUP3 ADD SWAP1 POP SWAP3 SWAP2 POP POP JUMP JUMPDEST PUSH32 0x4469646E27742053656E6420656E6F7567682100000000000000000000000000 PUSH1 0x0 DUP3 ADD MSTORE POP JUMP JUMPDEST PUSH1 0x0 PUSH2 0x5A7 PUSH1 0x13 DUP4 PUSH2 0x560 JUMP JUMPDEST SWAP2 POP PUSH2 0x5B2 DUP3 PUSH2 0x571 JUMP JUMPDEST PUSH1 0x20 DUP3 ADD SWAP1 POP SWAP2 SWAP1 POP JUMP JUMPDEST PUSH1 0x0 PUSH1 0x20 DUP3 ADD SWAP1 POP DUP2 DUP2 SUB PUSH1 0x0 DUP4 ADD MSTORE PUSH2 0x5D6 DUP2 PUSH2 0x59A JUMP JUMPDEST SWAP1 POP SWAP2 SWAP1 POP JUMP INVALID LOG2 PUSH5 0x6970667358 0x22 SLT KECCAK256 0xDC SHR PUSH29 0xF5666194551B46C4DAEF48BB39E091BA45EF330CD835656BC7132FBF5C PUSH5 0x736F6C6343 STOP ADDMOD ADDMOD STOP CALLER "
				},
				"gasEstimates": {
					"creation": {
						"codeDepositCost": "311000",
						"executionCost": "22455",
						"totalCost": "333455"
					},
					"external": {
						"fund()": "2575",
						"getConversionRate()": "210",
						"getPrice()": "infinite",
						"getVersion()": "infinite",
						"minimumUsd()": "2407"
					}
				},
				"methodIdentifiers": {
					"fund()": "b60d4288",
					"getConversionRate()": "f36089ec",
					"getPrice()": "98d5fdca",
					"getVersion()": "0d8e6e2c",
					"minimumUsd()": "098de820"
				}
			},
			"storageLayout": {
				"storage": [
					{
						"astId": 51,
						"contract": "contracts/FundMe.sol:FundMe",
						"label": "minimumUsd",
						"offset": 0,
						"slot": "0",
						"type": "t_uint256"
					}
				],
				"types": {
					"t_uint256": {
						"encoding": "inplace",
						"label": "uint256",
						"numberOfBytes": "32"
					}
				}
			},
			"userdoc": {
				"kind": "user",
				"methods": {},
				"version": 1
			}
		}
	}
}