{
	"contracts/StorageFactory.sol": {
		"StorageFactory": {
			"abi": [
				{
					"inputs": [],
					"name": "createSimpleStorageContract",
					"outputs": [],
					"stateMutability": "nonpayable",
					"type": "function"
				},
				{
					"inputs": [
						{
							"internalType": "uint256",
							"name": "_simpleStorageIndex",
							"type": "uint256"
						},
						{
							"internalType": "uint256",
							"name": "_simpleStorageNumber",
							"type": "uint256"
						}
					],
					"name": "sfStore",
					"outputs": [],
					"stateMutability": "nonpayable",
					"type": "function"
				},
				{
					"inputs": [
						{
							"internalType": "uint256",
							"name": "",
							"type": "uint256"
						}
					],
					"name": "simpleStorageArray",
					"outputs": [
						{
							"internalType": "contract SimpleStorage",
							"name": "",
							"type": "address"
						}
					],
					"stateMutability": "view",
					"type": "function"
				}
			],
			"devdoc": {
				"kind": "dev",
				"methods": {},
				"version": 1
			},
			"evm": {
				"assembly": "    /* \"contracts/StorageFactory.sol\":137:557  contract StorageFactory {... */\n  mstore(0x40, 0x80)\n  callvalue\n  dup1\n  iszero\n  tag_1\n  jumpi\n  0x00\n  dup1\n  revert\ntag_1:\n  pop\n  dataSize(sub_0)\n  dup1\n  dataOffset(sub_0)\n  0x00\n  codecopy\n  0x00\n  return\nstop\n\nsub_0: assembly {\n        /* \"contracts/StorageFactory.sol\":137:557  contract StorageFactory {... */\n      mstore(0x40, 0x80)\n      callvalue\n      dup1\n      iszero\n      tag_1\n      jumpi\n      0x00\n      dup1\n      revert\n    tag_1:\n      pop\n      jumpi(tag_2, lt(calldatasize, 0x04))\n      shr(0xe0, calldataload(0x00))\n      dup1\n      0x1563700f\n      eq\n      tag_3\n      jumpi\n      dup1\n      0x1dda6541\n      eq\n      tag_4\n      jumpi\n      dup1\n      0x64591bf1\n      eq\n      tag_5\n      jumpi\n    tag_2:\n      0x00\n      dup1\n      revert\n        /* \"contracts/StorageFactory.sol\":403:554  function sfStore(uint256 _simpleStorageIndex, uint256 _simpleStorageNumber) public {... */\n    tag_3:\n      tag_6\n      0x04\n      dup1\n      calldatasize\n      sub\n      dup2\n      add\n      swap1\n      tag_7\n      swap2\n      swap1\n      tag_8\n      jump\t// in\n    tag_7:\n      tag_9\n      jump\t// in\n    tag_6:\n      stop\n        /* \"contracts/StorageFactory.sol\":219:389  function createSimpleStorageContract() public {... */\n    tag_4:\n      tag_10\n      tag_11\n      jump\t// in\n    tag_10:\n      stop\n        /* \"contracts/StorageFactory.sol\":168:209  SimpleStorage[] public simpleStorageArray */\n    tag_5:\n      tag_12\n      0x04\n      dup1\n      calldatasize\n      sub\n      dup2\n      add\n      swap1\n      tag_13\n      swap2\n      swap1\n      tag_14\n      jump\t// in\n    tag_13:\n      tag_15\n      jump\t// in\n    tag_12:\n      mload(0x40)\n      tag_16\n      swap2\n      swap1\n      tag_17\n      jump\t// in\n    tag_16:\n      mload(0x40)\n      dup1\n      swap2\n      sub\n      swap1\n      return\n        /* \"contracts/StorageFactory.sol\":403:554  function sfStore(uint256 _simpleStorageIndex, uint256 _simpleStorageNumber) public {... */\n    tag_9:\n      pop\n      pop\n      jump\t// out\n        /* \"contracts/StorageFactory.sol\":219:389  function createSimpleStorageContract() public {... */\n    tag_11:\n        /* \"contracts/StorageFactory.sol\":277:304  SimpleStorage simpleStorage */\n      0x00\n        /* \"contracts/StorageFactory.sol\":307:326  new SimpleStorage() */\n      mload(0x40)\n      tag_20\n      swap1\n      tag_21\n      jump\t// in\n    tag_20:\n      mload(0x40)\n      dup1\n      swap2\n      sub\n      swap1\n      0x00\n      create\n      dup1\n      iszero\n      dup1\n      iszero\n      tag_22\n      jumpi\n      returndatasize\n      0x00\n      dup1\n      returndatacopy\n      revert(0x00, returndatasize)\n    tag_22:\n      pop\n        /* \"contracts/StorageFactory.sol\":277:326  SimpleStorage simpleStorage = new SimpleStorage() */\n      swap1\n      pop\n        /* \"contracts/StorageFactory.sol\":338:356  simpleStorageArray */\n      0x00\n        /* \"contracts/StorageFactory.sol\":362:375  simpleStorage */\n      dup2\n        /* \"contracts/StorageFactory.sol\":338:376  simpleStorageArray.push(simpleStorage) */\n      swap1\n      dup1\n      0x01\n      dup2\n      sload\n      add\n      dup1\n      dup3\n      sstore\n      dup1\n      swap2\n      pop\n      pop\n      0x01\n      swap1\n      sub\n      swap1\n      0x00\n      mstore\n      keccak256(0x00, 0x20)\n      add\n      0x00\n      swap1\n      swap2\n      swap1\n      swap2\n      swap1\n      swap2\n      0x0100\n      exp\n      dup2\n      sload\n      dup2\n      0xffffffffffffffffffffffffffffffffffffffff\n      mul\n      not\n      and\n      swap1\n      dup4\n      0xffffffffffffffffffffffffffffffffffffffff\n      and\n      mul\n      or\n      swap1\n      sstore\n      pop\n        /* \"contracts/StorageFactory.sol\":265:389  {... */\n      pop\n        /* \"contracts/StorageFactory.sol\":219:389  function createSimpleStorageContract() public {... */\n      jump\t// out\n        /* \"contracts/StorageFactory.sol\":168:209  SimpleStorage[] public simpleStorageArray */\n    tag_15:\n      0x00\n      dup2\n      dup2\n      sload\n      dup2\n      lt\n      tag_24\n      jumpi\n      0x00\n      dup1\n      revert\n    tag_24:\n      swap1\n      0x00\n      mstore\n      keccak256(0x00, 0x20)\n      add\n      0x00\n      swap2\n      pop\n      sload\n      swap1\n      0x0100\n      exp\n      swap1\n      div\n      0xffffffffffffffffffffffffffffffffffffffff\n      and\n      dup2\n      jump\t// out\n    tag_21:\n      dataSize(sub_0)\n      dup1\n      dataOffset(sub_0)\n      dup4\n      codecopy\n      add\n      swap1\n      jump\t// out\n        /* \"#utility.yul\":88:205   */\n    tag_27:\n        /* \"#utility.yul\":197:198   */\n      0x00\n        /* \"#utility.yul\":194:195   */\n      dup1\n        /* \"#utility.yul\":187:199   */\n      revert\n        /* \"#utility.yul\":334:411   */\n    tag_29:\n        /* \"#utility.yul\":371:378   */\n      0x00\n        /* \"#utility.yul\":400:405   */\n      dup2\n        /* \"#utility.yul\":389:405   */\n      swap1\n      pop\n        /* \"#utility.yul\":334:411   */\n      swap2\n      swap1\n      pop\n      jump\t// out\n        /* \"#utility.yul\":417:539   */\n    tag_30:\n        /* \"#utility.yul\":490:514   */\n      tag_44\n        /* \"#utility.yul\":508:513   */\n      dup2\n        /* \"#utility.yul\":490:514   */\n      tag_29\n      jump\t// in\n    tag_44:\n        /* \"#utility.yul\":483:488   */\n      dup2\n        /* \"#utility.yul\":480:515   */\n      eq\n        /* \"#utility.yul\":470:533   */\n      tag_45\n      jumpi\n        /* \"#utility.yul\":529:530   */\n      0x00\n        /* \"#utility.yul\":526:527   */\n      dup1\n        /* \"#utility.yul\":519:531   */\n      revert\n        /* \"#utility.yul\":470:533   */\n    tag_45:\n        /* \"#utility.yul\":417:539   */\n      pop\n      jump\t// out\n        /* \"#utility.yul\":545:684   */\n    tag_31:\n        /* \"#utility.yul\":591:596   */\n      0x00\n        /* \"#utility.yul\":629:635   */\n      dup2\n        /* \"#utility.yul\":616:636   */\n      calldataload\n        /* \"#utility.yul\":607:636   */\n      swap1\n      pop\n        /* \"#utility.yul\":645:678   */\n      tag_47\n        /* \"#utility.yul\":672:677   */\n      dup2\n        /* \"#utility.yul\":645:678   */\n      tag_30\n      jump\t// in\n    tag_47:\n        /* \"#utility.yul\":545:684   */\n      swap3\n      swap2\n      pop\n      pop\n      jump\t// out\n        /* \"#utility.yul\":690:1164   */\n    tag_8:\n        /* \"#utility.yul\":758:764   */\n      0x00\n        /* \"#utility.yul\":766:772   */\n      dup1\n        /* \"#utility.yul\":815:817   */\n      0x40\n        /* \"#utility.yul\":803:812   */\n      dup4\n        /* \"#utility.yul\":794:801   */\n      dup6\n        /* \"#utility.yul\":790:813   */\n      sub\n        /* \"#utility.yul\":786:818   */\n      slt\n        /* \"#utility.yul\":783:902   */\n      iszero\n      tag_49\n      jumpi\n        /* \"#utility.yul\":821:900   */\n      tag_50\n      tag_27\n      jump\t// in\n    tag_50:\n        /* \"#utility.yul\":783:902   */\n    tag_49:\n        /* \"#utility.yul\":941:942   */\n      0x00\n        /* \"#utility.yul\":966:1019   */\n      tag_51\n        /* \"#utility.yul\":1011:1018   */\n      dup6\n        /* \"#utility.yul\":1002:1008   */\n      dup3\n        /* \"#utility.yul\":991:1000   */\n      dup7\n        /* \"#utility.yul\":987:1009   */\n      add\n        /* \"#utility.yul\":966:1019   */\n      tag_31\n      jump\t// in\n    tag_51:\n        /* \"#utility.yul\":956:1019   */\n      swap3\n      pop\n        /* \"#utility.yul\":912:1029   */\n      pop\n        /* \"#utility.yul\":1068:1070   */\n      0x20\n        /* \"#utility.yul\":1094:1147   */\n      tag_52\n        /* \"#utility.yul\":1139:1146   */\n      dup6\n        /* \"#utility.yul\":1130:1136   */\n      dup3\n        /* \"#utility.yul\":1119:1128   */\n      dup7\n        /* \"#utility.yul\":1115:1137   */\n      add\n        /* \"#utility.yul\":1094:1147   */\n      tag_31\n      jump\t// in\n    tag_52:\n        /* \"#utility.yul\":1084:1147   */\n      swap2\n      pop\n        /* \"#utility.yul\":1039:1157   */\n      pop\n        /* \"#utility.yul\":690:1164   */\n      swap3\n      pop\n      swap3\n      swap1\n      pop\n      jump\t// out\n        /* \"#utility.yul\":1170:1499   */\n    tag_14:\n        /* \"#utility.yul\":1229:1235   */\n      0x00\n        /* \"#utility.yul\":1278:1280   */\n      0x20\n        /* \"#utility.yul\":1266:1275   */\n      dup3\n        /* \"#utility.yul\":1257:1264   */\n      dup5\n        /* \"#utility.yul\":1253:1276   */\n      sub\n        /* \"#utility.yul\":1249:1281   */\n      slt\n        /* \"#utility.yul\":1246:1365   */\n      iszero\n      tag_54\n      jumpi\n        /* \"#utility.yul\":1284:1363   */\n      tag_55\n      tag_27\n      jump\t// in\n    tag_55:\n        /* \"#utility.yul\":1246:1365   */\n    tag_54:\n        /* \"#utility.yul\":1404:1405   */\n      0x00\n        /* \"#utility.yul\":1429:1482   */\n      tag_56\n        /* \"#utility.yul\":1474:1481   */\n      dup5\n        /* \"#utility.yul\":1465:1471   */\n      dup3\n        /* \"#utility.yul\":1454:1463   */\n      dup6\n        /* \"#utility.yul\":1450:1472   */\n      add\n        /* \"#utility.yul\":1429:1482   */\n      tag_31\n      jump\t// in\n    tag_56:\n        /* \"#utility.yul\":1419:1482   */\n      swap2\n      pop\n        /* \"#utility.yul\":1375:1492   */\n      pop\n        /* \"#utility.yul\":1170:1499   */\n      swap3\n      swap2\n      pop\n      pop\n      jump\t// out\n        /* \"#utility.yul\":1505:1631   */\n    tag_32:\n        /* \"#utility.yul\":1542:1549   */\n      0x00\n        /* \"#utility.yul\":1582:1624   */\n      0xffffffffffffffffffffffffffffffffffffffff\n        /* \"#utility.yul\":1575:1580   */\n      dup3\n        /* \"#utility.yul\":1571:1625   */\n      and\n        /* \"#utility.yul\":1560:1625   */\n      swap1\n      pop\n        /* \"#utility.yul\":1505:1631   */\n      swap2\n      swap1\n      pop\n      jump\t// out\n        /* \"#utility.yul\":1637:1697   */\n    tag_33:\n        /* \"#utility.yul\":1665:1668   */\n      0x00\n        /* \"#utility.yul\":1686:1691   */\n      dup2\n        /* \"#utility.yul\":1679:1691   */\n      swap1\n      pop\n        /* \"#utility.yul\":1637:1697   */\n      swap2\n      swap1\n      pop\n      jump\t// out\n        /* \"#utility.yul\":1703:1845   */\n    tag_34:\n        /* \"#utility.yul\":1753:1762   */\n      0x00\n        /* \"#utility.yul\":1786:1839   */\n      tag_60\n        /* \"#utility.yul\":1804:1838   */\n      tag_61\n        /* \"#utility.yul\":1813:1837   */\n      tag_62\n        /* \"#utility.yul\":1831:1836   */\n      dup5\n        /* \"#utility.yul\":1813:1837   */\n      tag_32\n      jump\t// in\n    tag_62:\n        /* \"#utility.yul\":1804:1838   */\n      tag_33\n      jump\t// in\n    tag_61:\n        /* \"#utility.yul\":1786:1839   */\n      tag_32\n      jump\t// in\n    tag_60:\n        /* \"#utility.yul\":1773:1839   */\n      swap1\n      pop\n        /* \"#utility.yul\":1703:1845   */\n      swap2\n      swap1\n      pop\n      jump\t// out\n        /* \"#utility.yul\":1851:1977   */\n    tag_35:\n        /* \"#utility.yul\":1901:1910   */\n      0x00\n        /* \"#utility.yul\":1934:1971   */\n      tag_64\n        /* \"#utility.yul\":1965:1970   */\n      dup3\n        /* \"#utility.yul\":1934:1971   */\n      tag_34\n      jump\t// in\n    tag_64:\n        /* \"#utility.yul\":1921:1971   */\n      swap1\n      pop\n        /* \"#utility.yul\":1851:1977   */\n      swap2\n      swap1\n      pop\n      jump\t// out\n        /* \"#utility.yul\":1983:2129   */\n    tag_36:\n        /* \"#utility.yul\":2053:2062   */\n      0x00\n        /* \"#utility.yul\":2086:2123   */\n      tag_66\n        /* \"#utility.yul\":2117:2122   */\n      dup3\n        /* \"#utility.yul\":2086:2123   */\n      tag_35\n      jump\t// in\n    tag_66:\n        /* \"#utility.yul\":2073:2123   */\n      swap1\n      pop\n        /* \"#utility.yul\":1983:2129   */\n      swap2\n      swap1\n      pop\n      jump\t// out\n        /* \"#utility.yul\":2135:2306   */\n    tag_37:\n        /* \"#utility.yul\":2242:2299   */\n      tag_68\n        /* \"#utility.yul\":2293:2298   */\n      dup2\n        /* \"#utility.yul\":2242:2299   */\n      tag_36\n      jump\t// in\n    tag_68:\n        /* \"#utility.yul\":2237:2240   */\n      dup3\n        /* \"#utility.yul\":2230:2300   */\n      mstore\n        /* \"#utility.yul\":2135:2306   */\n      pop\n      pop\n      jump\t// out\n        /* \"#utility.yul\":2312:2574   */\n    tag_17:\n        /* \"#utility.yul\":2425:2429   */\n      0x00\n        /* \"#utility.yul\":2463:2465   */\n      0x20\n        /* \"#utility.yul\":2452:2461   */\n      dup3\n        /* \"#utility.yul\":2448:2466   */\n      add\n        /* \"#utility.yul\":2440:2466   */\n      swap1\n      pop\n        /* \"#utility.yul\":2476:2567   */\n      tag_70\n        /* \"#utility.yul\":2564:2565   */\n      0x00\n        /* \"#utility.yul\":2553:2562   */\n      dup4\n        /* \"#utility.yul\":2549:2566   */\n      add\n        /* \"#utility.yul\":2540:2546   */\n      dup5\n        /* \"#utility.yul\":2476:2567   */\n      tag_37\n      jump\t// in\n    tag_70:\n        /* \"#utility.yul\":2312:2574   */\n      swap3\n      swap2\n      pop\n      pop\n      jump\t// out\n    stop\n\n    sub_0: assembly {\n            /* \"contracts/SimpleStorage.sol\":187:1506  contract SimpleStorage {... */\n          mstore(0x40, 0x80)\n          callvalue\n          dup1\n          iszero\n          tag_1\n          jumpi\n          0x00\n          dup1\n          revert\n        tag_1:\n          pop\n          dataSize(sub_0)\n          dup1\n          dataOffset(sub_0)\n          0x00\n          codecopy\n          0x00\n          return\n        stop\n\n        sub_0: assembly {\n                /* \"contracts/SimpleStorage.sol\":187:1506  contract SimpleStorage {... */\n              mstore(0x40, 0x80)\n              callvalue\n              dup1\n              iszero\n              tag_1\n              jumpi\n              0x00\n              dup1\n              revert\n            tag_1:\n              pop\n              jumpi(tag_2, lt(calldatasize, 0x04))\n              shr(0xe0, calldataload(0x00))\n              dup1\n              0x2e64cec1\n              eq\n              tag_3\n              jumpi\n              dup1\n              0x43ede4ae\n              eq\n              tag_4\n              jumpi\n              dup1\n              0x6057361d\n              eq\n              tag_5\n              jumpi\n              dup1\n              0x6f760f41\n              eq\n              tag_6\n              jumpi\n              dup1\n              0x9e7a13ad\n              eq\n              tag_7\n              jumpi\n              dup1\n              0xb2ac62ef\n              eq\n              tag_8\n              jumpi\n            tag_2:\n              0x00\n              dup1\n              revert\n                /* \"contracts/SimpleStorage.sol\":1097:1230  function retrieve() public view returns(uint256){ // view, pure doesn't use gas when executed... */\n            tag_3:\n              tag_9\n              tag_10\n              jump\t// in\n            tag_9:\n              mload(0x40)\n              tag_11\n              swap2\n              swap1\n              tag_12\n              jump\t// in\n            tag_11:\n              mload(0x40)\n              dup1\n              swap2\n              sub\n              swap1\n              return\n                /* \"contracts/SimpleStorage.sol\":279:309  uint256 public favouriteNumber */\n            tag_4:\n              tag_13\n              tag_14\n              jump\t// in\n            tag_13:\n              mload(0x40)\n              tag_15\n              swap2\n              swap1\n              tag_12\n              jump\t// in\n            tag_15:\n              mload(0x40)\n              dup1\n              swap2\n              sub\n              swap1\n              return\n                /* \"contracts/SimpleStorage.sol\":915:1089  function store(uint256 _favouriteNumber) public {... */\n            tag_5:\n              tag_16\n              0x04\n              dup1\n              calldatasize\n              sub\n              dup2\n              add\n              swap1\n              tag_17\n              swap2\n              swap1\n              tag_18\n              jump\t// in\n            tag_17:\n              tag_19\n              jump\t// in\n            tag_16:\n              stop\n                /* \"contracts/SimpleStorage.sol\":1238:1503  function addPerson(string memory _name, uint256 _favouriteNumber) public {... */\n            tag_6:\n              tag_20\n              0x04\n              dup1\n              calldatasize\n              sub\n              dup2\n              add\n              swap1\n              tag_21\n              swap2\n              swap1\n              tag_22\n              jump\t// in\n            tag_21:\n              tag_23\n              jump\t// in\n            tag_20:\n              stop\n                /* \"contracts/SimpleStorage.sol\":868:890  People[] public people */\n            tag_7:\n              tag_24\n              0x04\n              dup1\n              calldatasize\n              sub\n              dup2\n              add\n              swap1\n              tag_25\n              swap2\n              swap1\n              tag_18\n              jump\t// in\n            tag_25:\n              tag_26\n              jump\t// in\n            tag_24:\n              mload(0x40)\n              tag_27\n              swap3\n              swap2\n              swap1\n              tag_28\n              jump\t// in\n            tag_27:\n              mload(0x40)\n              dup1\n              swap2\n              sub\n              swap1\n              return\n                /* \"contracts/SimpleStorage.sol\":335:391  mapping (string => uint256) public nameToFavouriteNumber */\n            tag_8:\n              tag_29\n              0x04\n              dup1\n              calldatasize\n              sub\n              dup2\n              add\n              swap1\n              tag_30\n              swap2\n              swap1\n              tag_31\n              jump\t// in\n            tag_30:\n              tag_32\n              jump\t// in\n            tag_29:\n              mload(0x40)\n              tag_33\n              swap2\n              swap1\n              tag_12\n              jump\t// in\n            tag_33:\n              mload(0x40)\n              dup1\n              swap2\n              sub\n              swap1\n              return\n                /* \"contracts/SimpleStorage.sol\":1097:1230  function retrieve() public view returns(uint256){ // view, pure doesn't use gas when executed... */\n            tag_10:\n                /* \"contracts/SimpleStorage.sol\":1137:1144  uint256 */\n              0x00\n                /* \"contracts/SimpleStorage.sol\":1207:1222  favouriteNumber */\n              dup1\n              sload\n                /* \"contracts/SimpleStorage.sol\":1200:1222  return favouriteNumber */\n              swap1\n              pop\n                /* \"contracts/SimpleStorage.sol\":1097:1230  function retrieve() public view returns(uint256){ // view, pure doesn't use gas when executed... */\n              swap1\n              jump\t// out\n                /* \"contracts/SimpleStorage.sol\":279:309  uint256 public favouriteNumber */\n            tag_14:\n              sload(0x00)\n              dup2\n              jump\t// out\n                /* \"contracts/SimpleStorage.sol\":915:1089  function store(uint256 _favouriteNumber) public {... */\n            tag_19:\n                /* \"contracts/SimpleStorage.sol\":992:1008  _favouriteNumber */\n              dup1\n                /* \"contracts/SimpleStorage.sol\":974:989  favouriteNumber */\n              0x00\n                /* \"contracts/SimpleStorage.sol\":974:1008  favouriteNumber = _favouriteNumber */\n              dup2\n              swap1\n              sstore\n              pop\n                /* \"contracts/SimpleStorage.sol\":1055:1056  1 */\n              0x01\n                /* \"contracts/SimpleStorage.sol\":1037:1052  favouriteNumber */\n              sload(0x00)\n                /* \"contracts/SimpleStorage.sol\":1037:1056  favouriteNumber + 1 */\n              tag_36\n              swap2\n              swap1\n              tag_37\n              jump\t// in\n            tag_36:\n                /* \"contracts/SimpleStorage.sol\":1019:1034  favouriteNumber */\n              0x00\n                /* \"contracts/SimpleStorage.sol\":1019:1056  favouriteNumber = favouriteNumber + 1 */\n              dup2\n              swap1\n              sstore\n              pop\n                /* \"contracts/SimpleStorage.sol\":915:1089  function store(uint256 _favouriteNumber) public {... */\n              pop\n              jump\t// out\n                /* \"contracts/SimpleStorage.sol\":1238:1503  function addPerson(string memory _name, uint256 _favouriteNumber) public {... */\n            tag_23:\n                /* \"contracts/SimpleStorage.sol\":1322:1345  People memory newPerson */\n              0x00\n                /* \"contracts/SimpleStorage.sol\":1348:1404  People({favouriteNumber: _favouriteNumber, name: _name}) */\n              mload(0x40)\n              dup1\n              0x40\n              add\n              0x40\n              mstore\n              dup1\n                /* \"contracts/SimpleStorage.sol\":1373:1389  _favouriteNumber */\n              dup4\n                /* \"contracts/SimpleStorage.sol\":1348:1404  People({favouriteNumber: _favouriteNumber, name: _name}) */\n              dup2\n              mstore\n              0x20\n              add\n                /* \"contracts/SimpleStorage.sol\":1397:1402  _name */\n              dup5\n                /* \"contracts/SimpleStorage.sol\":1348:1404  People({favouriteNumber: _favouriteNumber, name: _name}) */\n              dup2\n              mstore\n              pop\n                /* \"contracts/SimpleStorage.sol\":1322:1404  People memory newPerson = People({favouriteNumber: _favouriteNumber, name: _name}) */\n              swap1\n              pop\n                /* \"contracts/SimpleStorage.sol\":1415:1421  people */\n              0x02\n                /* \"contracts/SimpleStorage.sol\":1427:1436  newPerson */\n              dup2\n                /* \"contracts/SimpleStorage.sol\":1415:1437  people.push(newPerson) */\n              swap1\n              dup1\n              0x01\n              dup2\n              sload\n              add\n              dup1\n              dup3\n              sstore\n              dup1\n              swap2\n              pop\n              pop\n              0x01\n              swap1\n              sub\n              swap1\n              0x00\n              mstore\n              keccak256(0x00, 0x20)\n              swap1\n              0x02\n              mul\n              add\n              0x00\n              swap1\n              swap2\n              swap1\n              swap2\n              swap1\n              swap2\n              pop\n              0x00\n              dup3\n              add\n              mload\n              dup2\n              0x00\n              add\n              sstore\n              0x20\n              dup3\n              add\n              mload\n              dup2\n              0x01\n              add\n              swap1\n              dup1\n              mload\n              swap1\n              0x20\n              add\n              swap1\n              tag_40\n              swap3\n              swap2\n              swap1\n              tag_41\n              jump\t// in\n            tag_40:\n              pop\n              pop\n              pop\n                /* \"contracts/SimpleStorage.sol\":1479:1495  _favouriteNumber */\n              dup2\n                /* \"contracts/SimpleStorage.sol\":1448:1469  nameToFavouriteNumber */\n              0x01\n                /* \"contracts/SimpleStorage.sol\":1470:1475  _name */\n              dup5\n                /* \"contracts/SimpleStorage.sol\":1448:1476  nameToFavouriteNumber[_name] */\n              mload(0x40)\n              tag_42\n              swap2\n              swap1\n              tag_43\n              jump\t// in\n            tag_42:\n              swap1\n              dup2\n              mstore\n              0x20\n              add\n              mload(0x40)\n              dup1\n              swap2\n              sub\n              swap1\n              keccak256\n                /* \"contracts/SimpleStorage.sol\":1448:1495  nameToFavouriteNumber[_name] = _favouriteNumber */\n              dup2\n              swap1\n              sstore\n              pop\n                /* \"contracts/SimpleStorage.sol\":1311:1503  {... */\n              pop\n                /* \"contracts/SimpleStorage.sol\":1238:1503  function addPerson(string memory _name, uint256 _favouriteNumber) public {... */\n              pop\n              pop\n              jump\t// out\n                /* \"contracts/SimpleStorage.sol\":868:890  People[] public people */\n            tag_26:\n              0x02\n              dup2\n              dup2\n              sload\n              dup2\n              lt\n              tag_44\n              jumpi\n              0x00\n              dup1\n              revert\n            tag_44:\n              swap1\n              0x00\n              mstore\n              keccak256(0x00, 0x20)\n              swap1\n              0x02\n              mul\n              add\n              0x00\n              swap2\n              pop\n              swap1\n              pop\n              dup1\n              0x00\n              add\n              sload\n              swap1\n              dup1\n              0x01\n              add\n              dup1\n              sload\n              tag_46\n              swap1\n              tag_47\n              jump\t// in\n            tag_46:\n              dup1\n              0x1f\n              add\n              0x20\n              dup1\n              swap2\n              div\n              mul\n              0x20\n              add\n              mload(0x40)\n              swap1\n              dup2\n              add\n              0x40\n              mstore\n              dup1\n              swap3\n              swap2\n              swap1\n              dup2\n              dup2\n              mstore\n              0x20\n              add\n              dup3\n              dup1\n              sload\n              tag_48\n              swap1\n              tag_47\n              jump\t// in\n            tag_48:\n              dup1\n              iszero\n              tag_49\n              jumpi\n              dup1\n              0x1f\n              lt\n              tag_50\n              jumpi\n              0x0100\n              dup1\n              dup4\n              sload\n              div\n              mul\n              dup4\n              mstore\n              swap2\n              0x20\n              add\n              swap2\n              jump(tag_49)\n            tag_50:\n              dup3\n              add\n              swap2\n              swap1\n              0x00\n              mstore\n              keccak256(0x00, 0x20)\n              swap1\n            tag_51:\n              dup2\n              sload\n              dup2\n              mstore\n              swap1\n              0x01\n              add\n              swap1\n              0x20\n              add\n              dup1\n              dup4\n              gt\n              tag_51\n              jumpi\n              dup3\n              swap1\n              sub\n              0x1f\n              and\n              dup3\n              add\n              swap2\n            tag_49:\n              pop\n              pop\n              pop\n              pop\n              pop\n              swap1\n              pop\n              dup3\n              jump\t// out\n                /* \"contracts/SimpleStorage.sol\":335:391  mapping (string => uint256) public nameToFavouriteNumber */\n            tag_32:\n              0x01\n              dup2\n              dup1\n              mload\n              0x20\n              dup2\n              add\n              dup3\n              add\n              dup1\n              mload\n              dup5\n              dup3\n              mstore\n              0x20\n              dup4\n              add\n              0x20\n              dup6\n              add\n              keccak256\n              dup2\n              dup4\n              mstore\n              dup1\n              swap6\n              pop\n              pop\n              pop\n              pop\n              pop\n              pop\n              0x00\n              swap2\n              pop\n              swap1\n              pop\n              sload\n              dup2\n              jump\t// out\n            tag_41:\n              dup3\n              dup1\n              sload\n              tag_52\n              swap1\n              tag_47\n              jump\t// in\n            tag_52:\n              swap1\n              0x00\n              mstore\n              keccak256(0x00, 0x20)\n              swap1\n              0x1f\n              add\n              0x20\n              swap1\n              div\n              dup2\n              add\n              swap3\n              dup3\n              tag_54\n              jumpi\n              0x00\n              dup6\n              sstore\n              jump(tag_53)\n            tag_54:\n              dup3\n              0x1f\n              lt\n              tag_55\n              jumpi\n              dup1\n              mload\n              not(0xff)\n              and\n              dup4\n              dup1\n              add\n              or\n              dup6\n              sstore\n              jump(tag_53)\n            tag_55:\n              dup3\n              dup1\n              add\n              0x01\n              add\n              dup6\n              sstore\n              dup3\n              iszero\n              tag_53\n              jumpi\n              swap2\n              dup3\n              add\n            tag_56:\n              dup3\n              dup2\n              gt\n              iszero\n              tag_57\n              jumpi\n              dup3\n              mload\n              dup3\n              sstore\n              swap2\n              0x20\n              add\n              swap2\n              swap1\n              0x01\n              add\n              swap1\n              jump(tag_56)\n            tag_57:\n            tag_53:\n              pop\n              swap1\n              pop\n              tag_58\n              swap2\n              swap1\n              tag_59\n              jump\t// in\n            tag_58:\n              pop\n              swap1\n              jump\t// out\n            tag_59:\n            tag_60:\n              dup1\n              dup3\n              gt\n              iszero\n              tag_61\n              jumpi\n              0x00\n              dup2\n              0x00\n              swap1\n              sstore\n              pop\n              0x01\n              add\n              jump(tag_60)\n            tag_61:\n              pop\n              swap1\n              jump\t// out\n                /* \"#utility.yul\":7:84   */\n            tag_62:\n                /* \"#utility.yul\":44:51   */\n              0x00\n                /* \"#utility.yul\":73:78   */\n              dup2\n                /* \"#utility.yul\":62:78   */\n              swap1\n              pop\n                /* \"#utility.yul\":7:84   */\n              swap2\n              swap1\n              pop\n              jump\t// out\n                /* \"#utility.yul\":90:208   */\n            tag_63:\n                /* \"#utility.yul\":177:201   */\n              tag_90\n                /* \"#utility.yul\":195:200   */\n              dup2\n                /* \"#utility.yul\":177:201   */\n              tag_62\n              jump\t// in\n            tag_90:\n                /* \"#utility.yul\":172:175   */\n              dup3\n                /* \"#utility.yul\":165:202   */\n              mstore\n                /* \"#utility.yul\":90:208   */\n              pop\n              pop\n              jump\t// out\n                /* \"#utility.yul\":214:436   */\n            tag_12:\n                /* \"#utility.yul\":307:311   */\n              0x00\n                /* \"#utility.yul\":345:347   */\n              0x20\n                /* \"#utility.yul\":334:343   */\n              dup3\n                /* \"#utility.yul\":330:348   */\n              add\n                /* \"#utility.yul\":322:348   */\n              swap1\n              pop\n                /* \"#utility.yul\":358:429   */\n              tag_92\n                /* \"#utility.yul\":426:427   */\n              0x00\n                /* \"#utility.yul\":415:424   */\n              dup4\n                /* \"#utility.yul\":411:428   */\n              add\n                /* \"#utility.yul\":402:408   */\n              dup5\n                /* \"#utility.yul\":358:429   */\n              tag_63\n              jump\t// in\n            tag_92:\n                /* \"#utility.yul\":214:436   */\n              swap3\n              swap2\n              pop\n              pop\n              jump\t// out\n                /* \"#utility.yul\":442:517   */\n            tag_64:\n                /* \"#utility.yul\":475:481   */\n              0x00\n                /* \"#utility.yul\":508:510   */\n              0x40\n                /* \"#utility.yul\":502:511   */\n              mload\n                /* \"#utility.yul\":492:511   */\n              swap1\n              pop\n                /* \"#utility.yul\":442:517   */\n              swap1\n              jump\t// out\n                /* \"#utility.yul\":523:640   */\n            tag_65:\n                /* \"#utility.yul\":632:633   */\n              0x00\n                /* \"#utility.yul\":629:630   */\n              dup1\n                /* \"#utility.yul\":622:634   */\n              revert\n                /* \"#utility.yul\":646:763   */\n            tag_66:\n                /* \"#utility.yul\":755:756   */\n              0x00\n                /* \"#utility.yul\":752:753   */\n              dup1\n                /* \"#utility.yul\":745:757   */\n              revert\n                /* \"#utility.yul\":769:891   */\n            tag_67:\n                /* \"#utility.yul\":842:866   */\n              tag_97\n                /* \"#utility.yul\":860:865   */\n              dup2\n                /* \"#utility.yul\":842:866   */\n              tag_62\n              jump\t// in\n            tag_97:\n                /* \"#utility.yul\":835:840   */\n              dup2\n                /* \"#utility.yul\":832:867   */\n              eq\n                /* \"#utility.yul\":822:885   */\n              tag_98\n              jumpi\n                /* \"#utility.yul\":881:882   */\n              0x00\n                /* \"#utility.yul\":878:879   */\n              dup1\n                /* \"#utility.yul\":871:883   */\n              revert\n                /* \"#utility.yul\":822:885   */\n            tag_98:\n                /* \"#utility.yul\":769:891   */\n              pop\n              jump\t// out\n                /* \"#utility.yul\":897:1036   */\n            tag_68:\n                /* \"#utility.yul\":943:948   */\n              0x00\n                /* \"#utility.yul\":981:987   */\n              dup2\n                /* \"#utility.yul\":968:988   */\n              calldataload\n                /* \"#utility.yul\":959:988   */\n              swap1\n              pop\n                /* \"#utility.yul\":997:1030   */\n              tag_100\n                /* \"#utility.yul\":1024:1029   */\n              dup2\n                /* \"#utility.yul\":997:1030   */\n              tag_67\n              jump\t// in\n            tag_100:\n                /* \"#utility.yul\":897:1036   */\n              swap3\n              swap2\n              pop\n              pop\n              jump\t// out\n                /* \"#utility.yul\":1042:1371   */\n            tag_18:\n                /* \"#utility.yul\":1101:1107   */\n              0x00\n                /* \"#utility.yul\":1150:1152   */\n              0x20\n                /* \"#utility.yul\":1138:1147   */\n              dup3\n                /* \"#utility.yul\":1129:1136   */\n              dup5\n                /* \"#utility.yul\":1125:1148   */\n              sub\n                /* \"#utility.yul\":1121:1153   */\n              slt\n                /* \"#utility.yul\":1118:1237   */\n              iszero\n              tag_102\n              jumpi\n                /* \"#utility.yul\":1156:1235   */\n              tag_103\n              tag_65\n              jump\t// in\n            tag_103:\n                /* \"#utility.yul\":1118:1237   */\n            tag_102:\n                /* \"#utility.yul\":1276:1277   */\n              0x00\n                /* \"#utility.yul\":1301:1354   */\n              tag_104\n                /* \"#utility.yul\":1346:1353   */\n              dup5\n                /* \"#utility.yul\":1337:1343   */\n              dup3\n                /* \"#utility.yul\":1326:1335   */\n              dup6\n                /* \"#utility.yul\":1322:1344   */\n              add\n                /* \"#utility.yul\":1301:1354   */\n              tag_68\n              jump\t// in\n            tag_104:\n                /* \"#utility.yul\":1291:1354   */\n              swap2\n              pop\n                /* \"#utility.yul\":1247:1364   */\n              pop\n                /* \"#utility.yul\":1042:1371   */\n              swap3\n              swap2\n              pop\n              pop\n              jump\t// out\n                /* \"#utility.yul\":1377:1494   */\n            tag_69:\n                /* \"#utility.yul\":1486:1487   */\n              0x00\n                /* \"#utility.yul\":1483:1484   */\n              dup1\n                /* \"#utility.yul\":1476:1488   */\n              revert\n                /* \"#utility.yul\":1500:1617   */\n            tag_70:\n                /* \"#utility.yul\":1609:1610   */\n              0x00\n                /* \"#utility.yul\":1606:1607   */\n              dup1\n                /* \"#utility.yul\":1599:1611   */\n              revert\n                /* \"#utility.yul\":1623:1725   */\n            tag_71:\n                /* \"#utility.yul\":1664:1670   */\n              0x00\n                /* \"#utility.yul\":1715:1717   */\n              0x1f\n                /* \"#utility.yul\":1711:1718   */\n              not\n                /* \"#utility.yul\":1706:1708   */\n              0x1f\n                /* \"#utility.yul\":1699:1704   */\n              dup4\n                /* \"#utility.yul\":1695:1709   */\n              add\n                /* \"#utility.yul\":1691:1719   */\n              and\n                /* \"#utility.yul\":1681:1719   */\n              swap1\n              pop\n                /* \"#utility.yul\":1623:1725   */\n              swap2\n              swap1\n              pop\n              jump\t// out\n                /* \"#utility.yul\":1731:1911   */\n            tag_72:\n                /* \"#utility.yul\":1779:1856   */\n              0x4e487b7100000000000000000000000000000000000000000000000000000000\n                /* \"#utility.yul\":1776:1777   */\n              0x00\n                /* \"#utility.yul\":1769:1857   */\n              mstore\n                /* \"#utility.yul\":1876:1880   */\n              0x41\n                /* \"#utility.yul\":1873:1874   */\n              0x04\n                /* \"#utility.yul\":1866:1881   */\n              mstore\n                /* \"#utility.yul\":1900:1904   */\n              0x24\n                /* \"#utility.yul\":1897:1898   */\n              0x00\n                /* \"#utility.yul\":1890:1905   */\n              revert\n                /* \"#utility.yul\":1917:2198   */\n            tag_73:\n                /* \"#utility.yul\":2000:2027   */\n              tag_110\n                /* \"#utility.yul\":2022:2026   */\n              dup3\n                /* \"#utility.yul\":2000:2027   */\n              tag_71\n              jump\t// in\n            tag_110:\n                /* \"#utility.yul\":1992:1998   */\n              dup2\n                /* \"#utility.yul\":1988:2028   */\n              add\n                /* \"#utility.yul\":2130:2136   */\n              dup2\n                /* \"#utility.yul\":2118:2128   */\n              dup2\n                /* \"#utility.yul\":2115:2137   */\n              lt\n                /* \"#utility.yul\":2094:2112   */\n              0xffffffffffffffff\n                /* \"#utility.yul\":2082:2092   */\n              dup3\n                /* \"#utility.yul\":2079:2113   */\n              gt\n                /* \"#utility.yul\":2076:2138   */\n              or\n                /* \"#utility.yul\":2073:2161   */\n              iszero\n              tag_111\n              jumpi\n                /* \"#utility.yul\":2141:2159   */\n              tag_112\n              tag_72\n              jump\t// in\n            tag_112:\n                /* \"#utility.yul\":2073:2161   */\n            tag_111:\n                /* \"#utility.yul\":2181:2191   */\n              dup1\n                /* \"#utility.yul\":2177:2179   */\n              0x40\n                /* \"#utility.yul\":2170:2192   */\n              mstore\n                /* \"#utility.yul\":1960:2198   */\n              pop\n                /* \"#utility.yul\":1917:2198   */\n              pop\n              pop\n              jump\t// out\n                /* \"#utility.yul\":2204:2333   */\n            tag_74:\n                /* \"#utility.yul\":2238:2244   */\n              0x00\n                /* \"#utility.yul\":2265:2285   */\n              tag_114\n              tag_64\n              jump\t// in\n            tag_114:\n                /* \"#utility.yul\":2255:2285   */\n              swap1\n              pop\n                /* \"#utility.yul\":2294:2327   */\n              tag_115\n                /* \"#utility.yul\":2322:2326   */\n              dup3\n                /* \"#utility.yul\":2314:2320   */\n              dup3\n                /* \"#utility.yul\":2294:2327   */\n              tag_73\n              jump\t// in\n            tag_115:\n                /* \"#utility.yul\":2204:2333   */\n              swap2\n              swap1\n              pop\n              jump\t// out\n                /* \"#utility.yul\":2339:2647   */\n            tag_75:\n                /* \"#utility.yul\":2401:2405   */\n              0x00\n                /* \"#utility.yul\":2491:2509   */\n              0xffffffffffffffff\n                /* \"#utility.yul\":2483:2489   */\n              dup3\n                /* \"#utility.yul\":2480:2510   */\n              gt\n                /* \"#utility.yul\":2477:2533   */\n              iszero\n              tag_117\n              jumpi\n                /* \"#utility.yul\":2513:2531   */\n              tag_118\n              tag_72\n              jump\t// in\n            tag_118:\n                /* \"#utility.yul\":2477:2533   */\n            tag_117:\n                /* \"#utility.yul\":2551:2580   */\n              tag_119\n                /* \"#utility.yul\":2573:2579   */\n              dup3\n                /* \"#utility.yul\":2551:2580   */\n              tag_71\n              jump\t// in\n            tag_119:\n                /* \"#utility.yul\":2543:2580   */\n              swap1\n              pop\n                /* \"#utility.yul\":2635:2639   */\n              0x20\n                /* \"#utility.yul\":2629:2633   */\n              dup2\n                /* \"#utility.yul\":2625:2640   */\n              add\n                /* \"#utility.yul\":2617:2640   */\n              swap1\n              pop\n                /* \"#utility.yul\":2339:2647   */\n              swap2\n              swap1\n              pop\n              jump\t// out\n                /* \"#utility.yul\":2653:2807   */\n            tag_76:\n                /* \"#utility.yul\":2737:2743   */\n              dup3\n                /* \"#utility.yul\":2732:2735   */\n              dup2\n                /* \"#utility.yul\":2727:2730   */\n              dup4\n                /* \"#utility.yul\":2714:2744   */\n              calldatacopy\n                /* \"#utility.yul\":2799:2800   */\n              0x00\n                /* \"#utility.yul\":2790:2796   */\n              dup4\n                /* \"#utility.yul\":2785:2788   */\n              dup4\n                /* \"#utility.yul\":2781:2797   */\n              add\n                /* \"#utility.yul\":2774:2801   */\n              mstore\n                /* \"#utility.yul\":2653:2807   */\n              pop\n              pop\n              pop\n              jump\t// out\n                /* \"#utility.yul\":2813:3225   */\n            tag_77:\n                /* \"#utility.yul\":2891:2896   */\n              0x00\n                /* \"#utility.yul\":2916:2982   */\n              tag_122\n                /* \"#utility.yul\":2932:2981   */\n              tag_123\n                /* \"#utility.yul\":2974:2980   */\n              dup5\n                /* \"#utility.yul\":2932:2981   */\n              tag_75\n              jump\t// in\n            tag_123:\n                /* \"#utility.yul\":2916:2982   */\n              tag_74\n              jump\t// in\n            tag_122:\n                /* \"#utility.yul\":2907:2982   */\n              swap1\n              pop\n                /* \"#utility.yul\":3005:3011   */\n              dup3\n                /* \"#utility.yul\":2998:3003   */\n              dup2\n                /* \"#utility.yul\":2991:3012   */\n              mstore\n                /* \"#utility.yul\":3043:3047   */\n              0x20\n                /* \"#utility.yul\":3036:3041   */\n              dup2\n                /* \"#utility.yul\":3032:3048   */\n              add\n                /* \"#utility.yul\":3081:3084   */\n              dup5\n                /* \"#utility.yul\":3072:3078   */\n              dup5\n                /* \"#utility.yul\":3067:3070   */\n              dup5\n                /* \"#utility.yul\":3063:3079   */\n              add\n                /* \"#utility.yul\":3060:3085   */\n              gt\n                /* \"#utility.yul\":3057:3169   */\n              iszero\n              tag_124\n              jumpi\n                /* \"#utility.yul\":3088:3167   */\n              tag_125\n              tag_70\n              jump\t// in\n            tag_125:\n                /* \"#utility.yul\":3057:3169   */\n            tag_124:\n                /* \"#utility.yul\":3178:3219   */\n              tag_126\n                /* \"#utility.yul\":3212:3218   */\n              dup5\n                /* \"#utility.yul\":3207:3210   */\n              dup3\n                /* \"#utility.yul\":3202:3205   */\n              dup6\n                /* \"#utility.yul\":3178:3219   */\n              tag_76\n              jump\t// in\n            tag_126:\n                /* \"#utility.yul\":2897:3225   */\n              pop\n                /* \"#utility.yul\":2813:3225   */\n              swap4\n              swap3\n              pop\n              pop\n              pop\n              jump\t// out\n                /* \"#utility.yul\":3245:3585   */\n            tag_78:\n                /* \"#utility.yul\":3301:3306   */\n              0x00\n                /* \"#utility.yul\":3350:3353   */\n              dup3\n                /* \"#utility.yul\":3343:3347   */\n              0x1f\n                /* \"#utility.yul\":3335:3341   */\n              dup4\n                /* \"#utility.yul\":3331:3348   */\n              add\n                /* \"#utility.yul\":3327:3354   */\n              slt\n                /* \"#utility.yul\":3317:3439   */\n              tag_128\n              jumpi\n                /* \"#utility.yul\":3358:3437   */\n              tag_129\n              tag_69\n              jump\t// in\n            tag_129:\n                /* \"#utility.yul\":3317:3439   */\n            tag_128:\n                /* \"#utility.yul\":3475:3481   */\n              dup2\n                /* \"#utility.yul\":3462:3482   */\n              calldataload\n                /* \"#utility.yul\":3500:3579   */\n              tag_130\n                /* \"#utility.yul\":3575:3578   */\n              dup5\n                /* \"#utility.yul\":3567:3573   */\n              dup3\n                /* \"#utility.yul\":3560:3564   */\n              0x20\n                /* \"#utility.yul\":3552:3558   */\n              dup7\n                /* \"#utility.yul\":3548:3565   */\n              add\n                /* \"#utility.yul\":3500:3579   */\n              tag_77\n              jump\t// in\n            tag_130:\n                /* \"#utility.yul\":3491:3579   */\n              swap2\n              pop\n                /* \"#utility.yul\":3307:3585   */\n              pop\n                /* \"#utility.yul\":3245:3585   */\n              swap3\n              swap2\n              pop\n              pop\n              jump\t// out\n                /* \"#utility.yul\":3591:4245   */\n            tag_22:\n                /* \"#utility.yul\":3669:3675   */\n              0x00\n                /* \"#utility.yul\":3677:3683   */\n              dup1\n                /* \"#utility.yul\":3726:3728   */\n              0x40\n                /* \"#utility.yul\":3714:3723   */\n              dup4\n                /* \"#utility.yul\":3705:3712   */\n              dup6\n                /* \"#utility.yul\":3701:3724   */\n              sub\n                /* \"#utility.yul\":3697:3729   */\n              slt\n                /* \"#utility.yul\":3694:3813   */\n              iszero\n              tag_132\n              jumpi\n                /* \"#utility.yul\":3732:3811   */\n              tag_133\n              tag_65\n              jump\t// in\n            tag_133:\n                /* \"#utility.yul\":3694:3813   */\n            tag_132:\n                /* \"#utility.yul\":3880:3881   */\n              0x00\n                /* \"#utility.yul\":3869:3878   */\n              dup4\n                /* \"#utility.yul\":3865:3882   */\n              add\n                /* \"#utility.yul\":3852:3883   */\n              calldataload\n                /* \"#utility.yul\":3910:3928   */\n              0xffffffffffffffff\n                /* \"#utility.yul\":3902:3908   */\n              dup2\n                /* \"#utility.yul\":3899:3929   */\n              gt\n                /* \"#utility.yul\":3896:4013   */\n              iszero\n              tag_134\n              jumpi\n                /* \"#utility.yul\":3932:4011   */\n              tag_135\n              tag_66\n              jump\t// in\n            tag_135:\n                /* \"#utility.yul\":3896:4013   */\n            tag_134:\n                /* \"#utility.yul\":4037:4100   */\n              tag_136\n                /* \"#utility.yul\":4092:4099   */\n              dup6\n                /* \"#utility.yul\":4083:4089   */\n              dup3\n                /* \"#utility.yul\":4072:4081   */\n              dup7\n                /* \"#utility.yul\":4068:4090   */\n              add\n                /* \"#utility.yul\":4037:4100   */\n              tag_78\n              jump\t// in\n            tag_136:\n                /* \"#utility.yul\":4027:4100   */\n              swap3\n              pop\n                /* \"#utility.yul\":3823:4110   */\n              pop\n                /* \"#utility.yul\":4149:4151   */\n              0x20\n                /* \"#utility.yul\":4175:4228   */\n              tag_137\n                /* \"#utility.yul\":4220:4227   */\n              dup6\n                /* \"#utility.yul\":4211:4217   */\n              dup3\n                /* \"#utility.yul\":4200:4209   */\n              dup7\n                /* \"#utility.yul\":4196:4218   */\n              add\n                /* \"#utility.yul\":4175:4228   */\n              tag_68\n              jump\t// in\n            tag_137:\n                /* \"#utility.yul\":4165:4228   */\n              swap2\n              pop\n                /* \"#utility.yul\":4120:4238   */\n              pop\n                /* \"#utility.yul\":3591:4245   */\n              swap3\n              pop\n              swap3\n              swap1\n              pop\n              jump\t// out\n                /* \"#utility.yul\":4251:4350   */\n            tag_79:\n                /* \"#utility.yul\":4303:4309   */\n              0x00\n                /* \"#utility.yul\":4337:4342   */\n              dup2\n                /* \"#utility.yul\":4331:4343   */\n              mload\n                /* \"#utility.yul\":4321:4343   */\n              swap1\n              pop\n                /* \"#utility.yul\":4251:4350   */\n              swap2\n              swap1\n              pop\n              jump\t// out\n                /* \"#utility.yul\":4356:4525   */\n            tag_80:\n                /* \"#utility.yul\":4440:4451   */\n              0x00\n                /* \"#utility.yul\":4474:4480   */\n              dup3\n                /* \"#utility.yul\":4469:4472   */\n              dup3\n                /* \"#utility.yul\":4462:4481   */\n              mstore\n                /* \"#utility.yul\":4514:4518   */\n              0x20\n                /* \"#utility.yul\":4509:4512   */\n              dup3\n                /* \"#utility.yul\":4505:4519   */\n              add\n                /* \"#utility.yul\":4490:4519   */\n              swap1\n              pop\n                /* \"#utility.yul\":4356:4525   */\n              swap3\n              swap2\n              pop\n              pop\n              jump\t// out\n                /* \"#utility.yul\":4531:4838   */\n            tag_81:\n                /* \"#utility.yul\":4599:4600   */\n              0x00\n                /* \"#utility.yul\":4609:4722   */\n            tag_141:\n                /* \"#utility.yul\":4623:4629   */\n              dup4\n                /* \"#utility.yul\":4620:4621   */\n              dup2\n                /* \"#utility.yul\":4617:4630   */\n              lt\n                /* \"#utility.yul\":4609:4722   */\n              iszero\n              tag_143\n              jumpi\n                /* \"#utility.yul\":4708:4709   */\n              dup1\n                /* \"#utility.yul\":4703:4706   */\n              dup3\n                /* \"#utility.yul\":4699:4710   */\n              add\n                /* \"#utility.yul\":4693:4711   */\n              mload\n                /* \"#utility.yul\":4689:4690   */\n              dup2\n                /* \"#utility.yul\":4684:4687   */\n              dup5\n                /* \"#utility.yul\":4680:4691   */\n              add\n                /* \"#utility.yul\":4673:4712   */\n              mstore\n                /* \"#utility.yul\":4645:4647   */\n              0x20\n                /* \"#utility.yul\":4642:4643   */\n              dup2\n                /* \"#utility.yul\":4638:4648   */\n              add\n                /* \"#utility.yul\":4633:4648   */\n              swap1\n              pop\n                /* \"#utility.yul\":4609:4722   */\n              jump(tag_141)\n            tag_143:\n                /* \"#utility.yul\":4740:4746   */\n              dup4\n                /* \"#utility.yul\":4737:4738   */\n              dup2\n                /* \"#utility.yul\":4734:4747   */\n              gt\n                /* \"#utility.yul\":4731:4832   */\n              iszero\n              tag_144\n              jumpi\n                /* \"#utility.yul\":4820:4821   */\n              0x00\n                /* \"#utility.yul\":4811:4817   */\n              dup5\n                /* \"#utility.yul\":4806:4809   */\n              dup5\n                /* \"#utility.yul\":4802:4818   */\n              add\n                /* \"#utility.yul\":4795:4822   */\n              mstore\n                /* \"#utility.yul\":4731:4832   */\n            tag_144:\n                /* \"#utility.yul\":4580:4838   */\n              pop\n                /* \"#utility.yul\":4531:4838   */\n              pop\n              pop\n              pop\n              jump\t// out\n                /* \"#utility.yul\":4844:5208   */\n            tag_82:\n                /* \"#utility.yul\":4932:4935   */\n              0x00\n                /* \"#utility.yul\":4960:4999   */\n              tag_146\n                /* \"#utility.yul\":4993:4998   */\n              dup3\n                /* \"#utility.yul\":4960:4999   */\n              tag_79\n              jump\t// in\n            tag_146:\n                /* \"#utility.yul\":5015:5086   */\n              tag_147\n                /* \"#utility.yul\":5079:5085   */\n              dup2\n                /* \"#utility.yul\":5074:5077   */\n              dup6\n                /* \"#utility.yul\":5015:5086   */\n              tag_80\n              jump\t// in\n            tag_147:\n                /* \"#utility.yul\":5008:5086   */\n              swap4\n              pop\n                /* \"#utility.yul\":5095:5147   */\n              tag_148\n                /* \"#utility.yul\":5140:5146   */\n              dup2\n                /* \"#utility.yul\":5135:5138   */\n              dup6\n                /* \"#utility.yul\":5128:5132   */\n              0x20\n                /* \"#utility.yul\":5121:5126   */\n              dup7\n                /* \"#utility.yul\":5117:5133   */\n              add\n                /* \"#utility.yul\":5095:5147   */\n              tag_81\n              jump\t// in\n            tag_148:\n                /* \"#utility.yul\":5172:5201   */\n              tag_149\n                /* \"#utility.yul\":5194:5200   */\n              dup2\n                /* \"#utility.yul\":5172:5201   */\n              tag_71\n              jump\t// in\n            tag_149:\n                /* \"#utility.yul\":5167:5170   */\n              dup5\n                /* \"#utility.yul\":5163:5202   */\n              add\n                /* \"#utility.yul\":5156:5202   */\n              swap2\n              pop\n                /* \"#utility.yul\":4936:5208   */\n              pop\n                /* \"#utility.yul\":4844:5208   */\n              swap3\n              swap2\n              pop\n              pop\n              jump\t// out\n                /* \"#utility.yul\":5214:5637   */\n            tag_28:\n                /* \"#utility.yul\":5355:5359   */\n              0x00\n                /* \"#utility.yul\":5393:5395   */\n              0x40\n                /* \"#utility.yul\":5382:5391   */\n              dup3\n                /* \"#utility.yul\":5378:5396   */\n              add\n                /* \"#utility.yul\":5370:5396   */\n              swap1\n              pop\n                /* \"#utility.yul\":5406:5477   */\n              tag_151\n                /* \"#utility.yul\":5474:5475   */\n              0x00\n                /* \"#utility.yul\":5463:5472   */\n              dup4\n                /* \"#utility.yul\":5459:5476   */\n              add\n                /* \"#utility.yul\":5450:5456   */\n              dup6\n                /* \"#utility.yul\":5406:5477   */\n              tag_63\n              jump\t// in\n            tag_151:\n                /* \"#utility.yul\":5524:5533   */\n              dup2\n                /* \"#utility.yul\":5518:5522   */\n              dup2\n                /* \"#utility.yul\":5514:5534   */\n              sub\n                /* \"#utility.yul\":5509:5511   */\n              0x20\n                /* \"#utility.yul\":5498:5507   */\n              dup4\n                /* \"#utility.yul\":5494:5512   */\n              add\n                /* \"#utility.yul\":5487:5535   */\n              mstore\n                /* \"#utility.yul\":5552:5630   */\n              tag_152\n                /* \"#utility.yul\":5625:5629   */\n              dup2\n                /* \"#utility.yul\":5616:5622   */\n              dup5\n                /* \"#utility.yul\":5552:5630   */\n              tag_82\n              jump\t// in\n            tag_152:\n                /* \"#utility.yul\":5544:5630   */\n              swap1\n              pop\n                /* \"#utility.yul\":5214:5637   */\n              swap4\n              swap3\n              pop\n              pop\n              pop\n              jump\t// out\n                /* \"#utility.yul\":5643:6152   */\n            tag_31:\n                /* \"#utility.yul\":5712:5718   */\n              0x00\n                /* \"#utility.yul\":5761:5763   */\n              0x20\n                /* \"#utility.yul\":5749:5758   */\n              dup3\n                /* \"#utility.yul\":5740:5747   */\n              dup5\n                /* \"#utility.yul\":5736:5759   */\n              sub\n                /* \"#utility.yul\":5732:5764   */\n              slt\n                /* \"#utility.yul\":5729:5848   */\n              iszero\n              tag_154\n              jumpi\n                /* \"#utility.yul\":5767:5846   */\n              tag_155\n              tag_65\n              jump\t// in\n            tag_155:\n                /* \"#utility.yul\":5729:5848   */\n            tag_154:\n                /* \"#utility.yul\":5915:5916   */\n              0x00\n                /* \"#utility.yul\":5904:5913   */\n              dup3\n                /* \"#utility.yul\":5900:5917   */\n              add\n                /* \"#utility.yul\":5887:5918   */\n              calldataload\n                /* \"#utility.yul\":5945:5963   */\n              0xffffffffffffffff\n                /* \"#utility.yul\":5937:5943   */\n              dup2\n                /* \"#utility.yul\":5934:5964   */\n              gt\n                /* \"#utility.yul\":5931:6048   */\n              iszero\n              tag_156\n              jumpi\n                /* \"#utility.yul\":5967:6046   */\n              tag_157\n              tag_66\n              jump\t// in\n            tag_157:\n                /* \"#utility.yul\":5931:6048   */\n            tag_156:\n                /* \"#utility.yul\":6072:6135   */\n              tag_158\n                /* \"#utility.yul\":6127:6134   */\n              dup5\n                /* \"#utility.yul\":6118:6124   */\n              dup3\n                /* \"#utility.yul\":6107:6116   */\n              dup6\n                /* \"#utility.yul\":6103:6125   */\n              add\n                /* \"#utility.yul\":6072:6135   */\n              tag_78\n              jump\t// in\n            tag_158:\n                /* \"#utility.yul\":6062:6135   */\n              swap2\n              pop\n                /* \"#utility.yul\":5858:6145   */\n              pop\n                /* \"#utility.yul\":5643:6152   */\n              swap3\n              swap2\n              pop\n              pop\n              jump\t// out\n                /* \"#utility.yul\":6158:6338   */\n            tag_83:\n                /* \"#utility.yul\":6206:6283   */\n              0x4e487b7100000000000000000000000000000000000000000000000000000000\n                /* \"#utility.yul\":6203:6204   */\n              0x00\n                /* \"#utility.yul\":6196:6284   */\n              mstore\n                /* \"#utility.yul\":6303:6307   */\n              0x11\n                /* \"#utility.yul\":6300:6301   */\n              0x04\n                /* \"#utility.yul\":6293:6308   */\n              mstore\n                /* \"#utility.yul\":6327:6331   */\n              0x24\n                /* \"#utility.yul\":6324:6325   */\n              0x00\n                /* \"#utility.yul\":6317:6332   */\n              revert\n                /* \"#utility.yul\":6344:6649   */\n            tag_37:\n                /* \"#utility.yul\":6384:6387   */\n              0x00\n                /* \"#utility.yul\":6403:6423   */\n              tag_161\n                /* \"#utility.yul\":6421:6422   */\n              dup3\n                /* \"#utility.yul\":6403:6423   */\n              tag_62\n              jump\t// in\n            tag_161:\n                /* \"#utility.yul\":6398:6423   */\n              swap2\n              pop\n                /* \"#utility.yul\":6437:6457   */\n              tag_162\n                /* \"#utility.yul\":6455:6456   */\n              dup4\n                /* \"#utility.yul\":6437:6457   */\n              tag_62\n              jump\t// in\n            tag_162:\n                /* \"#utility.yul\":6432:6457   */\n              swap3\n              pop\n                /* \"#utility.yul\":6591:6592   */\n              dup3\n                /* \"#utility.yul\":6523:6589   */\n              0xffffffffffffffffffffffffffffffffffffffffffffffffffffffffffffffff\n                /* \"#utility.yul\":6519:6593   */\n              sub\n                /* \"#utility.yul\":6516:6517   */\n              dup3\n                /* \"#utility.yul\":6513:6594   */\n              gt\n                /* \"#utility.yul\":6510:6617   */\n              iszero\n              tag_163\n              jumpi\n                /* \"#utility.yul\":6597:6615   */\n              tag_164\n              tag_83\n              jump\t// in\n            tag_164:\n                /* \"#utility.yul\":6510:6617   */\n            tag_163:\n                /* \"#utility.yul\":6641:6642   */\n              dup3\n                /* \"#utility.yul\":6638:6639   */\n              dup3\n                /* \"#utility.yul\":6634:6643   */\n              add\n                /* \"#utility.yul\":6627:6643   */\n              swap1\n              pop\n                /* \"#utility.yul\":6344:6649   */\n              swap3\n              swap2\n              pop\n              pop\n              jump\t// out\n                /* \"#utility.yul\":6655:6803   */\n            tag_84:\n                /* \"#utility.yul\":6757:6768   */\n              0x00\n                /* \"#utility.yul\":6794:6797   */\n              dup2\n                /* \"#utility.yul\":6779:6797   */\n              swap1\n              pop\n                /* \"#utility.yul\":6655:6803   */\n              swap3\n              swap2\n              pop\n              pop\n              jump\t// out\n                /* \"#utility.yul\":6809:7186   */\n            tag_85:\n                /* \"#utility.yul\":6915:6918   */\n              0x00\n                /* \"#utility.yul\":6943:6982   */\n              tag_167\n                /* \"#utility.yul\":6976:6981   */\n              dup3\n                /* \"#utility.yul\":6943:6982   */\n              tag_79\n              jump\t// in\n            tag_167:\n                /* \"#utility.yul\":6998:7087   */\n              tag_168\n                /* \"#utility.yul\":7080:7086   */\n              dup2\n                /* \"#utility.yul\":7075:7078   */\n              dup6\n                /* \"#utility.yul\":6998:7087   */\n              tag_84\n              jump\t// in\n            tag_168:\n                /* \"#utility.yul\":6991:7087   */\n              swap4\n              pop\n                /* \"#utility.yul\":7096:7148   */\n              tag_169\n                /* \"#utility.yul\":7141:7147   */\n              dup2\n                /* \"#utility.yul\":7136:7139   */\n              dup6\n                /* \"#utility.yul\":7129:7133   */\n              0x20\n                /* \"#utility.yul\":7122:7127   */\n              dup7\n                /* \"#utility.yul\":7118:7134   */\n              add\n                /* \"#utility.yul\":7096:7148   */\n              tag_81\n              jump\t// in\n            tag_169:\n                /* \"#utility.yul\":7173:7179   */\n              dup1\n                /* \"#utility.yul\":7168:7171   */\n              dup5\n                /* \"#utility.yul\":7164:7180   */\n              add\n                /* \"#utility.yul\":7157:7180   */\n              swap2\n              pop\n                /* \"#utility.yul\":6919:7186   */\n              pop\n                /* \"#utility.yul\":6809:7186   */\n              swap3\n              swap2\n              pop\n              pop\n              jump\t// out\n                /* \"#utility.yul\":7192:7467   */\n            tag_43:\n                /* \"#utility.yul\":7324:7327   */\n              0x00\n                /* \"#utility.yul\":7346:7441   */\n              tag_171\n                /* \"#utility.yul\":7437:7440   */\n              dup3\n                /* \"#utility.yul\":7428:7434   */\n              dup5\n                /* \"#utility.yul\":7346:7441   */\n              tag_85\n              jump\t// in\n            tag_171:\n                /* \"#utility.yul\":7339:7441   */\n              swap2\n              pop\n                /* \"#utility.yul\":7458:7461   */\n              dup2\n                /* \"#utility.yul\":7451:7461   */\n              swap1\n              pop\n                /* \"#utility.yul\":7192:7467   */\n              swap3\n              swap2\n              pop\n              pop\n              jump\t// out\n                /* \"#utility.yul\":7473:7653   */\n            tag_86:\n                /* \"#utility.yul\":7521:7598   */\n              0x4e487b7100000000000000000000000000000000000000000000000000000000\n                /* \"#utility.yul\":7518:7519   */\n              0x00\n                /* \"#utility.yul\":7511:7599   */\n              mstore\n                /* \"#utility.yul\":7618:7622   */\n              0x22\n                /* \"#utility.yul\":7615:7616   */\n              0x04\n                /* \"#utility.yul\":7608:7623   */\n              mstore\n                /* \"#utility.yul\":7642:7646   */\n              0x24\n                /* \"#utility.yul\":7639:7640   */\n              0x00\n                /* \"#utility.yul\":7632:7647   */\n              revert\n                /* \"#utility.yul\":7659:7979   */\n            tag_47:\n                /* \"#utility.yul\":7703:7709   */\n              0x00\n                /* \"#utility.yul\":7740:7741   */\n              0x02\n                /* \"#utility.yul\":7734:7738   */\n              dup3\n                /* \"#utility.yul\":7730:7742   */\n              div\n                /* \"#utility.yul\":7720:7742   */\n              swap1\n              pop\n                /* \"#utility.yul\":7787:7788   */\n              0x01\n                /* \"#utility.yul\":7781:7785   */\n              dup3\n                /* \"#utility.yul\":7777:7789   */\n              and\n                /* \"#utility.yul\":7808:7826   */\n              dup1\n                /* \"#utility.yul\":7798:7879   */\n              tag_174\n              jumpi\n                /* \"#utility.yul\":7864:7868   */\n              0x7f\n                /* \"#utility.yul\":7856:7862   */\n              dup3\n                /* \"#utility.yul\":7852:7869   */\n              and\n                /* \"#utility.yul\":7842:7869   */\n              swap2\n              pop\n                /* \"#utility.yul\":7798:7879   */\n            tag_174:\n                /* \"#utility.yul\":7926:7928   */\n              0x20\n                /* \"#utility.yul\":7918:7924   */\n              dup3\n                /* \"#utility.yul\":7915:7929   */\n              lt\n                /* \"#utility.yul\":7895:7913   */\n              dup2\n                /* \"#utility.yul\":7892:7930   */\n              eq\n                /* \"#utility.yul\":7889:7973   */\n              iszero\n              tag_175\n              jumpi\n                /* \"#utility.yul\":7945:7963   */\n              tag_176\n              tag_86\n              jump\t// in\n            tag_176:\n                /* \"#utility.yul\":7889:7973   */\n            tag_175:\n                /* \"#utility.yul\":7710:7979   */\n              pop\n                /* \"#utility.yul\":7659:7979   */\n              swap2\n              swap1\n              pop\n              jump\t// out\n\n            auxdata: 0xa26469706673582212208c3c31442be56659a848d3977d382e0815b3340db050761e5038048a47a04daf64736f6c63430008080033\n        }\n    }\n\n    auxdata: 0xa2646970667358221220292250f4c07693ad6f33d855e1e457974053ed3b372a476a978b7ba1713a42eb64736f6c63430008080033\n}\n",
				"bytecode": {
					"linkReferences": {},
					"object": "608060405234801561001057600080fd5b50610b57806100206000396000f3fe608060405234801561001057600080fd5b50600436106100415760003560e01c80631563700f146100465780631dda65411461006257806364591bf11461006c575b600080fd5b610060600480360381019061005b91906101ba565b61009c565b005b61006a6100a0565b005b610086600480360381019061008191906101fa565b610133565b60405161009391906102a6565b60405180910390f35b5050565b60006040516100ae90610172565b604051809103906000f0801580156100ca573d6000803e3d6000fd5b5090506000819080600181540180825580915050600190039060005260206000200160009091909190916101000a81548173ffffffffffffffffffffffffffffffffffffffff021916908373ffffffffffffffffffffffffffffffffffffffff16021790555050565b6000818154811061014357600080fd5b906000526020600020016000915054906101000a900473ffffffffffffffffffffffffffffffffffffffff1681565b610860806102c283390190565b600080fd5b6000819050919050565b61019781610184565b81146101a257600080fd5b50565b6000813590506101b48161018e565b92915050565b600080604083850312156101d1576101d061017f565b5b60006101df858286016101a5565b92505060206101f0858286016101a5565b9150509250929050565b6000602082840312156102105761020f61017f565b5b600061021e848285016101a5565b91505092915050565b600073ffffffffffffffffffffffffffffffffffffffff82169050919050565b6000819050919050565b600061026c61026761026284610227565b610247565b610227565b9050919050565b600061027e82610251565b9050919050565b600061029082610273565b9050919050565b6102a081610285565b82525050565b60006020820190506102bb6000830184610297565b9291505056fe608060405234801561001057600080fd5b50610840806100206000396000f3fe608060405234801561001057600080fd5b50600436106100625760003560e01c80632e64cec11461006757806343ede4ae146100855780636057361d146100a35780636f760f41146100bf5780639e7a13ad146100db578063b2ac62ef1461010c575b600080fd5b61006f61013c565b60405161007c91906103a6565b60405180910390f35b61008d610145565b60405161009a91906103a6565b60405180910390f35b6100bd60048036038101906100b89190610401565b61014b565b005b6100d960048036038101906100d49190610574565b61016a565b005b6100f560048036038101906100f09190610401565b610200565b604051610103929190610658565b60405180910390f35b61012660048036038101906101219190610688565b6102bc565b60405161013391906103a6565b60405180910390f35b60008054905090565b60005481565b8060008190555060016000546101619190610700565b60008190555050565b6000604051806040016040528083815260200184815250905060028190806001815401808255809150506001900390600052602060002090600202016000909190919091506000820151816000015560208201518160010190805190602001906101d59291906102ea565b505050816001846040516101e99190610792565b908152602001604051809103902081905550505050565b6002818154811061021057600080fd5b9060005260206000209060020201600091509050806000015490806001018054610239906107d8565b80601f0160208091040260200160405190810160405280929190818152602001828054610265906107d8565b80156102b25780601f10610287576101008083540402835291602001916102b2565b820191906000526020600020905b81548152906001019060200180831161029557829003601f168201915b5050505050905082565b6001818051602081018201805184825260208301602085012081835280955050505050506000915090505481565b8280546102f6906107d8565b90600052602060002090601f016020900481019282610318576000855561035f565b82601f1061033157805160ff191683800117855561035f565b8280016001018555821561035f579182015b8281111561035e578251825591602001919060010190610343565b5b50905061036c9190610370565b5090565b5b80821115610389576000816000905550600101610371565b5090565b6000819050919050565b6103a08161038d565b82525050565b60006020820190506103bb6000830184610397565b92915050565b6000604051905090565b600080fd5b600080fd5b6103de8161038d565b81146103e957600080fd5b50565b6000813590506103fb816103d5565b92915050565b600060208284031215610417576104166103cb565b5b6000610425848285016103ec565b91505092915050565b600080fd5b600080fd5b6000601f19601f8301169050919050565b7f4e487b7100000000000000000000000000000000000000000000000000000000600052604160045260246000fd5b61048182610438565b810181811067ffffffffffffffff821117156104a05761049f610449565b5b80604052505050565b60006104b36103c1565b90506104bf8282610478565b919050565b600067ffffffffffffffff8211156104df576104de610449565b5b6104e882610438565b9050602081019050919050565b82818337600083830152505050565b6000610517610512846104c4565b6104a9565b90508281526020810184848401111561053357610532610433565b5b61053e8482856104f5565b509392505050565b600082601f83011261055b5761055a61042e565b5b813561056b848260208601610504565b91505092915050565b6000806040838503121561058b5761058a6103cb565b5b600083013567ffffffffffffffff8111156105a9576105a86103d0565b5b6105b585828601610546565b92505060206105c6858286016103ec565b9150509250929050565b600081519050919050565b600082825260208201905092915050565b60005b8381101561060a5780820151818401526020810190506105ef565b83811115610619576000848401525b50505050565b600061062a826105d0565b61063481856105db565b93506106448185602086016105ec565b61064d81610438565b840191505092915050565b600060408201905061066d6000830185610397565b818103602083015261067f818461061f565b90509392505050565b60006020828403121561069e5761069d6103cb565b5b600082013567ffffffffffffffff8111156106bc576106bb6103d0565b5b6106c884828501610546565b91505092915050565b7f4e487b7100000000000000000000000000000000000000000000000000000000600052601160045260246000fd5b600061070b8261038d565b91506107168361038d565b9250827fffffffffffffffffffffffffffffffffffffffffffffffffffffffffffffffff0382111561074b5761074a6106d1565b5b828201905092915050565b600081905092915050565b600061076c826105d0565b6107768185610756565b93506107868185602086016105ec565b80840191505092915050565b600061079e8284610761565b915081905092915050565b7f4e487b7100000000000000000000000000000000000000000000000000000000600052602260045260246000fd5b600060028204905060018216806107f057607f821691505b60208210811415610804576108036107a9565b5b5091905056fea26469706673582212208c3c31442be56659a848d3977d382e0815b3340db050761e5038048a47a04daf64736f6c63430008080033a2646970667358221220292250f4c07693ad6f33d855e1e457974053ed3b372a476a978b7ba1713a42eb64736f6c63430008080033",
					"opcodes": "PUSH1 0x80 PUSH1 0x40 MSTORE CALLVALUE DUP1 ISZERO PUSH2 0x10 JUMPI PUSH1 0x0 DUP1 REVERT JUMPDEST POP PUSH2 0xB57 DUP1 PUSH2 0x20 PUSH1 0x0 CODECOPY PUSH1 0x0 RETURN INVALID PUSH1 0x80 PUSH1 0x40 MSTORE CALLVALUE DUP1 ISZERO PUSH2 0x10 JUMPI PUSH1 0x0 DUP1 REVERT JUMPDEST POP PUSH1 0x4 CALLDATASIZE LT PUSH2 0x41 JUMPI PUSH1 0x0 CALLDATALOAD PUSH1 0xE0 SHR DUP1 PUSH4 0x1563700F EQ PUSH2 0x46 JUMPI DUP1 PUSH4 0x1DDA6541 EQ PUSH2 0x62 JUMPI DUP1 PUSH4 0x64591BF1 EQ PUSH2 0x6C JUMPI JUMPDEST PUSH1 0x0 DUP1 REVERT JUMPDEST PUSH2 0x60 PUSH1 0x4 DUP1 CALLDATASIZE SUB DUP2 ADD SWAP1 PUSH2 0x5B SWAP2 SWAP1 PUSH2 0x1BA JUMP JUMPDEST PUSH2 0x9C JUMP JUMPDEST STOP JUMPDEST PUSH2 0x6A PUSH2 0xA0 JUMP JUMPDEST STOP JUMPDEST PUSH2 0x86 PUSH1 0x4 DUP1 CALLDATASIZE SUB DUP2 ADD SWAP1 PUSH2 0x81 SWAP2 SWAP1 PUSH2 0x1FA JUMP JUMPDEST PUSH2 0x133 JUMP JUMPDEST PUSH1 0x40 MLOAD PUSH2 0x93 SWAP2 SWAP1 PUSH2 0x2A6 JUMP JUMPDEST PUSH1 0x40 MLOAD DUP1 SWAP2 SUB SWAP1 RETURN JUMPDEST POP POP JUMP JUMPDEST PUSH1 0x0 PUSH1 0x40 MLOAD PUSH2 0xAE SWAP1 PUSH2 0x172 JUMP JUMPDEST PUSH1 0x40 MLOAD DUP1 SWAP2 SUB SWAP1 PUSH1 0x0 CREATE DUP1 ISZERO DUP1 ISZERO PUSH2 0xCA JUMPI RETURNDATASIZE PUSH1 0x0 DUP1 RETURNDATACOPY RETURNDATASIZE PUSH1 0x0 REVERT JUMPDEST POP SWAP1 POP PUSH1 0x0 DUP2 SWAP1 DUP1 PUSH1 0x1 DUP2 SLOAD ADD DUP1 DUP3 SSTORE DUP1 SWAP2 POP POP PUSH1 0x1 SWAP1 SUB SWAP1 PUSH1 0x0 MSTORE PUSH1 0x20 PUSH1 0x0 KECCAK256 ADD PUSH1 0x0 SWAP1 SWAP2 SWAP1 SWAP2 SWAP1 SWAP2 PUSH2 0x100 EXP DUP2 SLOAD DUP2 PUSH20 0xFFFFFFFFFFFFFFFFFFFFFFFFFFFFFFFFFFFFFFFF MUL NOT AND SWAP1 DUP4 PUSH20 0xFFFFFFFFFFFFFFFFFFFFFFFFFFFFFFFFFFFFFFFF AND MUL OR SWAP1 SSTORE POP POP JUMP JUMPDEST PUSH1 0x0 DUP2 DUP2 SLOAD DUP2 LT PUSH2 0x143 JUMPI PUSH1 0x0 DUP1 REVERT JUMPDEST SWAP1 PUSH1 0x0 MSTORE PUSH1 0x20 PUSH1 0x0 KECCAK256 ADD PUSH1 0x0 SWAP2 POP SLOAD SWAP1 PUSH2 0x100 EXP SWAP1 DIV PUSH20 0xFFFFFFFFFFFFFFFFFFFFFFFFFFFFFFFFFFFFFFFF AND DUP2 JUMP JUMPDEST PUSH2 0x860 DUP1 PUSH2 0x2C2 DUP4 CODECOPY ADD SWAP1 JUMP JUMPDEST PUSH1 0x0 DUP1 REVERT JUMPDEST PUSH1 0x0 DUP2 SWAP1 POP SWAP2 SWAP1 POP JUMP JUMPDEST PUSH2 0x197 DUP2 PUSH2 0x184 JUMP JUMPDEST DUP2 EQ PUSH2 0x1A2 JUMPI PUSH1 0x0 DUP1 REVERT JUMPDEST POP JUMP JUMPDEST PUSH1 0x0 DUP2 CALLDATALOAD SWAP1 POP PUSH2 0x1B4 DUP2 PUSH2 0x18E JUMP JUMPDEST SWAP3 SWAP2 POP POP JUMP JUMPDEST PUSH1 0x0 DUP1 PUSH1 0x40 DUP4 DUP6 SUB SLT ISZERO PUSH2 0x1D1 JUMPI PUSH2 0x1D0 PUSH2 0x17F JUMP JUMPDEST JUMPDEST PUSH1 0x0 PUSH2 0x1DF DUP6 DUP3 DUP7 ADD PUSH2 0x1A5 JUMP JUMPDEST SWAP3 POP POP PUSH1 0x20 PUSH2 0x1F0 DUP6 DUP3 DUP7 ADD PUSH2 0x1A5 JUMP JUMPDEST SWAP2 POP POP SWAP3 POP SWAP3 SWAP1 POP JUMP JUMPDEST PUSH1 0x0 PUSH1 0x20 DUP3 DUP5 SUB SLT ISZERO PUSH2 0x210 JUMPI PUSH2 0x20F PUSH2 0x17F JUMP JUMPDEST JUMPDEST PUSH1 0x0 PUSH2 0x21E DUP5 DUP3 DUP6 ADD PUSH2 0x1A5 JUMP JUMPDEST SWAP2 POP POP SWAP3 SWAP2 POP POP JUMP JUMPDEST PUSH1 0x0 PUSH20 0xFFFFFFFFFFFFFFFFFFFFFFFFFFFFFFFFFFFFFFFF DUP3 AND SWAP1 POP SWAP2 SWAP1 POP JUMP JUMPDEST PUSH1 0x0 DUP2 SWAP1 POP SWAP2 SWAP1 POP JUMP JUMPDEST PUSH1 0x0 PUSH2 0x26C PUSH2 0x267 PUSH2 0x262 DUP5 PUSH2 0x227 JUMP JUMPDEST PUSH2 0x247 JUMP JUMPDEST PUSH2 0x227 JUMP JUMPDEST SWAP1 POP SWAP2 SWAP1 POP JUMP JUMPDEST PUSH1 0x0 PUSH2 0x27E DUP3 PUSH2 0x251 JUMP JUMPDEST SWAP1 POP SWAP2 SWAP1 POP JUMP JUMPDEST PUSH1 0x0 PUSH2 0x290 DUP3 PUSH2 0x273 JUMP JUMPDEST SWAP1 POP SWAP2 SWAP1 POP JUMP JUMPDEST PUSH2 0x2A0 DUP2 PUSH2 0x285 JUMP JUMPDEST DUP3 MSTORE POP POP JUMP JUMPDEST PUSH1 0x0 PUSH1 0x20 DUP3 ADD SWAP1 POP PUSH2 0x2BB PUSH1 0x0 DUP4 ADD DUP5 PUSH2 0x297 JUMP JUMPDEST SWAP3 SWAP2 POP POP JUMP INVALID PUSH1 0x80 PUSH1 0x40 MSTORE CALLVALUE DUP1 ISZERO PUSH2 0x10 JUMPI PUSH1 0x0 DUP1 REVERT JUMPDEST POP PUSH2 0x840 DUP1 PUSH2 0x20 PUSH1 0x0 CODECOPY PUSH1 0x0 RETURN INVALID PUSH1 0x80 PUSH1 0x40 MSTORE CALLVALUE DUP1 ISZERO PUSH2 0x10 JUMPI PUSH1 0x0 DUP1 REVERT JUMPDEST POP PUSH1 0x4 CALLDATASIZE LT PUSH2 0x62 JUMPI PUSH1 0x0 CALLDATALOAD PUSH1 0xE0 SHR DUP1 PUSH4 0x2E64CEC1 EQ PUSH2 0x67 JUMPI DUP1 PUSH4 0x43EDE4AE EQ PUSH2 0x85 JUMPI DUP1 PUSH4 0x6057361D EQ PUSH2 0xA3 JUMPI DUP1 PUSH4 0x6F760F41 EQ PUSH2 0xBF JUMPI DUP1 PUSH4 0x9E7A13AD EQ PUSH2 0xDB JUMPI DUP1 PUSH4 0xB2AC62EF EQ PUSH2 0x10C JUMPI JUMPDEST PUSH1 0x0 DUP1 REVERT JUMPDEST PUSH2 0x6F PUSH2 0x13C JUMP JUMPDEST PUSH1 0x40 MLOAD PUSH2 0x7C SWAP2 SWAP1 PUSH2 0x3A6 JUMP JUMPDEST PUSH1 0x40 MLOAD DUP1 SWAP2 SUB SWAP1 RETURN JUMPDEST PUSH2 0x8D PUSH2 0x145 JUMP JUMPDEST PUSH1 0x40 MLOAD PUSH2 0x9A SWAP2 SWAP1 PUSH2 0x3A6 JUMP JUMPDEST PUSH1 0x40 MLOAD DUP1 SWAP2 SUB SWAP1 RETURN JUMPDEST PUSH2 0xBD PUSH1 0x4 DUP1 CALLDATASIZE SUB DUP2 ADD SWAP1 PUSH2 0xB8 SWAP2 SWAP1 PUSH2 0x401 JUMP JUMPDEST PUSH2 0x14B JUMP JUMPDEST STOP JUMPDEST PUSH2 0xD9 PUSH1 0x4 DUP1 CALLDATASIZE SUB DUP2 ADD SWAP1 PUSH2 0xD4 SWAP2 SWAP1 PUSH2 0x574 JUMP JUMPDEST PUSH2 0x16A JUMP JUMPDEST STOP JUMPDEST PUSH2 0xF5 PUSH1 0x4 DUP1 CALLDATASIZE SUB DUP2 ADD SWAP1 PUSH2 0xF0 SWAP2 SWAP1 PUSH2 0x401 JUMP JUMPDEST PUSH2 0x200 JUMP JUMPDEST PUSH1 0x40 MLOAD PUSH2 0x103 SWAP3 SWAP2 SWAP1 PUSH2 0x658 JUMP JUMPDEST PUSH1 0x40 MLOAD DUP1 SWAP2 SUB SWAP1 RETURN JUMPDEST PUSH2 0x126 PUSH1 0x4 DUP1 CALLDATASIZE SUB DUP2 ADD SWAP1 PUSH2 0x121 SWAP2 SWAP1 PUSH2 0x688 JUMP JUMPDEST PUSH2 0x2BC JUMP JUMPDEST PUSH1 0x40 MLOAD PUSH2 0x133 SWAP2 SWAP1 PUSH2 0x3A6 JUMP JUMPDEST PUSH1 0x40 MLOAD DUP1 SWAP2 SUB SWAP1 RETURN JUMPDEST PUSH1 0x0 DUP1 SLOAD SWAP1 POP SWAP1 JUMP JUMPDEST PUSH1 0x0 SLOAD DUP2 JUMP JUMPDEST DUP1 PUSH1 0x0 DUP2 SWAP1 SSTORE POP PUSH1 0x1 PUSH1 0x0 SLOAD PUSH2 0x161 SWAP2 SWAP1 PUSH2 0x700 JUMP JUMPDEST PUSH1 0x0 DUP2 SWAP1 SSTORE POP POP JUMP JUMPDEST PUSH1 0x0 PUSH1 0x40 MLOAD DUP1 PUSH1 0x40 ADD PUSH1 0x40 MSTORE DUP1 DUP4 DUP2 MSTORE PUSH1 0x20 ADD DUP5 DUP2 MSTORE POP SWAP1 POP PUSH1 0x2 DUP2 SWAP1 DUP1 PUSH1 0x1 DUP2 SLOAD ADD DUP1 DUP3 SSTORE DUP1 SWAP2 POP POP PUSH1 0x1 SWAP1 SUB SWAP1 PUSH1 0x0 MSTORE PUSH1 0x20 PUSH1 0x0 KECCAK256 SWAP1 PUSH1 0x2 MUL ADD PUSH1 0x0 SWAP1 SWAP2 SWAP1 SWAP2 SWAP1 SWAP2 POP PUSH1 0x0 DUP3 ADD MLOAD DUP2 PUSH1 0x0 ADD SSTORE PUSH1 0x20 DUP3 ADD MLOAD DUP2 PUSH1 0x1 ADD SWAP1 DUP1 MLOAD SWAP1 PUSH1 0x20 ADD SWAP1 PUSH2 0x1D5 SWAP3 SWAP2 SWAP1 PUSH2 0x2EA JUMP JUMPDEST POP POP POP DUP2 PUSH1 0x1 DUP5 PUSH1 0x40 MLOAD PUSH2 0x1E9 SWAP2 SWAP1 PUSH2 0x792 JUMP JUMPDEST SWAP1 DUP2 MSTORE PUSH1 0x20 ADD PUSH1 0x40 MLOAD DUP1 SWAP2 SUB SWAP1 KECCAK256 DUP2 SWAP1 SSTORE POP POP POP POP JUMP JUMPDEST PUSH1 0x2 DUP2 DUP2 SLOAD DUP2 LT PUSH2 0x210 JUMPI PUSH1 0x0 DUP1 REVERT JUMPDEST SWAP1 PUSH1 0x0 MSTORE PUSH1 0x20 PUSH1 0x0 KECCAK256 SWAP1 PUSH1 0x2 MUL ADD PUSH1 0x0 SWAP2 POP SWAP1 POP DUP1 PUSH1 0x0 ADD SLOAD SWAP1 DUP1 PUSH1 0x1 ADD DUP1 SLOAD PUSH2 0x239 SWAP1 PUSH2 0x7D8 JUMP JUMPDEST DUP1 PUSH1 0x1F ADD PUSH1 0x20 DUP1 SWAP2 DIV MUL PUSH1 0x20 ADD PUSH1 0x40 MLOAD SWAP1 DUP2 ADD PUSH1 0x40 MSTORE DUP1 SWAP3 SWAP2 SWAP1 DUP2 DUP2 MSTORE PUSH1 0x20 ADD DUP3 DUP1 SLOAD PUSH2 0x265 SWAP1 PUSH2 0x7D8 JUMP JUMPDEST DUP1 ISZERO PUSH2 0x2B2 JUMPI DUP1 PUSH1 0x1F LT PUSH2 0x287 JUMPI PUSH2 0x100 DUP1 DUP4 SLOAD DIV MUL DUP4 MSTORE SWAP2 PUSH1 0x20 ADD SWAP2 PUSH2 0x2B2 JUMP JUMPDEST DUP3 ADD SWAP2 SWAP1 PUSH1 0x0 MSTORE PUSH1 0x20 PUSH1 0x0 KECCAK256 SWAP1 JUMPDEST DUP2 SLOAD DUP2 MSTORE SWAP1 PUSH1 0x1 ADD SWAP1 PUSH1 0x20 ADD DUP1 DUP4 GT PUSH2 0x295 JUMPI DUP3 SWAP1 SUB PUSH1 0x1F AND DUP3 ADD SWAP2 JUMPDEST POP POP POP POP POP SWAP1 POP DUP3 JUMP JUMPDEST PUSH1 0x1 DUP2 DUP1 MLOAD PUSH1 0x20 DUP2 ADD DUP3 ADD DUP1 MLOAD DUP5 DUP3 MSTORE PUSH1 0x20 DUP4 ADD PUSH1 0x20 DUP6 ADD KECCAK256 DUP2 DUP4 MSTORE DUP1 SWAP6 POP POP POP POP POP POP PUSH1 0x0 SWAP2 POP SWAP1 POP SLOAD DUP2 JUMP JUMPDEST DUP3 DUP1 SLOAD PUSH2 0x2F6 SWAP1 PUSH2 0x7D8 JUMP JUMPDEST SWAP1 PUSH1 0x0 MSTORE PUSH1 0x20 PUSH1 0x0 KECCAK256 SWAP1 PUSH1 0x1F ADD PUSH1 0x20 SWAP1 DIV DUP2 ADD SWAP3 DUP3 PUSH2 0x318 JUMPI PUSH1 0x0 DUP6 SSTORE PUSH2 0x35F JUMP JUMPDEST DUP3 PUSH1 0x1F LT PUSH2 0x331 JUMPI DUP1 MLOAD PUSH1 0xFF NOT AND DUP4 DUP1 ADD OR DUP6 SSTORE PUSH2 0x35F JUMP JUMPDEST DUP3 DUP1 ADD PUSH1 0x1 ADD DUP6 SSTORE DUP3 ISZERO PUSH2 0x35F JUMPI SWAP2 DUP3 ADD JUMPDEST DUP3 DUP2 GT ISZERO PUSH2 0x35E JUMPI DUP3 MLOAD DUP3 SSTORE SWAP2 PUSH1 0x20 ADD SWAP2 SWAP1 PUSH1 0x1 ADD SWAP1 PUSH2 0x343 JUMP JUMPDEST JUMPDEST POP SWAP1 POP PUSH2 0x36C SWAP2 SWAP1 PUSH2 0x370 JUMP JUMPDEST POP SWAP1 JUMP JUMPDEST JUMPDEST DUP1 DUP3 GT ISZERO PUSH2 0x389 JUMPI PUSH1 0x0 DUP2 PUSH1 0x0 SWAP1 SSTORE POP PUSH1 0x1 ADD PUSH2 0x371 JUMP JUMPDEST POP SWAP1 JUMP JUMPDEST PUSH1 0x0 DUP2 SWAP1 POP SWAP2 SWAP1 POP JUMP JUMPDEST PUSH2 0x3A0 DUP2 PUSH2 0x38D JUMP JUMPDEST DUP3 MSTORE POP POP JUMP JUMPDEST PUSH1 0x0 PUSH1 0x20 DUP3 ADD SWAP1 POP PUSH2 0x3BB PUSH1 0x0 DUP4 ADD DUP5 PUSH2 0x397 JUMP JUMPDEST SWAP3 SWAP2 POP POP JUMP JUMPDEST PUSH1 0x0 PUSH1 0x40 MLOAD SWAP1 POP SWAP1 JUMP JUMPDEST PUSH1 0x0 DUP1 REVERT JUMPDEST PUSH1 0x0 DUP1 REVERT JUMPDEST PUSH2 0x3DE DUP2 PUSH2 0x38D JUMP JUMPDEST DUP2 EQ PUSH2 0x3E9 JUMPI PUSH1 0x0 DUP1 REVERT JUMPDEST POP JUMP JUMPDEST PUSH1 0x0 DUP2 CALLDATALOAD SWAP1 POP PUSH2 0x3FB DUP2 PUSH2 0x3D5 JUMP JUMPDEST SWAP3 SWAP2 POP POP JUMP JUMPDEST PUSH1 0x0 PUSH1 0x20 DUP3 DUP5 SUB SLT ISZERO PUSH2 0x417 JUMPI PUSH2 0x416 PUSH2 0x3CB JUMP JUMPDEST JUMPDEST PUSH1 0x0 PUSH2 0x425 DUP5 DUP3 DUP6 ADD PUSH2 0x3EC JUMP JUMPDEST SWAP2 POP POP SWAP3 SWAP2 POP POP JUMP JUMPDEST PUSH1 0x0 DUP1 REVERT JUMPDEST PUSH1 0x0 DUP1 REVERT JUMPDEST PUSH1 0x0 PUSH1 0x1F NOT PUSH1 0x1F DUP4 ADD AND SWAP1 POP SWAP2 SWAP1 POP JUMP JUMPDEST PUSH32 0x4E487B7100000000000000000000000000000000000000000000000000000000 PUSH1 0x0 MSTORE PUSH1 0x41 PUSH1 0x4 MSTORE PUSH1 0x24 PUSH1 0x0 REVERT JUMPDEST PUSH2 0x481 DUP3 PUSH2 0x438 JUMP JUMPDEST DUP2 ADD DUP2 DUP2 LT PUSH8 0xFFFFFFFFFFFFFFFF DUP3 GT OR ISZERO PUSH2 0x4A0 JUMPI PUSH2 0x49F PUSH2 0x449 JUMP JUMPDEST JUMPDEST DUP1 PUSH1 0x40 MSTORE POP POP POP JUMP JUMPDEST PUSH1 0x0 PUSH2 0x4B3 PUSH2 0x3C1 JUMP JUMPDEST SWAP1 POP PUSH2 0x4BF DUP3 DUP3 PUSH2 0x478 JUMP JUMPDEST SWAP2 SWAP1 POP JUMP JUMPDEST PUSH1 0x0 PUSH8 0xFFFFFFFFFFFFFFFF DUP3 GT ISZERO PUSH2 0x4DF JUMPI PUSH2 0x4DE PUSH2 0x449 JUMP JUMPDEST JUMPDEST PUSH2 0x4E8 DUP3 PUSH2 0x438 JUMP JUMPDEST SWAP1 POP PUSH1 0x20 DUP2 ADD SWAP1 POP SWAP2 SWAP1 POP JUMP JUMPDEST DUP3 DUP2 DUP4 CALLDATACOPY PUSH1 0x0 DUP4 DUP4 ADD MSTORE POP POP POP JUMP JUMPDEST PUSH1 0x0 PUSH2 0x517 PUSH2 0x512 DUP5 PUSH2 0x4C4 JUMP JUMPDEST PUSH2 0x4A9 JUMP JUMPDEST SWAP1 POP DUP3 DUP2 MSTORE PUSH1 0x20 DUP2 ADD DUP5 DUP5 DUP5 ADD GT ISZERO PUSH2 0x533 JUMPI PUSH2 0x532 PUSH2 0x433 JUMP JUMPDEST JUMPDEST PUSH2 0x53E DUP5 DUP3 DUP6 PUSH2 0x4F5 JUMP JUMPDEST POP SWAP4 SWAP3 POP POP POP JUMP JUMPDEST PUSH1 0x0 DUP3 PUSH1 0x1F DUP4 ADD SLT PUSH2 0x55B JUMPI PUSH2 0x55A PUSH2 0x42E JUMP JUMPDEST JUMPDEST DUP2 CALLDATALOAD PUSH2 0x56B DUP5 DUP3 PUSH1 0x20 DUP7 ADD PUSH2 0x504 JUMP JUMPDEST SWAP2 POP POP SWAP3 SWAP2 POP POP JUMP JUMPDEST PUSH1 0x0 DUP1 PUSH1 0x40 DUP4 DUP6 SUB SLT ISZERO PUSH2 0x58B JUMPI PUSH2 0x58A PUSH2 0x3CB JUMP JUMPDEST JUMPDEST PUSH1 0x0 DUP4 ADD CALLDATALOAD PUSH8 0xFFFFFFFFFFFFFFFF DUP2 GT ISZERO PUSH2 0x5A9 JUMPI PUSH2 0x5A8 PUSH2 0x3D0 JUMP JUMPDEST JUMPDEST PUSH2 0x5B5 DUP6 DUP3 DUP7 ADD PUSH2 0x546 JUMP JUMPDEST SWAP3 POP POP PUSH1 0x20 PUSH2 0x5C6 DUP6 DUP3 DUP7 ADD PUSH2 0x3EC JUMP JUMPDEST SWAP2 POP POP SWAP3 POP SWAP3 SWAP1 POP JUMP JUMPDEST PUSH1 0x0 DUP2 MLOAD SWAP1 POP SWAP2 SWAP1 POP JUMP JUMPDEST PUSH1 0x0 DUP3 DUP3 MSTORE PUSH1 0x20 DUP3 ADD SWAP1 POP SWAP3 SWAP2 POP POP JUMP JUMPDEST PUSH1 0x0 JUMPDEST DUP4 DUP2 LT ISZERO PUSH2 0x60A JUMPI DUP1 DUP3 ADD MLOAD DUP2 DUP5 ADD MSTORE PUSH1 0x20 DUP2 ADD SWAP1 POP PUSH2 0x5EF JUMP JUMPDEST DUP4 DUP2 GT ISZERO PUSH2 0x619 JUMPI PUSH1 0x0 DUP5 DUP5 ADD MSTORE JUMPDEST POP POP POP POP JUMP JUMPDEST PUSH1 0x0 PUSH2 0x62A DUP3 PUSH2 0x5D0 JUMP JUMPDEST PUSH2 0x634 DUP2 DUP6 PUSH2 0x5DB JUMP JUMPDEST SWAP4 POP PUSH2 0x644 DUP2 DUP6 PUSH1 0x20 DUP7 ADD PUSH2 0x5EC JUMP JUMPDEST PUSH2 0x64D DUP2 PUSH2 0x438 JUMP JUMPDEST DUP5 ADD SWAP2 POP POP SWAP3 SWAP2 POP POP JUMP JUMPDEST PUSH1 0x0 PUSH1 0x40 DUP3 ADD SWAP1 POP PUSH2 0x66D PUSH1 0x0 DUP4 ADD DUP6 PUSH2 0x397 JUMP JUMPDEST DUP2 DUP2 SUB PUSH1 0x20 DUP4 ADD MSTORE PUSH2 0x67F DUP2 DUP5 PUSH2 0x61F JUMP JUMPDEST SWAP1 POP SWAP4 SWAP3 POP POP POP JUMP JUMPDEST PUSH1 0x0 PUSH1 0x20 DUP3 DUP5 SUB SLT ISZERO PUSH2 0x69E JUMPI PUSH2 0x69D PUSH2 0x3CB JUMP JUMPDEST JUMPDEST PUSH1 0x0 DUP3 ADD CALLDATALOAD PUSH8 0xFFFFFFFFFFFFFFFF DUP2 GT ISZERO PUSH2 0x6BC JUMPI PUSH2 0x6BB PUSH2 0x3D0 JUMP JUMPDEST JUMPDEST PUSH2 0x6C8 DUP5 DUP3 DUP6 ADD PUSH2 0x546 JUMP JUMPDEST SWAP2 POP POP SWAP3 SWAP2 POP POP JUMP JUMPDEST PUSH32 0x4E487B7100000000000000000000000000000000000000000000000000000000 PUSH1 0x0 MSTORE PUSH1 0x11 PUSH1 0x4 MSTORE PUSH1 0x24 PUSH1 0x0 REVERT JUMPDEST PUSH1 0x0 PUSH2 0x70B DUP3 PUSH2 0x38D JUMP JUMPDEST SWAP2 POP PUSH2 0x716 DUP4 PUSH2 0x38D JUMP JUMPDEST SWAP3 POP DUP3 PUSH32 0xFFFFFFFFFFFFFFFFFFFFFFFFFFFFFFFFFFFFFFFFFFFFFFFFFFFFFFFFFFFFFFFF SUB DUP3 GT ISZERO PUSH2 0x74B JUMPI PUSH2 0x74A PUSH2 0x6D1 JUMP JUMPDEST JUMPDEST DUP3 DUP3 ADD SWAP1 POP SWAP3 SWAP2 POP POP JUMP JUMPDEST PUSH1 0x0 DUP2 SWAP1 POP SWAP3 SWAP2 POP POP JUMP JUMPDEST PUSH1 0x0 PUSH2 0x76C DUP3 PUSH2 0x5D0 JUMP JUMPDEST PUSH2 0x776 DUP2 DUP6 PUSH2 0x756 JUMP JUMPDEST SWAP4 POP PUSH2 0x786 DUP2 DUP6 PUSH1 0x20 DUP7 ADD PUSH2 0x5EC JUMP JUMPDEST DUP1 DUP5 ADD SWAP2 POP POP SWAP3 SWAP2 POP POP JUMP JUMPDEST PUSH1 0x0 PUSH2 0x79E DUP3 DUP5 PUSH2 0x761 JUMP JUMPDEST SWAP2 POP DUP2 SWAP1 POP SWAP3 SWAP2 POP POP JUMP JUMPDEST PUSH32 0x4E487B7100000000000000000000000000000000000000000000000000000000 PUSH1 0x0 MSTORE PUSH1 0x22 PUSH1 0x4 MSTORE PUSH1 0x24 PUSH1 0x0 REVERT JUMPDEST PUSH1 0x0 PUSH1 0x2 DUP3 DIV SWAP1 POP PUSH1 0x1 DUP3 AND DUP1 PUSH2 0x7F0 JUMPI PUSH1 0x7F DUP3 AND SWAP2 POP JUMPDEST PUSH1 0x20 DUP3 LT DUP2 EQ ISZERO PUSH2 0x804 JUMPI PUSH2 0x803 PUSH2 0x7A9 JUMP JUMPDEST JUMPDEST POP SWAP2 SWAP1 POP JUMP INVALID LOG2 PUSH5 0x6970667358 0x22 SLT KECCAK256 DUP13 EXTCODECOPY BALANCE DIFFICULTY 0x2B 0xE5 PUSH7 0x59A848D3977D38 0x2E ADDMOD ISZERO 0xB3 CALLVALUE 0xD 0xB0 POP PUSH23 0x1E5038048A47A04DAF64736F6C63430008080033A26469 PUSH17 0x667358221220292250F4C07693AD6F33D8 SSTORE 0xE1 0xE4 JUMPI SWAP8 BLOCKHASH MSTORE8 0xED EXTCODESIZE CALLDATACOPY 0x2A SELFBALANCE PUSH11 0x978B7BA1713A42EB64736F PUSH13 0x63430008080033000000000000 "
				},
				"gasEstimates": {
					"creation": {
						"codeDepositCost": "580600",
						"executionCost": "613",
						"totalCost": "581213"
					},
					"external": {
						"createSimpleStorageContract()": "infinite",
						"sfStore(uint256,uint256)": "infinite",
						"simpleStorageArray(uint256)": "infinite"
					}
				},
				"methodIdentifiers": {
					"createSimpleStorageContract()": "1dda6541",
					"sfStore(uint256,uint256)": "1563700f",
					"simpleStorageArray(uint256)": "64591bf1"
				}
			},
			"storageLayout": {
				"storage": [
					{
						"astId": 76,
						"contract": "contracts/StorageFactory.sol:StorageFactory",
						"label": "simpleStorageArray",
						"offset": 0,
						"slot": "0",
						"type": "t_array(t_contract(SimpleStorage)69)dyn_storage"
					}
				],
				"types": {
					"t_array(t_contract(SimpleStorage)69)dyn_storage": {
						"base": "t_contract(SimpleStorage)69",
						"encoding": "dynamic_array",
						"label": "contract SimpleStorage[]",
						"numberOfBytes": "32"
					},
					"t_contract(SimpleStorage)69": {
						"encoding": "inplace",
						"label": "contract SimpleStorage",
						"numberOfBytes": "20"
					}
				}
			},
			"userdoc": {
				"kind": "user",
				"methods": {},
				"version": 1
			}
		}
	}
}